{
  "address": "0x4b34EaD10c478f61f88a51698A62716cA5E19038",
  "abi": [
    {
      "inputs": [
        {
          "internalType": "address",
          "name": "_gelatoMsgSender",
          "type": "address"
        },
        {
          "internalType": "address",
          "name": "pythContract",
          "type": "address"
        },
        {
          "internalType": "address",
          "name": "_trustedForwarder",
          "type": "address"
        }
      ],
      "stateMutability": "nonpayable",
      "type": "constructor"
    },
    {
      "anonymous": false,
      "inputs": [
        {
          "indexed": false,
          "internalType": "address",
          "name": "user",
          "type": "address"
        },
        {
          "indexed": false,
          "internalType": "uint256",
          "name": "orderId",
          "type": "uint256"
        }
      ],
      "name": "executeConditionalOrder",
      "type": "event"
    },
    {
      "anonymous": false,
      "inputs": [
        {
          "indexed": false,
          "internalType": "address",
          "name": "user",
          "type": "address"
        },
        {
          "indexed": false,
          "internalType": "uint256",
          "name": "orderId",
          "type": "uint256"
        }
      ],
      "name": "executeLiquidateOrder",
      "type": "event"
    },
    {
      "anonymous": false,
      "inputs": [
        {
          "indexed": false,
          "internalType": "uint256",
          "name": "timestamp",
          "type": "uint256"
        },
        {
          "indexed": false,
          "internalType": "uint256",
          "name": "orderId",
          "type": "uint256"
        },
        {
          "indexed": false,
          "internalType": "uint256",
          "name": "amount",
          "type": "uint256"
        },
        {
          "indexed": false,
          "internalType": "uint256",
          "name": "leverage",
          "type": "uint256"
        },
        {
          "indexed": false,
          "internalType": "int64",
          "name": "price",
          "type": "int64"
        },
        {
          "indexed": false,
          "internalType": "int64",
          "name": "tokens",
          "type": "int64"
        }
      ],
      "name": "marginTradeEvent",
      "type": "event"
    },
    {
      "anonymous": false,
      "inputs": [
        {
          "indexed": false,
          "internalType": "uint256",
          "name": "timestamp",
          "type": "uint256"
        },
        {
          "indexed": false,
          "internalType": "uint256",
          "name": "orderId",
          "type": "uint256"
        },
        {
          "indexed": false,
          "internalType": "int64",
          "name": "price",
          "type": "int64"
        },
        {
          "indexed": false,
          "internalType": "bool",
          "name": "above",
          "type": "bool"
        }
      ],
      "name": "setConditionalOrderEvent",
      "type": "event"
    },
    {
      "anonymous": false,
      "inputs": [
        {
          "indexed": false,
          "internalType": "uint256",
          "name": "timestamp",
          "type": "uint256"
        },
        {
          "indexed": false,
          "internalType": "uint256",
          "name": "orderId",
          "type": "uint256"
        }
      ],
      "name": "setOrderEvent",
      "type": "event"
    },
    {
      "anonymous": false,
      "inputs": [
        {
          "indexed": false,
          "internalType": "address",
          "name": "user",
          "type": "address"
        },
        {
          "indexed": false,
          "internalType": "uint256",
          "name": "orderId",
          "type": "uint256"
        }
      ],
      "name": "settleOrderEvent",
      "type": "event"
    },
    {
      "anonymous": false,
      "inputs": [
        {
          "indexed": false,
          "internalType": "uint256",
          "name": "orderId",
          "type": "uint256"
        },
        {
          "indexed": false,
          "internalType": "uint256",
          "name": "amount",
          "type": "uint256"
        },
        {
          "indexed": false,
          "internalType": "bool",
          "name": "add",
          "type": "bool"
        }
      ],
      "name": "updateCollateralEvent",
      "type": "event"
    },
    {
      "inputs": [],
      "name": "conditionalOrderId",
      "outputs": [
        {
          "internalType": "uint256",
          "name": "",
          "type": "uint256"
        }
      ],
      "stateMutability": "view",
      "type": "function"
    },
    {
      "inputs": [
        {
          "internalType": "uint256",
          "name": "",
          "type": "uint256"
        }
      ],
      "name": "conditionalOrdersByOrderId",
      "outputs": [
        {
          "internalType": "address",
          "name": "user",
          "type": "address"
        },
        {
          "internalType": "uint256",
          "name": "timestamp",
          "type": "uint256"
        },
        {
          "internalType": "uint256",
          "name": "amount",
          "type": "uint256"
        },
        {
          "internalType": "int64",
          "name": "price",
          "type": "int64"
        },
        {
          "internalType": "uint256",
          "name": "publishTime",
          "type": "uint256"
        },
        {
          "internalType": "bool",
          "name": "above",
          "type": "bool"
        },
        {
          "internalType": "uint256",
          "name": "leverage",
          "type": "uint256"
        },
        {
          "internalType": "int64",
          "name": "priceSettled",
          "type": "int64"
        },
        {
          "internalType": "int64",
          "name": "tokens",
          "type": "int64"
        },
        {
          "internalType": "bool",
          "name": "active",
          "type": "bool"
        }
      ],
      "stateMutability": "view",
      "type": "function"
    },
    {
      "inputs": [
        {
          "internalType": "address",
          "name": "",
          "type": "address"
        },
        {
          "internalType": "uint256",
          "name": "",
          "type": "uint256"
        }
      ],
      "name": "conditionalOrdersByUser",
      "outputs": [
        {
          "internalType": "uint256",
          "name": "",
          "type": "uint256"
        }
      ],
      "stateMutability": "view",
      "type": "function"
    },
    {
      "inputs": [],
      "name": "gelatoMsgSender",
      "outputs": [
        {
          "internalType": "address",
          "name": "",
          "type": "address"
        }
      ],
      "stateMutability": "view",
      "type": "function"
    },
    {
      "inputs": [
        {
          "internalType": "uint256",
          "name": "_order",
          "type": "uint256"
        }
      ],
      "name": "getConditionalOrder",
      "outputs": [
        {
          "components": [
            {
              "internalType": "address",
              "name": "user",
              "type": "address"
            },
            {
              "internalType": "uint256",
              "name": "timestamp",
              "type": "uint256"
            },
            {
              "internalType": "uint256",
              "name": "amount",
              "type": "uint256"
            },
            {
              "internalType": "int64",
              "name": "price",
              "type": "int64"
            },
            {
              "internalType": "uint256",
              "name": "publishTime",
              "type": "uint256"
            },
            {
              "internalType": "bool",
              "name": "above",
              "type": "bool"
            },
            {
              "internalType": "uint256",
              "name": "leverage",
              "type": "uint256"
            },
            {
              "internalType": "int64",
              "name": "priceSettled",
              "type": "int64"
            },
            {
              "internalType": "int64",
              "name": "tokens",
              "type": "int64"
            },
            {
              "internalType": "bool",
              "name": "active",
              "type": "bool"
            }
          ],
          "internalType": "struct PerpMock.Order",
          "name": "",
          "type": "tuple"
        }
      ],
      "stateMutability": "view",
      "type": "function"
    },
    {
      "inputs": [
        {
          "internalType": "uint256",
          "name": "_order",
          "type": "uint256"
        }
      ],
      "name": "getMarginTrade",
      "outputs": [
        {
          "components": [
            {
              "internalType": "address",
              "name": "user",
              "type": "address"
            },
            {
              "internalType": "uint256",
              "name": "timestamp",
              "type": "uint256"
            },
            {
              "internalType": "uint256",
              "name": "amount",
              "type": "uint256"
            },
            {
              "internalType": "int64",
              "name": "price",
              "type": "int64"
            },
            {
              "internalType": "uint256",
              "name": "publishTime",
              "type": "uint256"
            },
            {
              "internalType": "bool",
              "name": "above",
              "type": "bool"
            },
            {
              "internalType": "uint256",
              "name": "leverage",
              "type": "uint256"
            },
            {
              "internalType": "int64",
              "name": "priceSettled",
              "type": "int64"
            },
            {
              "internalType": "int64",
              "name": "tokens",
              "type": "int64"
            },
            {
              "internalType": "bool",
              "name": "active",
              "type": "bool"
            }
          ],
          "internalType": "struct PerpMock.Order",
          "name": "",
          "type": "tuple"
        }
      ],
      "stateMutability": "view",
      "type": "function"
    },
    {
      "inputs": [
        {
          "internalType": "uint256",
          "name": "_order",
          "type": "uint256"
        }
      ],
      "name": "getOrder",
      "outputs": [
        {
          "components": [
            {
              "internalType": "address",
              "name": "user",
              "type": "address"
            },
            {
              "internalType": "uint256",
              "name": "timestamp",
              "type": "uint256"
            },
            {
              "internalType": "uint256",
              "name": "amount",
              "type": "uint256"
            },
            {
              "internalType": "int64",
              "name": "price",
              "type": "int64"
            },
            {
              "internalType": "uint256",
              "name": "publishTime",
              "type": "uint256"
            },
            {
              "internalType": "bool",
              "name": "above",
              "type": "bool"
            },
            {
              "internalType": "uint256",
              "name": "leverage",
              "type": "uint256"
            },
            {
              "internalType": "int64",
              "name": "priceSettled",
              "type": "int64"
            },
            {
              "internalType": "int64",
              "name": "tokens",
              "type": "int64"
            },
            {
              "internalType": "bool",
              "name": "active",
              "type": "bool"
            }
          ],
          "internalType": "struct PerpMock.Order",
          "name": "",
          "type": "tuple"
        }
      ],
      "stateMutability": "view",
      "type": "function"
    },
    {
      "inputs": [
        {
          "internalType": "address",
          "name": "forwarder",
          "type": "address"
        }
      ],
      "name": "isTrustedForwarder",
      "outputs": [
        {
          "internalType": "bool",
          "name": "",
          "type": "bool"
        }
      ],
      "stateMutability": "view",
      "type": "function"
    },
    {
      "inputs": [
        {
          "internalType": "uint256[]",
          "name": "_tradesLiquidated",
          "type": "uint256[]"
        },
        {
          "internalType": "uint256",
          "name": "_timestamp",
          "type": "uint256"
        },
        {
          "internalType": "int64",
          "name": "_priceSettled",
          "type": "int64"
        }
      ],
      "name": "liquidate",
      "outputs": [],
      "stateMutability": "nonpayable",
      "type": "function"
    },
    {
      "inputs": [
        {
          "internalType": "uint256",
          "name": "_leverage",
          "type": "uint256"
        },
        {
          "internalType": "uint256",
          "name": "_amount",
          "type": "uint256"
        },
        {
          "internalType": "int64",
          "name": "_price",
          "type": "int64"
        }
      ],
      "name": "marginTrade",
      "outputs": [],
      "stateMutability": "nonpayable",
      "type": "function"
    },
    {
      "inputs": [],
      "name": "marginTradeId",
      "outputs": [
        {
          "internalType": "uint256",
          "name": "",
          "type": "uint256"
        }
      ],
      "stateMutability": "view",
      "type": "function"
    },
    {
      "inputs": [
        {
          "internalType": "address",
          "name": "",
          "type": "address"
        }
      ],
      "name": "marginTradeIdByUser",
      "outputs": [
        {
          "internalType": "uint256",
          "name": "",
          "type": "uint256"
        }
      ],
      "stateMutability": "view",
      "type": "function"
    },
    {
      "inputs": [
        {
          "internalType": "uint256",
          "name": "",
          "type": "uint256"
        }
      ],
      "name": "marginTradesByOrderId",
      "outputs": [
        {
          "internalType": "address",
          "name": "user",
          "type": "address"
        },
        {
          "internalType": "uint256",
          "name": "timestamp",
          "type": "uint256"
        },
        {
          "internalType": "uint256",
          "name": "amount",
          "type": "uint256"
        },
        {
          "internalType": "int64",
          "name": "price",
          "type": "int64"
        },
        {
          "internalType": "uint256",
          "name": "publishTime",
          "type": "uint256"
        },
        {
          "internalType": "bool",
          "name": "above",
          "type": "bool"
        },
        {
          "internalType": "uint256",
          "name": "leverage",
          "type": "uint256"
        },
        {
          "internalType": "int64",
          "name": "priceSettled",
          "type": "int64"
        },
        {
          "internalType": "int64",
          "name": "tokens",
          "type": "int64"
        },
        {
          "internalType": "bool",
          "name": "active",
          "type": "bool"
        }
      ],
      "stateMutability": "view",
      "type": "function"
    },
    {
      "inputs": [
        {
          "internalType": "address",
          "name": "",
          "type": "address"
        }
      ],
      "name": "nrConditionalOrdersByUser",
      "outputs": [
        {
          "internalType": "uint256",
          "name": "",
          "type": "uint256"
        }
      ],
      "stateMutability": "view",
      "type": "function"
    },
    {
      "inputs": [],
      "name": "nrOrders",
      "outputs": [
        {
          "internalType": "uint256",
          "name": "",
          "type": "uint256"
        }
      ],
      "stateMutability": "view",
      "type": "function"
    },
    {
      "inputs": [
        {
          "internalType": "address",
          "name": "",
          "type": "address"
        }
      ],
      "name": "nrOrdersByUser",
      "outputs": [
        {
          "internalType": "uint256",
          "name": "",
          "type": "uint256"
        }
      ],
      "stateMutability": "view",
      "type": "function"
    },
    {
      "inputs": [],
      "name": "orderId",
      "outputs": [
        {
          "internalType": "uint256",
          "name": "",
          "type": "uint256"
        }
      ],
      "stateMutability": "view",
      "type": "function"
    },
    {
      "inputs": [
        {
          "internalType": "uint256",
          "name": "",
          "type": "uint256"
        }
      ],
      "name": "ordersByOrderId",
      "outputs": [
        {
          "internalType": "address",
          "name": "user",
          "type": "address"
        },
        {
          "internalType": "uint256",
          "name": "timestamp",
          "type": "uint256"
        },
        {
          "internalType": "uint256",
          "name": "amount",
          "type": "uint256"
        },
        {
          "internalType": "int64",
          "name": "price",
          "type": "int64"
        },
        {
          "internalType": "uint256",
          "name": "publishTime",
          "type": "uint256"
        },
        {
          "internalType": "bool",
          "name": "above",
          "type": "bool"
        },
        {
          "internalType": "uint256",
          "name": "leverage",
          "type": "uint256"
        },
        {
          "internalType": "int64",
          "name": "priceSettled",
          "type": "int64"
        },
        {
          "internalType": "int64",
          "name": "tokens",
          "type": "int64"
        },
        {
          "internalType": "bool",
          "name": "active",
          "type": "bool"
        }
      ],
      "stateMutability": "view",
      "type": "function"
    },
    {
      "inputs": [
        {
          "internalType": "address",
          "name": "",
          "type": "address"
        },
        {
          "internalType": "uint256",
          "name": "",
          "type": "uint256"
        }
      ],
      "name": "ordersByUser",
      "outputs": [
        {
          "internalType": "uint256",
          "name": "",
          "type": "uint256"
        }
      ],
      "stateMutability": "view",
      "type": "function"
    },
    {
      "inputs": [],
      "name": "owner",
      "outputs": [
        {
          "internalType": "address",
          "name": "",
          "type": "address"
        }
      ],
      "stateMutability": "view",
      "type": "function"
    },
    {
      "inputs": [
        {
          "internalType": "uint256",
          "name": "_amount",
          "type": "uint256"
        },
        {
          "internalType": "int64",
          "name": "_price",
          "type": "int64"
        },
        {
          "internalType": "bool",
          "name": "_above",
          "type": "bool"
        }
      ],
      "name": "setConditionalOrder",
      "outputs": [],
      "stateMutability": "nonpayable",
      "type": "function"
    },
    {
      "inputs": [
        {
          "internalType": "uint256",
          "name": "_amount",
          "type": "uint256"
        }
      ],
      "name": "setOrder",
      "outputs": [],
      "stateMutability": "nonpayable",
      "type": "function"
    },
    {
      "inputs": [
        {
          "internalType": "uint256",
          "name": "_orderId",
          "type": "uint256"
        },
        {
          "internalType": "uint256",
          "name": "_amount",
          "type": "uint256"
        },
        {
          "internalType": "bool",
          "name": "_add",
          "type": "bool"
        }
      ],
      "name": "updateCollateral",
      "outputs": [],
      "stateMutability": "nonpayable",
      "type": "function"
    },
    {
      "inputs": [
        {
          "internalType": "bytes[]",
          "name": "updatePriceData",
          "type": "bytes[]"
        },
        {
          "internalType": "uint256[]",
          "name": "_conditionalOrders",
          "type": "uint256[]"
        },
        {
          "internalType": "uint256",
          "name": "_timestamp",
          "type": "uint256"
        }
      ],
      "name": "updatePriceConditionalOrders",
      "outputs": [],
      "stateMutability": "nonpayable",
      "type": "function"
    },
    {
      "inputs": [
        {
          "internalType": "bytes[]",
          "name": "updatePriceData",
          "type": "bytes[]"
        },
        {
          "internalType": "uint256[]",
          "name": "_orders",
          "type": "uint256[]"
        },
        {
          "internalType": "uint256",
          "name": "_timestamp",
          "type": "uint256"
        }
      ],
      "name": "updatePriceOrders",
      "outputs": [],
      "stateMutability": "nonpayable",
      "type": "function"
    },
    {
      "inputs": [],
      "name": "withdraw",
      "outputs": [
        {
          "internalType": "bool",
          "name": "",
          "type": "bool"
        }
      ],
      "stateMutability": "nonpayable",
      "type": "function"
    },
    {
      "stateMutability": "payable",
      "type": "receive"
    }
  ],
  "transactionHash": "0xa9c8649ceb3bafadbb4d3d0de6ff5aebd1b8193101b85b3b4196d6f601337cb8",
  "args": [
    "0xbB97656cd5fECe3a643335d03C8919D5E7DcD225",
    "0xA2aa501b19aff244D90cc15a4Cf739D2725B5729",
    "0xd8253782c45a12053594b9deB72d8e8aB2Fca54c"
  ],
  "numDeployments": 2,
  "solcInputHash": "c2ea4318a4d9556cf0e1f1725f2ec63e",
  "bytecode": "0x60c06040523480156200001157600080fd5b506040516200219e3803806200219e83398101604081905262000034916200008e565b6001600160a01b0390811660805291821660a05260028054919092166001600160a01b0319918216179091556000805490911633179055620000d8565b80516001600160a01b03811681146200008957600080fd5b919050565b600080600060608486031215620000a457600080fd5b620000af8462000071565b9250620000bf6020850162000071565b9150620000cf6040850162000071565b90509250925092565b60805160a0516120846200011a6000396000818161054f0152818161086f015281816109e6015261138101526000818161034801526118c601526120846000f3fe6080604052600436106101855760003560e01c80637c86f434116100d1578063c7647ff71161008a578063d2d0bed611610064578063d2d0bed614610665578063d800a4dd1461067b578063ef4532cf146106a8578063fe3d33ce146106c857600080fd5b8063c7647ff7146105f8578063cdf8972e14610625578063d09ef2411461064557600080fd5b80637c86f4341461049857806382c03cce146104b85780638da5cb5b146104d8578063a1df8f5c14610510578063c54430821461053d578063c57bf9ad1461057157600080fd5b8063572b6c051161013e57806373729d051161011857806373729d05146103b057806377197d27146103d057806378959dbc146104585780637a3174a71461047857600080fd5b8063572b6c051461032b578063574b07311461037857806365d4a9671461039a57600080fd5b806310cfa97f14610191578063163de5e5146101c75780631e935851146101eb57806332496c7c1461020b5780633ccfd60b146102f05780634c2eefb41461031557600080fd5b3661018c57005b600080fd5b34801561019d57600080fd5b506101b16101ac3660046119c3565b6106e8565b6040516101be91906119dc565b60405180910390f35b3480156101d357600080fd5b506101dd60045481565b6040519081526020016101be565b3480156101f757600080fd5b506101dd610206366004611a98565b610796565b34801561021757600080fd5b506102926102263660046119c3565b600d60205260009081526040902080546001820154600283015460038401546004850154600586015460068701546007978801546001600160a01b03909716979596949593840b94929360ff92831693919282820b92600160401b810490920b91600160801b9004168a565b604080516001600160a01b03909b168b5260208b019990995297890196909652600794850b6060890152608088019390935290151560a087015260c0860152810b60e08501520b6101008301521515610120820152610140016101be565b3480156102fc57600080fd5b506103056107c7565b60405190151581526020016101be565b34801561032157600080fd5b506101dd60085481565b34801561033757600080fd5b50610305610346366004611ac2565b7f00000000000000000000000000000000000000000000000000000000000000006001600160a01b0390811691161490565b34801561038457600080fd5b50610398610393366004611bba565b610864565b005b3480156103a657600080fd5b506101dd600c5481565b3480156103bc57600080fd5b506101dd6103cb366004611a98565b6109bf565b3480156103dc57600080fd5b506102926103eb3660046119c3565b6005602081905260009182526040909120805460018201546002830154600384015460048501549585015460068601546007968701546001600160a01b03909616979496939592840b949360ff92831693919282820b92600160401b810490920b91600160801b9004168a565b34801561046457600080fd5b50610398610473366004611cfb565b6109db565b34801561048457600080fd5b50610398610493366004611d66565b610b22565b3480156104a457600080fd5b506103986104b33660046119c3565b610c89565b3480156104c457600080fd5b506103986104d3366004611d9b565b610ec6565b3480156104e457600080fd5b506000546104f8906001600160a01b031681565b6040516001600160a01b0390911681526020016101be565b34801561051c57600080fd5b506101dd61052b366004611ac2565b600e6020526000908152604090205481565b34801561054957600080fd5b506104f87f000000000000000000000000000000000000000000000000000000000000000081565b34801561057d57600080fd5b5061029261058c3660046119c3565b600960205260009081526040902080546001820154600283015460038401546004850154600586015460068701546007978801546001600160a01b03909716979596949593840b94929360ff92831693919282820b92600160401b810490920b91600160801b9004168a565b34801561060457600080fd5b506101dd610613366004611ac2565b60076020526000908152604090205481565b34801561063157600080fd5b506101b16106403660046119c3565b61121a565b34801561065157600080fd5b506101b16106603660046119c3565b6112c8565b34801561067157600080fd5b506101dd60015481565b34801561068757600080fd5b506101dd610696366004611ac2565b600b6020526000908152604090205481565b3480156106b457600080fd5b506103986106c3366004611bba565b611376565b3480156106d457600080fd5b506103986106e3366004611dc9565b6114ce565b6106f061196f565b506000908152600d602090815260409182902082516101408101845281546001600160a01b031681526001820154928101929092526002810154928201929092526003820154600790810b606083015260048301546080830152600583015460ff908116151560a0840152600684015460c08401529281015480820b60e0840152600160401b810490910b610100830152600160801b9004909116151561012082015290565b600660205281600052604060002081815481106107b257600080fd5b90600052602060002001600091509150505481565b600080546001600160a01b031633146108145760405162461bcd60e51b815260206004820152600a60248201526927b7363c9027bbb732b960b11b60448201526064015b60405180910390fd5b604051600090339047908381818185875af1925050503d8060008114610856576040519150601f19603f3d011682016040523d82523d6000602084013e61085b565b606091505b50909250505090565b336001600160a01b037f000000000000000000000000000000000000000000000000000000000000000016146108ac5760405162461bcd60e51b815260040161080b90611dfe565b60006108b884836116ec565b905060005b83518110156109b8576000600560008684815181106108de576108de611e33565b6020908102919091018101518252810191909152604001600020835160078201805442600485015570ff0000000000000000ffffffffffffffff191667ffffffffffffffff909216919091179055805486519192507fccd3be7a71c0db83ae7270007ddc655ac0872f3c8122af7f9b58ba74408950df916001600160a01b039091169087908590811061097357610973611e33565b602002602001015160405161099d9291906001600160a01b03929092168252602082015260400190565b60405180910390a150806109b081611e5f565b9150506108bd565b5050505050565b600a60205281600052604060002081815481106107b257600080fd5b336001600160a01b037f00000000000000000000000000000000000000000000000000000000000000001614610a235760405162461bcd60e51b815260040161080b90611dfe565b60005b8351811015610b1c576000600d6000868481518110610a4757610a47611e33565b60209081029190910181015182528101919091526040016000206007810180546004830187905570ff0000000000000000ffffffffffffffff191667ffffffffffffffff8616179055805486519192507f4c5553db85d7bfef7a6d0eaf4081b48180d894da946d898a43bcf895606c85d0916001600160a01b0390911690879085908110610ad757610ad7611e33565b6020026020010151604051610b019291906001600160a01b03929092168252602082015260400190565b60405180910390a15080610b1481611e5f565b915050610a26565b50505050565b6000838152600d60205260408120600601549003610b745760405162461bcd60e51b815260206004820152600f60248201526e4e6f204d617267696e20547261646560881b604482015260640161080b565b8015610ba6576000838152600d602052604081206002018054849290610b9b908490611e78565b90915550610c3e9050565b6000838152600d60205260409020600201548210610c175760405162461bcd60e51b815260206004820152602860248201527f52656d6f76696e6720636f6c61746572616c20686967686572207468616e20616044820152677661696c61626c6560c01b606482015260840161080b565b6000838152600d602052604081206002018054849290610c38908490611e8b565b90915550505b6040805184815260208101849052821515918101919091527fee8643e67c24622cc9a839eafd837adc5c08d4354a70257db45b3cb2bde00eeb906060015b60405180910390a1505050565b600160046000828254610c9c9190611e78565b925050819055506001806000828254610cb59190611e78565b92505081905550604051806101400160405280610cd06118c2565b6001600160a01b039081168252426020808401919091526040808401869052600060608086018290526080808701839052600160a080890182905260c0808a0186905260e0808b01879052610100808c018890526101209b8c018590526004805489526005808c528a8a208f5181546001600160a01b0319169e169d909d178d559a8e0151958c0195909555978c015160028b0155948b015160038a01805467ffffffffffffffff191667ffffffffffffffff928316179055938b015192890192909255890151958701805460ff1916961515969096179095559387015160068087019190915590870151600790950180549388015197909601519484166001600160801b031990931692909217600160401b96909316959095029190911760ff60801b1916600160801b921515929092029190911790915590610e126118c2565b6001600160a01b03168152602080820192909252604001600090812060045481546001818101845592845293832090930192909255600790610e526118c2565b6001600160a01b03166001600160a01b031681526020019081526020016000206000828254610e819190611e78565b90915550506004546040805142815260208101929092527f6f34c3f094460b0585979f759a118a66b36a8e39a5fad428401bededa66b4d4a910160405180910390a150565b60008211610f085760405162461bcd60e51b815260206004820152600f60248201526e416d6f756e7420506f73697469766560881b604482015260640161080b565b60008311610f4c5760405162461bcd60e51b81526020600482015260116024820152704c6576657261676520506f73697469766560781b604482015260640161080b565b60008160070b13610f905760405162461bcd60e51b815260206004820152600e60248201526d507269636520506f73697469766560901b604482015260640161080b565b600d6000600e6000610fa06118c2565b6001600160a01b0316815260208082019290925260409081016000908120548452918301939093529101902060070154600160801b900460ff161561101c5760405162461bcd60e51b8152602060048201526012602482015271416c726561647920696e206120747261646560701b604482015260640161080b565b600180600082825461102e9190611e78565b925050819055506001600c60008282546110489190611e78565b9091555060009050816110608464e8d4a51000611e9e565b61106a9190611ec5565b6040805161014081018252338152426020808301918252828401888152600788810b6060860190815260006080870181815260a0880182815260c089018f815260e08a018481528c870b6101008c0190815260016101208d01818152600c80548952600d909c529d87209c518d546001600160a01b0319166001600160a01b03909116178d559a519a8c019a909a55965160028b0155935160038a01805467ffffffffffffffff191667ffffffffffffffff928316179055915160048a01555160058901805460ff1916911515919091179055915160068801559251959091018054945196519582166001600160801b031990951694909417600160401b96909116959095029490941760ff60801b1916600160801b9315159390930292909217905554919250600e9061119c6118c2565b6001600160a01b03168152602080820192909252604090810160002092909255600c5482514281529182015290810184905260608101859052600783810b608083015282900b60a08201527f25b0402b3a62a8bdf506198467bb8414d799dd285d94f74ebfe452424a9225149060c00160405180910390a150505050565b61122261196f565b5060009081526009602090815260409182902082516101408101845281546001600160a01b031681526001820154928101929092526002810154928201929092526003820154600790810b606083015260048301546080830152600583015460ff908116151560a0840152600684015460c08401529281015480820b60e0840152600160401b810490910b610100830152600160801b9004909116151561012082015290565b6112d061196f565b5060009081526005602081815260409283902083516101408101855281546001600160a01b031681526001820154928101929092526002810154938201939093526003830154600790810b6060830152600484015460808301529183015460ff908116151560a0830152600684015460c08301529282015480830b60e0830152600160401b810490920b610100820152600160801b909104909116151561012082015290565b336001600160a01b037f000000000000000000000000000000000000000000000000000000000000000016146113be5760405162461bcd60e51b815260040161080b90611dfe565b60006113ca84836116ec565b905060005b83518110156109b8576000600960008684815181106113f0576113f0611e33565b602090810291909101810151825281019190915260400160002083516007820180546060870151600485015570ff0000000000000000ffffffffffffffff191667ffffffffffffffff909216919091179055805486519192507f2360db32a732a7141ac8d4af80c636d039637abf0b002cc5319489cbf181e73e916001600160a01b039091169087908590811061148957611489611e33565b60200260200101516040516114b39291906001600160a01b03929092168252602082015260400190565b60405180910390a150806114c681611e5f565b9150506113cf565b60018060008282546114e09190611e78565b925050819055506001600860008282546114fa9190611e78565b90915550506040805161014081018252338152426020808301918252828401878152600787810b6060860190815260006080870181815289151560a0890190815260c0890183815260e08a018481526101008b0185815260016101208d0181815260085488526009909b529c86209b518c546001600160a01b0319166001600160a01b03909116178c5599519b8b019b909b55955160028a0155925160038901805467ffffffffffffffff191667ffffffffffffffff92831617905590516004890155915160058801805460ff191691151591909117905592516006870155955194018054935192519486166001600160801b031990941693909317600160401b92909516919091029390931760ff60801b1916600160801b92151592909202919091179055600a9061162b6118c2565b6001600160a01b03168152602080820192909252604001600090812060085481546001818101845592845293832090930192909255600b9061166b6118c2565b6001600160a01b03166001600160a01b03168152602001908152602001600020600082825461169a9190611e78565b9091555050600854604080514281526020810192909252600784900b9082015281151560608201527f57ecd4ae95df1a2ea1ef0da13a09120359b9c5ffcce6e56eda3ab0d2cabf1c6d90608001610c7c565b60408051608081018252600080825260208201819052918101829052606081019190915260008281526003602052604090205460070b15611747576060810182905260008281526003602052604090205460070b81526118bc565b60025460405163d47eed4560e01b81526000916001600160a01b03169063d47eed4590611778908790600401611f12565b602060405180830381865afa158015611795573d6000803e3d6000fd5b505050506040513d601f19601f820116820180604052508101906117b99190611fa4565b90506117c481611906565b600254604051631df3cbc560e31b81526001600160a01b039091169063ef9e5e289083906117f6908890600401611f12565b6000604051808303818588803b15801561180f57600080fd5b505af1158015611823573d6000803e3d6000fd5b50506002546040516396834ad360e01b81527fff61491a931112ddf1bd8147cd1b641375f79f5825126d665480874634fd0ace6004820181905294506001600160a01b0390911692506396834ad39150602401608060405180830381865afa158015611893573d6000803e3d6000fd5b505050506040513d601f19601f820116820180604052508101906118b79190611fbd565b925050505b92915050565b60007f00000000000000000000000000000000000000000000000000000000000000006001600160a01b03163303611901575060131936013560601c90565b503390565b61194b8160405160240161191c91815260200190565b60408051601f198184030181529190526020810180516001600160e01b031663f82c50f160e01b17905261194e565b50565b80516a636f6e736f6c652e6c6f67602083016000808483855afa5050505050565b6040805161014081018252600080825260208201819052918101829052606081018290526080810182905260a0810182905260c0810182905260e08101829052610100810182905261012081019190915290565b6000602082840312156119d557600080fd5b5035919050565b81516001600160a01b03168152610140810160208301516020830152604083015160408301526060830151611a16606084018260070b9052565b506080830151608083015260a0830151611a3460a084018215159052565b5060c083015160c083015260e0830151611a5360e084018260070b9052565b5061010080840151611a698285018260070b9052565b5050610120928301511515919092015290565b80356001600160a01b0381168114611a9357600080fd5b919050565b60008060408385031215611aab57600080fd5b611ab483611a7c565b946020939093013593505050565b600060208284031215611ad457600080fd5b611add82611a7c565b9392505050565b634e487b7160e01b600052604160045260246000fd5b604051601f8201601f1916810167ffffffffffffffff81118282101715611b2357611b23611ae4565b604052919050565b600067ffffffffffffffff821115611b4557611b45611ae4565b5060051b60200190565b600082601f830112611b6057600080fd5b81356020611b75611b7083611b2b565b611afa565b82815260059290921b84018101918181019086841115611b9457600080fd5b8286015b84811015611baf5780358352918301918301611b98565b509695505050505050565b600080600060608486031215611bcf57600080fd5b833567ffffffffffffffff80821115611be757600080fd5b818601915086601f830112611bfb57600080fd5b81356020611c0b611b7083611b2b565b82815260059290921b8401810191818101908a841115611c2a57600080fd5b8286015b84811015611cb757803586811115611c465760008081fd5b8701603f81018d13611c585760008081fd5b84810135604088821115611c6e57611c6e611ae4565b611c80601f8301601f19168801611afa565b8281528f82848601011115611c955760008081fd5b8282850189830137600092810188019290925250845250918301918301611c2e565b5097505087013592505080821115611cce57600080fd5b50611cdb86828701611b4f565b925050604084013590509250925092565b8060070b811461194b57600080fd5b600080600060608486031215611d1057600080fd5b833567ffffffffffffffff811115611d2757600080fd5b611d3386828701611b4f565b935050602084013591506040840135611d4b81611cec565b809150509250925092565b80358015158114611a9357600080fd5b600080600060608486031215611d7b57600080fd5b8335925060208401359150611d9260408501611d56565b90509250925092565b600080600060608486031215611db057600080fd5b83359250602084013591506040840135611d4b81611cec565b600080600060608486031215611dde57600080fd5b833592506020840135611df081611cec565b9150611d9260408501611d56565b6020808252818101527f4f6e6c79206465646963617465642067656c61746f206d73672e73656e646572604082015260600190565b634e487b7160e01b600052603260045260246000fd5b634e487b7160e01b600052601160045260246000fd5b600060018201611e7157611e71611e49565b5060010190565b808201808211156118bc576118bc611e49565b818103818111156118bc576118bc611e49565b60008260070b8260070b028060070b9150808214611ebe57611ebe611e49565b5092915050565b60008160070b8360070b80611eea57634e487b7160e01b600052601260045260246000fd5b677fffffffffffffff19821460001982141615611f0957611f09611e49565b90059392505050565b6000602080830181845280855180835260408601915060408160051b87010192508387016000805b83811015611f9657888603603f1901855282518051808852835b81811015611f6f578281018a01518982018b01528901611f54565b508781018901849052601f01601f1916909601870195509386019391860191600101611f3a565b509398975050505050505050565b600060208284031215611fb657600080fd5b5051919050565b600060808284031215611fcf57600080fd5b6040516080810167ffffffffffffffff8282108183111715611ff357611ff3611ae4565b816040528451915061200482611cec565b908252602084015190808216821461201b57600080fd5b5060208201526040830151600381900b811461203657600080fd5b6040820152606092830151928101929092525091905056fea2646970667358221220fd072ed6636e4c7d3b5e44cedde79f25ace2ef69a7e85c3dd76e5fe2f4a547ba64736f6c63430008120033",
  "devdoc": {
    "kind": "dev",
    "methods": {},
    "version": 1
  },
  "userdoc": {
    "kind": "user",
    "methods": {},
    "version": 1
  },
  "storageLayout": {
    "storage": [
      {
        "astId": 320,
        "contract": "contracts/PerpMock.sol:PerpMock",
        "label": "owner",
        "offset": 0,
        "slot": "0",
        "type": "t_address"
      },
      {
        "astId": 322,
        "contract": "contracts/PerpMock.sol:PerpMock",
        "label": "nrOrders",
        "offset": 0,
        "slot": "1",
        "type": "t_uint256"
      },
      {
        "astId": 346,
        "contract": "contracts/PerpMock.sol:PerpMock",
        "label": "_pyth",
        "offset": 0,
        "slot": "2",
        "type": "t_contract(IPyth)262"
      },
      {
        "astId": 350,
        "contract": "contracts/PerpMock.sol:PerpMock",
        "label": "priceByTimestamp",
        "offset": 0,
        "slot": "3",
        "type": "t_mapping(t_uint256,t_int64)"
      },
      {
        "astId": 352,
        "contract": "contracts/PerpMock.sol:PerpMock",
        "label": "orderId",
        "offset": 0,
        "slot": "4",
        "type": "t_uint256"
      },
      {
        "astId": 357,
        "contract": "contracts/PerpMock.sol:PerpMock",
        "label": "ordersByOrderId",
        "offset": 0,
        "slot": "5",
        "type": "t_mapping(t_uint256,t_struct(Order)343_storage)"
      },
      {
        "astId": 362,
        "contract": "contracts/PerpMock.sol:PerpMock",
        "label": "ordersByUser",
        "offset": 0,
        "slot": "6",
        "type": "t_mapping(t_address,t_array(t_uint256)dyn_storage)"
      },
      {
        "astId": 366,
        "contract": "contracts/PerpMock.sol:PerpMock",
        "label": "nrOrdersByUser",
        "offset": 0,
        "slot": "7",
        "type": "t_mapping(t_address,t_uint256)"
      },
      {
        "astId": 380,
        "contract": "contracts/PerpMock.sol:PerpMock",
        "label": "conditionalOrderId",
        "offset": 0,
        "slot": "8",
        "type": "t_uint256"
      },
      {
        "astId": 385,
        "contract": "contracts/PerpMock.sol:PerpMock",
        "label": "conditionalOrdersByOrderId",
        "offset": 0,
        "slot": "9",
        "type": "t_mapping(t_uint256,t_struct(Order)343_storage)"
      },
      {
        "astId": 390,
        "contract": "contracts/PerpMock.sol:PerpMock",
        "label": "conditionalOrdersByUser",
        "offset": 0,
        "slot": "10",
        "type": "t_mapping(t_address,t_array(t_uint256)dyn_storage)"
      },
      {
        "astId": 394,
        "contract": "contracts/PerpMock.sol:PerpMock",
        "label": "nrConditionalOrdersByUser",
        "offset": 0,
        "slot": "11",
        "type": "t_mapping(t_address,t_uint256)"
      },
      {
        "astId": 412,
        "contract": "contracts/PerpMock.sol:PerpMock",
        "label": "marginTradeId",
        "offset": 0,
        "slot": "12",
        "type": "t_uint256"
      },
      {
        "astId": 417,
        "contract": "contracts/PerpMock.sol:PerpMock",
        "label": "marginTradesByOrderId",
        "offset": 0,
        "slot": "13",
        "type": "t_mapping(t_uint256,t_struct(Order)343_storage)"
      },
      {
        "astId": 421,
        "contract": "contracts/PerpMock.sol:PerpMock",
        "label": "marginTradeIdByUser",
        "offset": 0,
        "slot": "14",
        "type": "t_mapping(t_address,t_uint256)"
      }
    ],
    "types": {
      "t_address": {
        "encoding": "inplace",
        "label": "address",
        "numberOfBytes": "20"
      },
      "t_array(t_uint256)dyn_storage": {
        "base": "t_uint256",
        "encoding": "dynamic_array",
        "label": "uint256[]",
        "numberOfBytes": "32"
      },
      "t_bool": {
        "encoding": "inplace",
        "label": "bool",
        "numberOfBytes": "1"
      },
      "t_contract(IPyth)262": {
        "encoding": "inplace",
        "label": "contract IPyth",
        "numberOfBytes": "20"
      },
      "t_int64": {
        "encoding": "inplace",
        "label": "int64",
        "numberOfBytes": "8"
      },
      "t_mapping(t_address,t_array(t_uint256)dyn_storage)": {
        "encoding": "mapping",
        "key": "t_address",
        "label": "mapping(address => uint256[])",
        "numberOfBytes": "32",
        "value": "t_array(t_uint256)dyn_storage"
      },
      "t_mapping(t_address,t_uint256)": {
        "encoding": "mapping",
        "key": "t_address",
        "label": "mapping(address => uint256)",
        "numberOfBytes": "32",
        "value": "t_uint256"
      },
      "t_mapping(t_uint256,t_int64)": {
        "encoding": "mapping",
        "key": "t_uint256",
        "label": "mapping(uint256 => int64)",
        "numberOfBytes": "32",
        "value": "t_int64"
      },
      "t_mapping(t_uint256,t_struct(Order)343_storage)": {
        "encoding": "mapping",
        "key": "t_uint256",
        "label": "mapping(uint256 => struct PerpMock.Order)",
        "numberOfBytes": "32",
        "value": "t_struct(Order)343_storage"
      },
      "t_struct(Order)343_storage": {
        "encoding": "inplace",
        "label": "struct PerpMock.Order",
        "members": [
          {
            "astId": 324,
            "contract": "contracts/PerpMock.sol:PerpMock",
            "label": "user",
            "offset": 0,
            "slot": "0",
            "type": "t_address"
          },
          {
            "astId": 326,
            "contract": "contracts/PerpMock.sol:PerpMock",
            "label": "timestamp",
            "offset": 0,
            "slot": "1",
            "type": "t_uint256"
          },
          {
            "astId": 328,
            "contract": "contracts/PerpMock.sol:PerpMock",
            "label": "amount",
            "offset": 0,
            "slot": "2",
            "type": "t_uint256"
          },
          {
            "astId": 330,
            "contract": "contracts/PerpMock.sol:PerpMock",
            "label": "price",
            "offset": 0,
            "slot": "3",
            "type": "t_int64"
          },
          {
            "astId": 332,
            "contract": "contracts/PerpMock.sol:PerpMock",
            "label": "publishTime",
            "offset": 0,
            "slot": "4",
            "type": "t_uint256"
          },
          {
            "astId": 334,
            "contract": "contracts/PerpMock.sol:PerpMock",
            "label": "above",
            "offset": 0,
            "slot": "5",
            "type": "t_bool"
          },
          {
            "astId": 336,
            "contract": "contracts/PerpMock.sol:PerpMock",
            "label": "leverage",
            "offset": 0,
            "slot": "6",
            "type": "t_uint256"
          },
          {
            "astId": 338,
            "contract": "contracts/PerpMock.sol:PerpMock",
            "label": "priceSettled",
            "offset": 0,
            "slot": "7",
            "type": "t_int64"
          },
          {
            "astId": 340,
            "contract": "contracts/PerpMock.sol:PerpMock",
            "label": "tokens",
            "offset": 8,
            "slot": "7",
            "type": "t_int64"
          },
          {
            "astId": 342,
            "contract": "contracts/PerpMock.sol:PerpMock",
            "label": "active",
            "offset": 16,
            "slot": "7",
            "type": "t_bool"
          }
        ],
        "numberOfBytes": "256"
      },
      "t_uint256": {
        "encoding": "inplace",
        "label": "uint256",
        "numberOfBytes": "32"
      }
    }
  }
}