{
  "address": "0xB12f4F383eEaDd6445348a4798Cc5cF6FB82d65A",
  "abi": [
    {
      "inputs": [
        {
          "internalType": "address",
          "name": "_gelatoMsgSender",
          "type": "address"
        },
        {
          "internalType": "address",
          "name": "pythContract",
          "type": "address"
        },
        {
          "internalType": "address",
          "name": "_trustedForwarder",
          "type": "address"
        }
      ],
      "stateMutability": "nonpayable",
      "type": "constructor"
    },
    {
      "anonymous": false,
      "inputs": [
        {
          "indexed": false,
          "internalType": "address",
          "name": "user",
          "type": "address"
        },
        {
          "indexed": false,
          "internalType": "uint256",
          "name": "orderId",
          "type": "uint256"
        }
      ],
      "name": "executeConditionalOrder",
      "type": "event"
    },
    {
      "anonymous": false,
      "inputs": [
        {
          "indexed": false,
          "internalType": "address",
          "name": "user",
          "type": "address"
        },
        {
          "indexed": false,
          "internalType": "uint256",
          "name": "orderId",
          "type": "uint256"
        }
      ],
      "name": "executeLiquidateOrder",
      "type": "event"
    },
    {
      "anonymous": false,
      "inputs": [
        {
          "indexed": false,
          "internalType": "uint256",
          "name": "timestamp",
          "type": "uint256"
        },
        {
          "indexed": false,
          "internalType": "uint256",
          "name": "orderId",
          "type": "uint256"
        },
        {
          "indexed": false,
          "internalType": "uint256",
          "name": "amount",
          "type": "uint256"
        },
        {
          "indexed": false,
          "internalType": "uint256",
          "name": "leverage",
          "type": "uint256"
        },
        {
          "indexed": false,
          "internalType": "int64",
          "name": "price",
          "type": "int64"
        },
        {
          "indexed": false,
          "internalType": "int64",
          "name": "tokens",
          "type": "int64"
        }
      ],
      "name": "marginTradeEvent",
      "type": "event"
    },
    {
      "anonymous": false,
      "inputs": [
        {
          "indexed": false,
          "internalType": "uint256",
          "name": "timestamp",
          "type": "uint256"
        },
        {
          "indexed": false,
          "internalType": "uint256",
          "name": "orderId",
          "type": "uint256"
        },
        {
          "indexed": false,
          "internalType": "int64",
          "name": "price",
          "type": "int64"
        },
        {
          "indexed": false,
          "internalType": "bool",
          "name": "above",
          "type": "bool"
        }
      ],
      "name": "setConditionalOrderEvent",
      "type": "event"
    },
    {
      "anonymous": false,
      "inputs": [
        {
          "indexed": false,
          "internalType": "uint256",
          "name": "timestamp",
          "type": "uint256"
        },
        {
          "indexed": false,
          "internalType": "uint256",
          "name": "orderId",
          "type": "uint256"
        }
      ],
      "name": "setOrderEvent",
      "type": "event"
    },
    {
      "anonymous": false,
      "inputs": [
        {
          "indexed": false,
          "internalType": "address",
          "name": "user",
          "type": "address"
        },
        {
          "indexed": false,
          "internalType": "uint256",
          "name": "orderId",
          "type": "uint256"
        }
      ],
      "name": "settleOrderEvent",
      "type": "event"
    },
    {
      "anonymous": false,
      "inputs": [
        {
          "indexed": false,
          "internalType": "uint256",
          "name": "orderId",
          "type": "uint256"
        },
        {
          "indexed": false,
          "internalType": "uint256",
          "name": "amount",
          "type": "uint256"
        },
        {
          "indexed": false,
          "internalType": "bool",
          "name": "add",
          "type": "bool"
        }
      ],
      "name": "updateCollateralEvent",
      "type": "event"
    },
    {
      "inputs": [],
      "name": "conditionalOrderId",
      "outputs": [
        {
          "internalType": "uint256",
          "name": "",
          "type": "uint256"
        }
      ],
      "stateMutability": "view",
      "type": "function"
    },
    {
      "inputs": [
        {
          "internalType": "uint256",
          "name": "",
          "type": "uint256"
        }
      ],
      "name": "conditionalOrdersByOrderId",
      "outputs": [
        {
          "internalType": "address",
          "name": "user",
          "type": "address"
        },
        {
          "internalType": "uint256",
          "name": "timestamp",
          "type": "uint256"
        },
        {
          "internalType": "uint256",
          "name": "amount",
          "type": "uint256"
        },
        {
          "internalType": "int64",
          "name": "price",
          "type": "int64"
        },
        {
          "internalType": "uint256",
          "name": "publishTime",
          "type": "uint256"
        },
        {
          "internalType": "bool",
          "name": "above",
          "type": "bool"
        },
        {
          "internalType": "uint256",
          "name": "leverage",
          "type": "uint256"
        },
        {
          "internalType": "int64",
          "name": "priceSettled",
          "type": "int64"
        },
        {
          "internalType": "int64",
          "name": "tokens",
          "type": "int64"
        },
        {
          "internalType": "bool",
          "name": "active",
          "type": "bool"
        }
      ],
      "stateMutability": "view",
      "type": "function"
    },
    {
      "inputs": [
        {
          "internalType": "address",
          "name": "",
          "type": "address"
        },
        {
          "internalType": "uint256",
          "name": "",
          "type": "uint256"
        }
      ],
      "name": "conditionalOrdersByUser",
      "outputs": [
        {
          "internalType": "uint256",
          "name": "",
          "type": "uint256"
        }
      ],
      "stateMutability": "view",
      "type": "function"
    },
    {
      "inputs": [],
      "name": "gelatoMsgSender",
      "outputs": [
        {
          "internalType": "address",
          "name": "",
          "type": "address"
        }
      ],
      "stateMutability": "view",
      "type": "function"
    },
    {
      "inputs": [
        {
          "internalType": "uint256",
          "name": "_order",
          "type": "uint256"
        }
      ],
      "name": "getConditionalOrder",
      "outputs": [
        {
          "components": [
            {
              "internalType": "address",
              "name": "user",
              "type": "address"
            },
            {
              "internalType": "uint256",
              "name": "timestamp",
              "type": "uint256"
            },
            {
              "internalType": "uint256",
              "name": "amount",
              "type": "uint256"
            },
            {
              "internalType": "int64",
              "name": "price",
              "type": "int64"
            },
            {
              "internalType": "uint256",
              "name": "publishTime",
              "type": "uint256"
            },
            {
              "internalType": "bool",
              "name": "above",
              "type": "bool"
            },
            {
              "internalType": "uint256",
              "name": "leverage",
              "type": "uint256"
            },
            {
              "internalType": "int64",
              "name": "priceSettled",
              "type": "int64"
            },
            {
              "internalType": "int64",
              "name": "tokens",
              "type": "int64"
            },
            {
              "internalType": "bool",
              "name": "active",
              "type": "bool"
            }
          ],
          "internalType": "struct PerpMock.Order",
          "name": "",
          "type": "tuple"
        }
      ],
      "stateMutability": "view",
      "type": "function"
    },
    {
      "inputs": [
        {
          "internalType": "uint256",
          "name": "_order",
          "type": "uint256"
        }
      ],
      "name": "getMarginTrade",
      "outputs": [
        {
          "components": [
            {
              "internalType": "address",
              "name": "user",
              "type": "address"
            },
            {
              "internalType": "uint256",
              "name": "timestamp",
              "type": "uint256"
            },
            {
              "internalType": "uint256",
              "name": "amount",
              "type": "uint256"
            },
            {
              "internalType": "int64",
              "name": "price",
              "type": "int64"
            },
            {
              "internalType": "uint256",
              "name": "publishTime",
              "type": "uint256"
            },
            {
              "internalType": "bool",
              "name": "above",
              "type": "bool"
            },
            {
              "internalType": "uint256",
              "name": "leverage",
              "type": "uint256"
            },
            {
              "internalType": "int64",
              "name": "priceSettled",
              "type": "int64"
            },
            {
              "internalType": "int64",
              "name": "tokens",
              "type": "int64"
            },
            {
              "internalType": "bool",
              "name": "active",
              "type": "bool"
            }
          ],
          "internalType": "struct PerpMock.Order",
          "name": "",
          "type": "tuple"
        }
      ],
      "stateMutability": "view",
      "type": "function"
    },
    {
      "inputs": [
        {
          "internalType": "uint256",
          "name": "_order",
          "type": "uint256"
        }
      ],
      "name": "getOrder",
      "outputs": [
        {
          "components": [
            {
              "internalType": "address",
              "name": "user",
              "type": "address"
            },
            {
              "internalType": "uint256",
              "name": "timestamp",
              "type": "uint256"
            },
            {
              "internalType": "uint256",
              "name": "amount",
              "type": "uint256"
            },
            {
              "internalType": "int64",
              "name": "price",
              "type": "int64"
            },
            {
              "internalType": "uint256",
              "name": "publishTime",
              "type": "uint256"
            },
            {
              "internalType": "bool",
              "name": "above",
              "type": "bool"
            },
            {
              "internalType": "uint256",
              "name": "leverage",
              "type": "uint256"
            },
            {
              "internalType": "int64",
              "name": "priceSettled",
              "type": "int64"
            },
            {
              "internalType": "int64",
              "name": "tokens",
              "type": "int64"
            },
            {
              "internalType": "bool",
              "name": "active",
              "type": "bool"
            }
          ],
          "internalType": "struct PerpMock.Order",
          "name": "",
          "type": "tuple"
        }
      ],
      "stateMutability": "view",
      "type": "function"
    },
    {
      "inputs": [
        {
          "internalType": "address",
          "name": "forwarder",
          "type": "address"
        }
      ],
      "name": "isTrustedForwarder",
      "outputs": [
        {
          "internalType": "bool",
          "name": "",
          "type": "bool"
        }
      ],
      "stateMutability": "view",
      "type": "function"
    },
    {
      "inputs": [
        {
          "internalType": "uint256[]",
          "name": "_tradesLiquidated",
          "type": "uint256[]"
        },
        {
          "internalType": "uint256",
          "name": "_timestamp",
          "type": "uint256"
        },
        {
          "internalType": "int64",
          "name": "_priceSettled",
          "type": "int64"
        }
      ],
      "name": "liquidate",
      "outputs": [],
      "stateMutability": "nonpayable",
      "type": "function"
    },
    {
      "inputs": [
        {
          "internalType": "uint256",
          "name": "_leverage",
          "type": "uint256"
        },
        {
          "internalType": "uint256",
          "name": "_amount",
          "type": "uint256"
        },
        {
          "internalType": "int64",
          "name": "_price",
          "type": "int64"
        }
      ],
      "name": "marginTrade",
      "outputs": [],
      "stateMutability": "nonpayable",
      "type": "function"
    },
    {
      "inputs": [],
      "name": "marginTradeId",
      "outputs": [
        {
          "internalType": "uint256",
          "name": "",
          "type": "uint256"
        }
      ],
      "stateMutability": "view",
      "type": "function"
    },
    {
      "inputs": [
        {
          "internalType": "address",
          "name": "",
          "type": "address"
        }
      ],
      "name": "marginTradeIdByUser",
      "outputs": [
        {
          "internalType": "uint256",
          "name": "",
          "type": "uint256"
        }
      ],
      "stateMutability": "view",
      "type": "function"
    },
    {
      "inputs": [
        {
          "internalType": "uint256",
          "name": "",
          "type": "uint256"
        }
      ],
      "name": "marginTradesByOrderId",
      "outputs": [
        {
          "internalType": "address",
          "name": "user",
          "type": "address"
        },
        {
          "internalType": "uint256",
          "name": "timestamp",
          "type": "uint256"
        },
        {
          "internalType": "uint256",
          "name": "amount",
          "type": "uint256"
        },
        {
          "internalType": "int64",
          "name": "price",
          "type": "int64"
        },
        {
          "internalType": "uint256",
          "name": "publishTime",
          "type": "uint256"
        },
        {
          "internalType": "bool",
          "name": "above",
          "type": "bool"
        },
        {
          "internalType": "uint256",
          "name": "leverage",
          "type": "uint256"
        },
        {
          "internalType": "int64",
          "name": "priceSettled",
          "type": "int64"
        },
        {
          "internalType": "int64",
          "name": "tokens",
          "type": "int64"
        },
        {
          "internalType": "bool",
          "name": "active",
          "type": "bool"
        }
      ],
      "stateMutability": "view",
      "type": "function"
    },
    {
      "inputs": [
        {
          "internalType": "address",
          "name": "",
          "type": "address"
        }
      ],
      "name": "nrConditionalOrdersByUser",
      "outputs": [
        {
          "internalType": "uint256",
          "name": "",
          "type": "uint256"
        }
      ],
      "stateMutability": "view",
      "type": "function"
    },
    {
      "inputs": [
        {
          "internalType": "address",
          "name": "",
          "type": "address"
        }
      ],
      "name": "nrOrdersByUser",
      "outputs": [
        {
          "internalType": "uint256",
          "name": "",
          "type": "uint256"
        }
      ],
      "stateMutability": "view",
      "type": "function"
    },
    {
      "inputs": [],
      "name": "orderId",
      "outputs": [
        {
          "internalType": "uint256",
          "name": "",
          "type": "uint256"
        }
      ],
      "stateMutability": "view",
      "type": "function"
    },
    {
      "inputs": [
        {
          "internalType": "uint256",
          "name": "",
          "type": "uint256"
        }
      ],
      "name": "ordersByOrderId",
      "outputs": [
        {
          "internalType": "address",
          "name": "user",
          "type": "address"
        },
        {
          "internalType": "uint256",
          "name": "timestamp",
          "type": "uint256"
        },
        {
          "internalType": "uint256",
          "name": "amount",
          "type": "uint256"
        },
        {
          "internalType": "int64",
          "name": "price",
          "type": "int64"
        },
        {
          "internalType": "uint256",
          "name": "publishTime",
          "type": "uint256"
        },
        {
          "internalType": "bool",
          "name": "above",
          "type": "bool"
        },
        {
          "internalType": "uint256",
          "name": "leverage",
          "type": "uint256"
        },
        {
          "internalType": "int64",
          "name": "priceSettled",
          "type": "int64"
        },
        {
          "internalType": "int64",
          "name": "tokens",
          "type": "int64"
        },
        {
          "internalType": "bool",
          "name": "active",
          "type": "bool"
        }
      ],
      "stateMutability": "view",
      "type": "function"
    },
    {
      "inputs": [
        {
          "internalType": "address",
          "name": "",
          "type": "address"
        },
        {
          "internalType": "uint256",
          "name": "",
          "type": "uint256"
        }
      ],
      "name": "ordersByUser",
      "outputs": [
        {
          "internalType": "uint256",
          "name": "",
          "type": "uint256"
        }
      ],
      "stateMutability": "view",
      "type": "function"
    },
    {
      "inputs": [],
      "name": "owner",
      "outputs": [
        {
          "internalType": "address",
          "name": "",
          "type": "address"
        }
      ],
      "stateMutability": "view",
      "type": "function"
    },
    {
      "inputs": [
        {
          "internalType": "uint256",
          "name": "_amount",
          "type": "uint256"
        },
        {
          "internalType": "int64",
          "name": "_price",
          "type": "int64"
        },
        {
          "internalType": "bool",
          "name": "_above",
          "type": "bool"
        }
      ],
      "name": "setConditionalOrder",
      "outputs": [],
      "stateMutability": "nonpayable",
      "type": "function"
    },
    {
      "inputs": [
        {
          "internalType": "uint256",
          "name": "_amount",
          "type": "uint256"
        }
      ],
      "name": "setOrder",
      "outputs": [],
      "stateMutability": "nonpayable",
      "type": "function"
    },
    {
      "inputs": [
        {
          "internalType": "uint256",
          "name": "_orderId",
          "type": "uint256"
        },
        {
          "internalType": "uint256",
          "name": "_amount",
          "type": "uint256"
        },
        {
          "internalType": "bool",
          "name": "_add",
          "type": "bool"
        }
      ],
      "name": "updateCollateral",
      "outputs": [],
      "stateMutability": "nonpayable",
      "type": "function"
    },
    {
      "inputs": [
        {
          "internalType": "bytes[]",
          "name": "updatePriceData",
          "type": "bytes[]"
        },
        {
          "internalType": "uint256[]",
          "name": "_conditionalOrders",
          "type": "uint256[]"
        },
        {
          "internalType": "uint256",
          "name": "_timestamp",
          "type": "uint256"
        }
      ],
      "name": "updatePriceConditionalOrders",
      "outputs": [],
      "stateMutability": "nonpayable",
      "type": "function"
    },
    {
      "inputs": [
        {
          "internalType": "bytes[]",
          "name": "updatePriceData",
          "type": "bytes[]"
        },
        {
          "internalType": "uint256[]",
          "name": "_orders",
          "type": "uint256[]"
        },
        {
          "internalType": "uint256",
          "name": "_timestamp",
          "type": "uint256"
        }
      ],
      "name": "updatePriceOrders",
      "outputs": [],
      "stateMutability": "nonpayable",
      "type": "function"
    },
    {
      "inputs": [],
      "name": "withdraw",
      "outputs": [
        {
          "internalType": "bool",
          "name": "",
          "type": "bool"
        }
      ],
      "stateMutability": "nonpayable",
      "type": "function"
    },
    {
      "stateMutability": "payable",
      "type": "receive"
    }
  ],
  "transactionHash": "0x2b6cbd2d1735888fda0a47dadcfba8ff4dcbfe61efaf84c2862e9275aebdfd74",
  "args": [
    "0xbB97656cd5fECe3a643335d03C8919D5E7DcD225",
    "0xA2aa501b19aff244D90cc15a4Cf739D2725B5729",
    "0xd8253782c45a12053594b9deB72d8e8aB2Fca54c"
  ],
  "numDeployments": 1,
  "solcInputHash": "c5b1946ca2614d4e8200dad9e86a55db",
  "bytecode": "0x60c06040523480156200001157600080fd5b50604051620021233803806200212383398101604081905262000034916200008e565b6001600160a01b0390811660805291821660a05260018054919092166001600160a01b0319918216179091556000805490911633179055620000d8565b80516001600160a01b03811681146200008957600080fd5b919050565b600080600060608486031215620000a457600080fd5b620000af8462000071565b9250620000bf6020850162000071565b9150620000cf6040850162000071565b90509250925092565b60805160a0516120096200011a600039600081816105350152818161083f015281816109b6015261131d01526000818161032d015261184b01526120096000f3fe60806040526004361061016a5760003560e01c80637a3174a7116100d1578063c57bf9ad1161008a578063d09ef24111610064578063d09ef2411461062b578063d800a4dd1461064b578063ef4532cf14610678578063fe3d33ce1461069857600080fd5b8063c57bf9ad14610557578063c7647ff7146105de578063cdf8972e1461060b57600080fd5b80637a3174a71461045e5780637c86f4341461047e57806382c03cce1461049e5780638da5cb5b146104be578063a1df8f5c146104f6578063c54430821461052357600080fd5b8063572b6c0511610123578063572b6c0514610310578063574b07311461035d57806365d4a9671461037f57806373729d051461039557806377197d27146103b557806378959dbc1461043e57600080fd5b806310cfa97f14610176578063163de5e5146101ac5780631e935851146101d057806332496c7c146101f05780633ccfd60b146102d55780634c2eefb4146102fa57600080fd5b3661017157005b600080fd5b34801561018257600080fd5b50610196610191366004611948565b6106b8565b6040516101a39190611961565b60405180910390f35b3480156101b857600080fd5b506101c260035481565b6040519081526020016101a3565b3480156101dc57600080fd5b506101c26101eb366004611a1d565b610766565b3480156101fc57600080fd5b5061027761020b366004611948565b600c60205260009081526040902080546001820154600283015460038401546004850154600586015460068701546007978801546001600160a01b03909716979596949593840b94929360ff92831693919282820b92600160401b810490920b91600160801b9004168a565b604080516001600160a01b03909b168b5260208b019990995297890196909652600794850b6060890152608088019390935290151560a087015260c0860152810b60e08501520b6101008301521515610120820152610140016101a3565b3480156102e157600080fd5b506102ea610797565b60405190151581526020016101a3565b34801561030657600080fd5b506101c260075481565b34801561031c57600080fd5b506102ea61032b366004611a47565b7f00000000000000000000000000000000000000000000000000000000000000006001600160a01b0390811691161490565b34801561036957600080fd5b5061037d610378366004611b3f565b610834565b005b34801561038b57600080fd5b506101c2600b5481565b3480156103a157600080fd5b506101c26103b0366004611a1d565b61098f565b3480156103c157600080fd5b506102776103d0366004611948565b6004602081905260009182526040909120805460018201546002830154600384015494840154600585015460068601546007968701546001600160a01b03909616979496939594840b94929360ff92831693919282820b92600160401b810490920b91600160801b9004168a565b34801561044a57600080fd5b5061037d610459366004611c80565b6109ab565b34801561046a57600080fd5b5061037d610479366004611ceb565b610af2565b34801561048a57600080fd5b5061037d610499366004611948565b610c59565b3480156104aa57600080fd5b5061037d6104b9366004611d20565b610e7b565b3480156104ca57600080fd5b506000546104de906001600160a01b031681565b6040516001600160a01b0390911681526020016101a3565b34801561050257600080fd5b506101c2610511366004611a47565b600d6020526000908152604090205481565b34801561052f57600080fd5b506104de7f000000000000000000000000000000000000000000000000000000000000000081565b34801561056357600080fd5b50610277610572366004611948565b600860205260009081526040902080546001820154600283015460038401546004850154600586015460068701546007978801546001600160a01b03909716979596949593840b94929360ff92831693919282820b92600160401b810490920b91600160801b9004168a565b3480156105ea57600080fd5b506101c26105f9366004611a47565b60066020526000908152604090205481565b34801561061757600080fd5b50610196610626366004611948565b6111b6565b34801561063757600080fd5b50610196610646366004611948565b611264565b34801561065757600080fd5b506101c2610666366004611a47565b600a6020526000908152604090205481565b34801561068457600080fd5b5061037d610693366004611b3f565b611312565b3480156106a457600080fd5b5061037d6106b3366004611d4e565b61146a565b6106c06118f4565b506000908152600c602090815260409182902082516101408101845281546001600160a01b031681526001820154928101929092526002810154928201929092526003820154600790810b606083015260048301546080830152600583015460ff908116151560a0840152600684015460c08401529281015480820b60e0840152600160401b810490910b610100830152600160801b9004909116151561012082015290565b6005602052816000526040600020818154811061078257600080fd5b90600052602060002001600091509150505481565b600080546001600160a01b031633146107e45760405162461bcd60e51b815260206004820152600a60248201526927b7363c9027bbb732b960b11b60448201526064015b60405180910390fd5b604051600090339047908381818185875af1925050503d8060008114610826576040519150601f19603f3d011682016040523d82523d6000602084013e61082b565b606091505b50909250505090565b336001600160a01b037f0000000000000000000000000000000000000000000000000000000000000000161461087c5760405162461bcd60e51b81526004016107db90611d83565b60006108888483611671565b905060005b8351811015610988576000600460008684815181106108ae576108ae611db8565b6020908102919091018101518252810191909152604001600020835160078201805442600485015570ff0000000000000000ffffffffffffffff191667ffffffffffffffff909216919091179055805486519192507fccd3be7a71c0db83ae7270007ddc655ac0872f3c8122af7f9b58ba74408950df916001600160a01b039091169087908590811061094357610943611db8565b602002602001015160405161096d9291906001600160a01b03929092168252602082015260400190565b60405180910390a1508061098081611de4565b91505061088d565b5050505050565b6009602052816000526040600020818154811061078257600080fd5b336001600160a01b037f000000000000000000000000000000000000000000000000000000000000000016146109f35760405162461bcd60e51b81526004016107db90611d83565b60005b8351811015610aec576000600c6000868481518110610a1757610a17611db8565b60209081029190910181015182528101919091526040016000206007810180546004830187905570ff0000000000000000ffffffffffffffff191667ffffffffffffffff8616179055805486519192507f4c5553db85d7bfef7a6d0eaf4081b48180d894da946d898a43bcf895606c85d0916001600160a01b0390911690879085908110610aa757610aa7611db8565b6020026020010151604051610ad19291906001600160a01b03929092168252602082015260400190565b60405180910390a15080610ae481611de4565b9150506109f6565b50505050565b6000838152600c60205260408120600601549003610b445760405162461bcd60e51b815260206004820152600f60248201526e4e6f204d617267696e20547261646560881b60448201526064016107db565b8015610b76576000838152600c602052604081206002018054849290610b6b908490611dfd565b90915550610c0e9050565b6000838152600c60205260409020600201548210610be75760405162461bcd60e51b815260206004820152602860248201527f52656d6f76696e6720636f6c61746572616c20686967686572207468616e20616044820152677661696c61626c6560c01b60648201526084016107db565b6000838152600c602052604081206002018054849290610c08908490611e10565b90915550505b6040805184815260208101849052821515918101919091527fee8643e67c24622cc9a839eafd837adc5c08d4354a70257db45b3cb2bde00eeb906060015b60405180910390a1505050565b600160036000828254610c6c9190611dfd565b92505081905550604051806101400160405280610c87611847565b6001600160a01b039081168252426020808401919091526040808401869052600060608086018290526080808701839052600160a080890182905260c0808a0186905260e0808b01879052610100808c018890526101209b8c018590526003805489526004808c528a8a208f5181546001600160a01b0319169e169d909d178d559a8e0151958c0195909555978c015160028b0155948b0151928901805467ffffffffffffffff191667ffffffffffffffff948516179055928a015196880196909655948801516005808801805460ff19169215159290921790915590880151600687015590870151600790950180549388015197909601519484166001600160801b031990931692909217600160401b96909316959095029190911760ff60801b1916600160801b921515929092029190911790915590610dc7611847565b6001600160a01b03168152602080820192909252604001600090812060035481546001818101845592845293832090930192909255600690610e07611847565b6001600160a01b03166001600160a01b031681526020019081526020016000206000828254610e369190611dfd565b90915550506003546040805142815260208101929092527f6f34c3f094460b0585979f759a118a66b36a8e39a5fad428401bededa66b4d4a910160405180910390a150565b60008211610ebd5760405162461bcd60e51b815260206004820152600f60248201526e416d6f756e7420506f73697469766560881b60448201526064016107db565b60008311610f015760405162461bcd60e51b81526020600482015260116024820152704c6576657261676520506f73697469766560781b60448201526064016107db565b60008160070b13610f455760405162461bcd60e51b815260206004820152600e60248201526d507269636520506f73697469766560901b60448201526064016107db565b600c6000600d6000610f55611847565b6001600160a01b0316815260208082019290925260409081016000908120548452918301939093529101902060070154600160801b900460ff1615610fd15760405162461bcd60e51b8152602060048201526012602482015271416c726561647920696e206120747261646560701b60448201526064016107db565b6001600b6000828254610fe49190611dfd565b909155506000905081610ffc8464e8d4a51000611e23565b6110069190611e4a565b6040805161014081018252338152426020808301918252828401888152600788810b6060860190815260006080870181815260a0880182815260c089018f815260e08a018481528c870b6101008c0190815260016101208d01818152600b80548952600c909c529d87209c518d546001600160a01b0319166001600160a01b03909116178d559a519a8c019a909a55965160028b0155935160038a01805467ffffffffffffffff191667ffffffffffffffff928316179055915160048a01555160058901805460ff1916911515919091179055915160068801559251959091018054945196519582166001600160801b031990951694909417600160401b96909116959095029490941760ff60801b1916600160801b9315159390930292909217905554919250600d90611138611847565b6001600160a01b03168152602080820192909252604090810160002092909255600b5482514281529182015290810184905260608101859052600783810b608083015282900b60a08201527f25b0402b3a62a8bdf506198467bb8414d799dd285d94f74ebfe452424a9225149060c00160405180910390a150505050565b6111be6118f4565b5060009081526008602090815260409182902082516101408101845281546001600160a01b031681526001820154928101929092526002810154928201929092526003820154600790810b606083015260048301546080830152600583015460ff908116151560a0840152600684015460c08401529281015480820b60e0840152600160401b810490910b610100830152600160801b9004909116151561012082015290565b61126c6118f4565b5060009081526004602081815260409283902083516101408101855281546001600160a01b031681526001820154928101929092526002810154938201939093526003830154600790810b6060830152918301546080820152600583015460ff908116151560a0830152600684015460c08301529282015480830b60e0830152600160401b810490920b610100820152600160801b909104909116151561012082015290565b336001600160a01b037f0000000000000000000000000000000000000000000000000000000000000000161461135a5760405162461bcd60e51b81526004016107db90611d83565b60006113668483611671565b905060005b83518110156109885760006008600086848151811061138c5761138c611db8565b602090810291909101810151825281019190915260400160002083516007820180546060870151600485015570ff0000000000000000ffffffffffffffff191667ffffffffffffffff909216919091179055805486519192507f2360db32a732a7141ac8d4af80c636d039637abf0b002cc5319489cbf181e73e916001600160a01b039091169087908590811061142557611425611db8565b602002602001015160405161144f9291906001600160a01b03929092168252602082015260400190565b60405180910390a1508061146281611de4565b91505061136b565b60016007600082825461147d9190611dfd565b90915550506040805161014081018252338152426020808301918252828401878152600787810b6060860190815260006080870181815289151560a0890190815260c0890183815260e08a018481526101008b0185815260016101208d01818152895488526008909b529c86209b518c546001600160a01b0319166001600160a01b03909116178c5599519b8b019b909b55955160028a0155925160038901805467ffffffffffffffff191667ffffffffffffffff92831617905590516004890155915160058801805460ff191691151591909117905592516006870155955194018054935192519486166001600160801b031990941693909317600160401b92909516919091029390931760ff60801b1916600160801b921515929092029190911790556009906115ad611847565b6001600160a01b03168152602080820192909252604001600090812060075481546001818101845592845293832090930192909255600a906115ed611847565b6001600160a01b03166001600160a01b03168152602001908152602001600020600082825461161c9190611dfd565b9091555050600780546040805142815260208101929092529184900b9181019190915281151560608201527f57ecd4ae95df1a2ea1ef0da13a09120359b9c5ffcce6e56eda3ab0d2cabf1c6d90608001610c4c565b60408051608081018252600080825260208201819052918101829052606081019190915260008281526002602052604090205460070b156116cc576060810182905260008281526002602052604090205460070b8152611841565b60015460405163d47eed4560e01b81526000916001600160a01b03169063d47eed45906116fd908790600401611e97565b602060405180830381865afa15801561171a573d6000803e3d6000fd5b505050506040513d601f19601f8201168201806040525081019061173e9190611f29565b90506117498161188b565b600154604051631df3cbc560e31b81526001600160a01b039091169063ef9e5e2890839061177b908890600401611e97565b6000604051808303818588803b15801561179457600080fd5b505af11580156117a8573d6000803e3d6000fd5b50506001546040516396834ad360e01b81527fff61491a931112ddf1bd8147cd1b641375f79f5825126d665480874634fd0ace6004820181905294506001600160a01b0390911692506396834ad39150602401608060405180830381865afa158015611818573d6000803e3d6000fd5b505050506040513d601f19601f8201168201806040525081019061183c9190611f42565b925050505b92915050565b60007f00000000000000000000000000000000000000000000000000000000000000006001600160a01b03163303611886575060131936013560601c90565b503390565b6118d0816040516024016118a191815260200190565b60408051601f198184030181529190526020810180516001600160e01b031663f82c50f160e01b1790526118d3565b50565b80516a636f6e736f6c652e6c6f67602083016000808483855afa5050505050565b6040805161014081018252600080825260208201819052918101829052606081018290526080810182905260a0810182905260c0810182905260e08101829052610100810182905261012081019190915290565b60006020828403121561195a57600080fd5b5035919050565b81516001600160a01b0316815261014081016020830151602083015260408301516040830152606083015161199b606084018260070b9052565b506080830151608083015260a08301516119b960a084018215159052565b5060c083015160c083015260e08301516119d860e084018260070b9052565b50610100808401516119ee8285018260070b9052565b5050610120928301511515919092015290565b80356001600160a01b0381168114611a1857600080fd5b919050565b60008060408385031215611a3057600080fd5b611a3983611a01565b946020939093013593505050565b600060208284031215611a5957600080fd5b611a6282611a01565b9392505050565b634e487b7160e01b600052604160045260246000fd5b604051601f8201601f1916810167ffffffffffffffff81118282101715611aa857611aa8611a69565b604052919050565b600067ffffffffffffffff821115611aca57611aca611a69565b5060051b60200190565b600082601f830112611ae557600080fd5b81356020611afa611af583611ab0565b611a7f565b82815260059290921b84018101918181019086841115611b1957600080fd5b8286015b84811015611b345780358352918301918301611b1d565b509695505050505050565b600080600060608486031215611b5457600080fd5b833567ffffffffffffffff80821115611b6c57600080fd5b818601915086601f830112611b8057600080fd5b81356020611b90611af583611ab0565b82815260059290921b8401810191818101908a841115611baf57600080fd5b8286015b84811015611c3c57803586811115611bcb5760008081fd5b8701603f81018d13611bdd5760008081fd5b84810135604088821115611bf357611bf3611a69565b611c05601f8301601f19168801611a7f565b8281528f82848601011115611c1a5760008081fd5b8282850189830137600092810188019290925250845250918301918301611bb3565b5097505087013592505080821115611c5357600080fd5b50611c6086828701611ad4565b925050604084013590509250925092565b8060070b81146118d057600080fd5b600080600060608486031215611c9557600080fd5b833567ffffffffffffffff811115611cac57600080fd5b611cb886828701611ad4565b935050602084013591506040840135611cd081611c71565b809150509250925092565b80358015158114611a1857600080fd5b600080600060608486031215611d0057600080fd5b8335925060208401359150611d1760408501611cdb565b90509250925092565b600080600060608486031215611d3557600080fd5b83359250602084013591506040840135611cd081611c71565b600080600060608486031215611d6357600080fd5b833592506020840135611d7581611c71565b9150611d1760408501611cdb565b6020808252818101527f4f6e6c79206465646963617465642067656c61746f206d73672e73656e646572604082015260600190565b634e487b7160e01b600052603260045260246000fd5b634e487b7160e01b600052601160045260246000fd5b600060018201611df657611df6611dce565b5060010190565b8082018082111561184157611841611dce565b8181038181111561184157611841611dce565b60008260070b8260070b028060070b9150808214611e4357611e43611dce565b5092915050565b60008160070b8360070b80611e6f57634e487b7160e01b600052601260045260246000fd5b677fffffffffffffff19821460001982141615611e8e57611e8e611dce565b90059392505050565b6000602080830181845280855180835260408601915060408160051b87010192508387016000805b83811015611f1b57888603603f1901855282518051808852835b81811015611ef4578281018a01518982018b01528901611ed9565b508781018901849052601f01601f1916909601870195509386019391860191600101611ebf565b509398975050505050505050565b600060208284031215611f3b57600080fd5b5051919050565b600060808284031215611f5457600080fd5b6040516080810167ffffffffffffffff8282108183111715611f7857611f78611a69565b8160405284519150611f8982611c71565b9082526020840151908082168214611fa057600080fd5b5060208201526040830151600381900b8114611fbb57600080fd5b6040820152606092830151928101929092525091905056fea2646970667358221220ddb6369fed477feb6cc3a7ab376f1dd9d3d516da9f17b8b273c559475c294d7664736f6c63430008120033",
  "devdoc": {
    "kind": "dev",
    "methods": {},
    "version": 1
  },
  "userdoc": {
    "kind": "user",
    "methods": {},
    "version": 1
  },
  "storageLayout": {
    "storage": [
      {
        "astId": 320,
        "contract": "contracts/PerpMock.sol:PerpMock",
        "label": "owner",
        "offset": 0,
        "slot": "0",
        "type": "t_address"
      },
      {
        "astId": 344,
        "contract": "contracts/PerpMock.sol:PerpMock",
        "label": "_pyth",
        "offset": 0,
        "slot": "1",
        "type": "t_contract(IPyth)262"
      },
      {
        "astId": 348,
        "contract": "contracts/PerpMock.sol:PerpMock",
        "label": "priceByTimestamp",
        "offset": 0,
        "slot": "2",
        "type": "t_mapping(t_uint256,t_int64)"
      },
      {
        "astId": 350,
        "contract": "contracts/PerpMock.sol:PerpMock",
        "label": "orderId",
        "offset": 0,
        "slot": "3",
        "type": "t_uint256"
      },
      {
        "astId": 355,
        "contract": "contracts/PerpMock.sol:PerpMock",
        "label": "ordersByOrderId",
        "offset": 0,
        "slot": "4",
        "type": "t_mapping(t_uint256,t_struct(Order)341_storage)"
      },
      {
        "astId": 360,
        "contract": "contracts/PerpMock.sol:PerpMock",
        "label": "ordersByUser",
        "offset": 0,
        "slot": "5",
        "type": "t_mapping(t_address,t_array(t_uint256)dyn_storage)"
      },
      {
        "astId": 364,
        "contract": "contracts/PerpMock.sol:PerpMock",
        "label": "nrOrdersByUser",
        "offset": 0,
        "slot": "6",
        "type": "t_mapping(t_address,t_uint256)"
      },
      {
        "astId": 378,
        "contract": "contracts/PerpMock.sol:PerpMock",
        "label": "conditionalOrderId",
        "offset": 0,
        "slot": "7",
        "type": "t_uint256"
      },
      {
        "astId": 383,
        "contract": "contracts/PerpMock.sol:PerpMock",
        "label": "conditionalOrdersByOrderId",
        "offset": 0,
        "slot": "8",
        "type": "t_mapping(t_uint256,t_struct(Order)341_storage)"
      },
      {
        "astId": 388,
        "contract": "contracts/PerpMock.sol:PerpMock",
        "label": "conditionalOrdersByUser",
        "offset": 0,
        "slot": "9",
        "type": "t_mapping(t_address,t_array(t_uint256)dyn_storage)"
      },
      {
        "astId": 392,
        "contract": "contracts/PerpMock.sol:PerpMock",
        "label": "nrConditionalOrdersByUser",
        "offset": 0,
        "slot": "10",
        "type": "t_mapping(t_address,t_uint256)"
      },
      {
        "astId": 410,
        "contract": "contracts/PerpMock.sol:PerpMock",
        "label": "marginTradeId",
        "offset": 0,
        "slot": "11",
        "type": "t_uint256"
      },
      {
        "astId": 415,
        "contract": "contracts/PerpMock.sol:PerpMock",
        "label": "marginTradesByOrderId",
        "offset": 0,
        "slot": "12",
        "type": "t_mapping(t_uint256,t_struct(Order)341_storage)"
      },
      {
        "astId": 419,
        "contract": "contracts/PerpMock.sol:PerpMock",
        "label": "marginTradeIdByUser",
        "offset": 0,
        "slot": "13",
        "type": "t_mapping(t_address,t_uint256)"
      }
    ],
    "types": {
      "t_address": {
        "encoding": "inplace",
        "label": "address",
        "numberOfBytes": "20"
      },
      "t_array(t_uint256)dyn_storage": {
        "base": "t_uint256",
        "encoding": "dynamic_array",
        "label": "uint256[]",
        "numberOfBytes": "32"
      },
      "t_bool": {
        "encoding": "inplace",
        "label": "bool",
        "numberOfBytes": "1"
      },
      "t_contract(IPyth)262": {
        "encoding": "inplace",
        "label": "contract IPyth",
        "numberOfBytes": "20"
      },
      "t_int64": {
        "encoding": "inplace",
        "label": "int64",
        "numberOfBytes": "8"
      },
      "t_mapping(t_address,t_array(t_uint256)dyn_storage)": {
        "encoding": "mapping",
        "key": "t_address",
        "label": "mapping(address => uint256[])",
        "numberOfBytes": "32",
        "value": "t_array(t_uint256)dyn_storage"
      },
      "t_mapping(t_address,t_uint256)": {
        "encoding": "mapping",
        "key": "t_address",
        "label": "mapping(address => uint256)",
        "numberOfBytes": "32",
        "value": "t_uint256"
      },
      "t_mapping(t_uint256,t_int64)": {
        "encoding": "mapping",
        "key": "t_uint256",
        "label": "mapping(uint256 => int64)",
        "numberOfBytes": "32",
        "value": "t_int64"
      },
      "t_mapping(t_uint256,t_struct(Order)341_storage)": {
        "encoding": "mapping",
        "key": "t_uint256",
        "label": "mapping(uint256 => struct PerpMock.Order)",
        "numberOfBytes": "32",
        "value": "t_struct(Order)341_storage"
      },
      "t_struct(Order)341_storage": {
        "encoding": "inplace",
        "label": "struct PerpMock.Order",
        "members": [
          {
            "astId": 322,
            "contract": "contracts/PerpMock.sol:PerpMock",
            "label": "user",
            "offset": 0,
            "slot": "0",
            "type": "t_address"
          },
          {
            "astId": 324,
            "contract": "contracts/PerpMock.sol:PerpMock",
            "label": "timestamp",
            "offset": 0,
            "slot": "1",
            "type": "t_uint256"
          },
          {
            "astId": 326,
            "contract": "contracts/PerpMock.sol:PerpMock",
            "label": "amount",
            "offset": 0,
            "slot": "2",
            "type": "t_uint256"
          },
          {
            "astId": 328,
            "contract": "contracts/PerpMock.sol:PerpMock",
            "label": "price",
            "offset": 0,
            "slot": "3",
            "type": "t_int64"
          },
          {
            "astId": 330,
            "contract": "contracts/PerpMock.sol:PerpMock",
            "label": "publishTime",
            "offset": 0,
            "slot": "4",
            "type": "t_uint256"
          },
          {
            "astId": 332,
            "contract": "contracts/PerpMock.sol:PerpMock",
            "label": "above",
            "offset": 0,
            "slot": "5",
            "type": "t_bool"
          },
          {
            "astId": 334,
            "contract": "contracts/PerpMock.sol:PerpMock",
            "label": "leverage",
            "offset": 0,
            "slot": "6",
            "type": "t_uint256"
          },
          {
            "astId": 336,
            "contract": "contracts/PerpMock.sol:PerpMock",
            "label": "priceSettled",
            "offset": 0,
            "slot": "7",
            "type": "t_int64"
          },
          {
            "astId": 338,
            "contract": "contracts/PerpMock.sol:PerpMock",
            "label": "tokens",
            "offset": 8,
            "slot": "7",
            "type": "t_int64"
          },
          {
            "astId": 340,
            "contract": "contracts/PerpMock.sol:PerpMock",
            "label": "active",
            "offset": 16,
            "slot": "7",
            "type": "t_bool"
          }
        ],
        "numberOfBytes": "256"
      },
      "t_uint256": {
        "encoding": "inplace",
        "label": "uint256",
        "numberOfBytes": "32"
      }
    }
  }
}