{
  "address": "0xc5BCBdc07A9B9560d15f1780e2C4A9a6627d9Bc5",
  "abi": [
    {
      "inputs": [
        {
          "internalType": "address",
          "name": "_gelatoMsgSender",
          "type": "address"
        },
        {
          "internalType": "address",
          "name": "pythContract",
          "type": "address"
        },
        {
          "internalType": "address",
          "name": "_trustedForwarder",
          "type": "address"
        }
      ],
      "stateMutability": "nonpayable",
      "type": "constructor"
    },
    {
      "anonymous": false,
      "inputs": [
        {
          "indexed": true,
          "internalType": "address",
          "name": "previousOwner",
          "type": "address"
        },
        {
          "indexed": true,
          "internalType": "address",
          "name": "newOwner",
          "type": "address"
        }
      ],
      "name": "OwnershipTransferred",
      "type": "event"
    },
    {
      "anonymous": false,
      "inputs": [
        {
          "indexed": false,
          "internalType": "address",
          "name": "account",
          "type": "address"
        }
      ],
      "name": "Paused",
      "type": "event"
    },
    {
      "anonymous": false,
      "inputs": [
        {
          "indexed": false,
          "internalType": "address",
          "name": "account",
          "type": "address"
        }
      ],
      "name": "Unpaused",
      "type": "event"
    },
    {
      "anonymous": false,
      "inputs": [
        {
          "indexed": false,
          "internalType": "address",
          "name": "user",
          "type": "address"
        },
        {
          "indexed": false,
          "internalType": "uint256",
          "name": "orderId",
          "type": "uint256"
        }
      ],
      "name": "executeConditionalOrder",
      "type": "event"
    },
    {
      "anonymous": false,
      "inputs": [
        {
          "indexed": false,
          "internalType": "address",
          "name": "user",
          "type": "address"
        },
        {
          "indexed": false,
          "internalType": "uint256",
          "name": "orderId",
          "type": "uint256"
        }
      ],
      "name": "executeLiquidateOrder",
      "type": "event"
    },
    {
      "anonymous": false,
      "inputs": [
        {
          "indexed": false,
          "internalType": "uint256",
          "name": "timestamp",
          "type": "uint256"
        },
        {
          "indexed": false,
          "internalType": "uint256",
          "name": "orderId",
          "type": "uint256"
        },
        {
          "indexed": false,
          "internalType": "uint256",
          "name": "amount",
          "type": "uint256"
        },
        {
          "indexed": false,
          "internalType": "uint256",
          "name": "leverage",
          "type": "uint256"
        },
        {
          "indexed": false,
          "internalType": "int64",
          "name": "price",
          "type": "int64"
        },
        {
          "indexed": false,
          "internalType": "int64",
          "name": "tokens",
          "type": "int64"
        }
      ],
      "name": "marginTradeEvent",
      "type": "event"
    },
    {
      "anonymous": false,
      "inputs": [
        {
          "indexed": false,
          "internalType": "uint256",
          "name": "timestamp",
          "type": "uint256"
        },
        {
          "indexed": false,
          "internalType": "uint256",
          "name": "orderId",
          "type": "uint256"
        },
        {
          "indexed": false,
          "internalType": "int64",
          "name": "price",
          "type": "int64"
        },
        {
          "indexed": false,
          "internalType": "bool",
          "name": "above",
          "type": "bool"
        }
      ],
      "name": "setConditionalOrderEvent",
      "type": "event"
    },
    {
      "anonymous": false,
      "inputs": [
        {
          "indexed": false,
          "internalType": "uint256",
          "name": "timestamp",
          "type": "uint256"
        },
        {
          "indexed": false,
          "internalType": "uint256",
          "name": "orderId",
          "type": "uint256"
        }
      ],
      "name": "setOrderEvent",
      "type": "event"
    },
    {
      "anonymous": false,
      "inputs": [
        {
          "indexed": false,
          "internalType": "address",
          "name": "user",
          "type": "address"
        },
        {
          "indexed": false,
          "internalType": "uint256",
          "name": "orderId",
          "type": "uint256"
        }
      ],
      "name": "settleOrderEvent",
      "type": "event"
    },
    {
      "anonymous": false,
      "inputs": [
        {
          "indexed": false,
          "internalType": "uint256",
          "name": "orderId",
          "type": "uint256"
        },
        {
          "indexed": false,
          "internalType": "uint256",
          "name": "amount",
          "type": "uint256"
        },
        {
          "indexed": false,
          "internalType": "bool",
          "name": "add",
          "type": "bool"
        }
      ],
      "name": "updateCollateralEvent",
      "type": "event"
    },
    {
      "inputs": [],
      "name": "conditionalOrderId",
      "outputs": [
        {
          "internalType": "uint256",
          "name": "",
          "type": "uint256"
        }
      ],
      "stateMutability": "view",
      "type": "function"
    },
    {
      "inputs": [
        {
          "internalType": "uint256",
          "name": "",
          "type": "uint256"
        }
      ],
      "name": "conditionalOrdersByOrderId",
      "outputs": [
        {
          "internalType": "address",
          "name": "user",
          "type": "address"
        },
        {
          "internalType": "uint256",
          "name": "timestamp",
          "type": "uint256"
        },
        {
          "internalType": "uint256",
          "name": "amount",
          "type": "uint256"
        },
        {
          "internalType": "int64",
          "name": "price",
          "type": "int64"
        },
        {
          "internalType": "uint256",
          "name": "publishTime",
          "type": "uint256"
        },
        {
          "internalType": "bool",
          "name": "above",
          "type": "bool"
        },
        {
          "internalType": "uint256",
          "name": "leverage",
          "type": "uint256"
        },
        {
          "internalType": "int64",
          "name": "priceSettled",
          "type": "int64"
        },
        {
          "internalType": "int64",
          "name": "tokens",
          "type": "int64"
        }
      ],
      "stateMutability": "view",
      "type": "function"
    },
    {
      "inputs": [
        {
          "internalType": "address",
          "name": "",
          "type": "address"
        },
        {
          "internalType": "uint256",
          "name": "",
          "type": "uint256"
        }
      ],
      "name": "conditionalOrdersByUser",
      "outputs": [
        {
          "internalType": "uint256",
          "name": "",
          "type": "uint256"
        }
      ],
      "stateMutability": "view",
      "type": "function"
    },
    {
      "inputs": [],
      "name": "gelatoMsgSender",
      "outputs": [
        {
          "internalType": "address",
          "name": "",
          "type": "address"
        }
      ],
      "stateMutability": "view",
      "type": "function"
    },
    {
      "inputs": [
        {
          "internalType": "uint256",
          "name": "_order",
          "type": "uint256"
        }
      ],
      "name": "getConditionalOrder",
      "outputs": [
        {
          "components": [
            {
              "internalType": "address",
              "name": "user",
              "type": "address"
            },
            {
              "internalType": "uint256",
              "name": "timestamp",
              "type": "uint256"
            },
            {
              "internalType": "uint256",
              "name": "amount",
              "type": "uint256"
            },
            {
              "internalType": "int64",
              "name": "price",
              "type": "int64"
            },
            {
              "internalType": "uint256",
              "name": "publishTime",
              "type": "uint256"
            },
            {
              "internalType": "bool",
              "name": "above",
              "type": "bool"
            },
            {
              "internalType": "uint256",
              "name": "leverage",
              "type": "uint256"
            },
            {
              "internalType": "int64",
              "name": "priceSettled",
              "type": "int64"
            },
            {
              "internalType": "int64",
              "name": "tokens",
              "type": "int64"
            }
          ],
          "internalType": "struct PerpMock.Order",
          "name": "",
          "type": "tuple"
        }
      ],
      "stateMutability": "view",
      "type": "function"
    },
    {
      "inputs": [
        {
          "internalType": "uint256",
          "name": "_order",
          "type": "uint256"
        }
      ],
      "name": "getMarginTrade",
      "outputs": [
        {
          "components": [
            {
              "internalType": "address",
              "name": "user",
              "type": "address"
            },
            {
              "internalType": "uint256",
              "name": "timestamp",
              "type": "uint256"
            },
            {
              "internalType": "uint256",
              "name": "amount",
              "type": "uint256"
            },
            {
              "internalType": "int64",
              "name": "price",
              "type": "int64"
            },
            {
              "internalType": "uint256",
              "name": "publishTime",
              "type": "uint256"
            },
            {
              "internalType": "bool",
              "name": "above",
              "type": "bool"
            },
            {
              "internalType": "uint256",
              "name": "leverage",
              "type": "uint256"
            },
            {
              "internalType": "int64",
              "name": "priceSettled",
              "type": "int64"
            },
            {
              "internalType": "int64",
              "name": "tokens",
              "type": "int64"
            }
          ],
          "internalType": "struct PerpMock.Order",
          "name": "",
          "type": "tuple"
        }
      ],
      "stateMutability": "view",
      "type": "function"
    },
    {
      "inputs": [
        {
          "internalType": "uint256",
          "name": "_order",
          "type": "uint256"
        }
      ],
      "name": "getOrder",
      "outputs": [
        {
          "components": [
            {
              "internalType": "address",
              "name": "user",
              "type": "address"
            },
            {
              "internalType": "uint256",
              "name": "timestamp",
              "type": "uint256"
            },
            {
              "internalType": "uint256",
              "name": "amount",
              "type": "uint256"
            },
            {
              "internalType": "int64",
              "name": "price",
              "type": "int64"
            },
            {
              "internalType": "uint256",
              "name": "publishTime",
              "type": "uint256"
            },
            {
              "internalType": "bool",
              "name": "above",
              "type": "bool"
            },
            {
              "internalType": "uint256",
              "name": "leverage",
              "type": "uint256"
            },
            {
              "internalType": "int64",
              "name": "priceSettled",
              "type": "int64"
            },
            {
              "internalType": "int64",
              "name": "tokens",
              "type": "int64"
            }
          ],
          "internalType": "struct PerpMock.Order",
          "name": "",
          "type": "tuple"
        }
      ],
      "stateMutability": "view",
      "type": "function"
    },
    {
      "inputs": [
        {
          "internalType": "address",
          "name": "forwarder",
          "type": "address"
        }
      ],
      "name": "isTrustedForwarder",
      "outputs": [
        {
          "internalType": "bool",
          "name": "",
          "type": "bool"
        }
      ],
      "stateMutability": "view",
      "type": "function"
    },
    {
      "inputs": [
        {
          "internalType": "uint256[]",
          "name": "_tradesLiquidated",
          "type": "uint256[]"
        },
        {
          "internalType": "uint256",
          "name": "_timestamp",
          "type": "uint256"
        },
        {
          "internalType": "int64",
          "name": "_priceSettled",
          "type": "int64"
        }
      ],
      "name": "liquidate",
      "outputs": [],
      "stateMutability": "nonpayable",
      "type": "function"
    },
    {
      "inputs": [
        {
          "internalType": "uint256",
          "name": "_leverage",
          "type": "uint256"
        },
        {
          "internalType": "uint256",
          "name": "_amount",
          "type": "uint256"
        },
        {
          "internalType": "int64",
          "name": "_price",
          "type": "int64"
        }
      ],
      "name": "marginTrade",
      "outputs": [],
      "stateMutability": "nonpayable",
      "type": "function"
    },
    {
      "inputs": [],
      "name": "marginTradeId",
      "outputs": [
        {
          "internalType": "uint256",
          "name": "",
          "type": "uint256"
        }
      ],
      "stateMutability": "view",
      "type": "function"
    },
    {
      "inputs": [
        {
          "internalType": "address",
          "name": "",
          "type": "address"
        }
      ],
      "name": "marginTradeIdByUser",
      "outputs": [
        {
          "internalType": "uint256",
          "name": "",
          "type": "uint256"
        }
      ],
      "stateMutability": "view",
      "type": "function"
    },
    {
      "inputs": [
        {
          "internalType": "uint256",
          "name": "",
          "type": "uint256"
        }
      ],
      "name": "marginTradesByOrderId",
      "outputs": [
        {
          "internalType": "address",
          "name": "user",
          "type": "address"
        },
        {
          "internalType": "uint256",
          "name": "timestamp",
          "type": "uint256"
        },
        {
          "internalType": "uint256",
          "name": "amount",
          "type": "uint256"
        },
        {
          "internalType": "int64",
          "name": "price",
          "type": "int64"
        },
        {
          "internalType": "uint256",
          "name": "publishTime",
          "type": "uint256"
        },
        {
          "internalType": "bool",
          "name": "above",
          "type": "bool"
        },
        {
          "internalType": "uint256",
          "name": "leverage",
          "type": "uint256"
        },
        {
          "internalType": "int64",
          "name": "priceSettled",
          "type": "int64"
        },
        {
          "internalType": "int64",
          "name": "tokens",
          "type": "int64"
        }
      ],
      "stateMutability": "view",
      "type": "function"
    },
    {
      "inputs": [
        {
          "internalType": "address",
          "name": "",
          "type": "address"
        }
      ],
      "name": "nrConditionalOrdersByUser",
      "outputs": [
        {
          "internalType": "uint256",
          "name": "",
          "type": "uint256"
        }
      ],
      "stateMutability": "view",
      "type": "function"
    },
    {
      "inputs": [
        {
          "internalType": "address",
          "name": "",
          "type": "address"
        }
      ],
      "name": "nrOrdersByUser",
      "outputs": [
        {
          "internalType": "uint256",
          "name": "",
          "type": "uint256"
        }
      ],
      "stateMutability": "view",
      "type": "function"
    },
    {
      "inputs": [],
      "name": "orderId",
      "outputs": [
        {
          "internalType": "uint256",
          "name": "",
          "type": "uint256"
        }
      ],
      "stateMutability": "view",
      "type": "function"
    },
    {
      "inputs": [
        {
          "internalType": "uint256",
          "name": "",
          "type": "uint256"
        }
      ],
      "name": "ordersByOrderId",
      "outputs": [
        {
          "internalType": "address",
          "name": "user",
          "type": "address"
        },
        {
          "internalType": "uint256",
          "name": "timestamp",
          "type": "uint256"
        },
        {
          "internalType": "uint256",
          "name": "amount",
          "type": "uint256"
        },
        {
          "internalType": "int64",
          "name": "price",
          "type": "int64"
        },
        {
          "internalType": "uint256",
          "name": "publishTime",
          "type": "uint256"
        },
        {
          "internalType": "bool",
          "name": "above",
          "type": "bool"
        },
        {
          "internalType": "uint256",
          "name": "leverage",
          "type": "uint256"
        },
        {
          "internalType": "int64",
          "name": "priceSettled",
          "type": "int64"
        },
        {
          "internalType": "int64",
          "name": "tokens",
          "type": "int64"
        }
      ],
      "stateMutability": "view",
      "type": "function"
    },
    {
      "inputs": [
        {
          "internalType": "address",
          "name": "",
          "type": "address"
        },
        {
          "internalType": "uint256",
          "name": "",
          "type": "uint256"
        }
      ],
      "name": "ordersByUser",
      "outputs": [
        {
          "internalType": "uint256",
          "name": "",
          "type": "uint256"
        }
      ],
      "stateMutability": "view",
      "type": "function"
    },
    {
      "inputs": [],
      "name": "owner",
      "outputs": [
        {
          "internalType": "address",
          "name": "",
          "type": "address"
        }
      ],
      "stateMutability": "view",
      "type": "function"
    },
    {
      "inputs": [],
      "name": "pause",
      "outputs": [],
      "stateMutability": "nonpayable",
      "type": "function"
    },
    {
      "inputs": [],
      "name": "paused",
      "outputs": [
        {
          "internalType": "bool",
          "name": "",
          "type": "bool"
        }
      ],
      "stateMutability": "view",
      "type": "function"
    },
    {
      "inputs": [],
      "name": "renounceOwnership",
      "outputs": [],
      "stateMutability": "nonpayable",
      "type": "function"
    },
    {
      "inputs": [
        {
          "internalType": "uint256",
          "name": "_amount",
          "type": "uint256"
        },
        {
          "internalType": "int64",
          "name": "_price",
          "type": "int64"
        },
        {
          "internalType": "bool",
          "name": "_above",
          "type": "bool"
        }
      ],
      "name": "setConditionalOrder",
      "outputs": [],
      "stateMutability": "nonpayable",
      "type": "function"
    },
    {
      "inputs": [
        {
          "internalType": "uint256",
          "name": "_amount",
          "type": "uint256"
        }
      ],
      "name": "setOrder",
      "outputs": [],
      "stateMutability": "nonpayable",
      "type": "function"
    },
    {
      "inputs": [
        {
          "internalType": "address",
          "name": "newOwner",
          "type": "address"
        }
      ],
      "name": "transferOwnership",
      "outputs": [],
      "stateMutability": "nonpayable",
      "type": "function"
    },
    {
      "inputs": [],
      "name": "unpause",
      "outputs": [],
      "stateMutability": "nonpayable",
      "type": "function"
    },
    {
      "inputs": [
        {
          "internalType": "uint256",
          "name": "_orderId",
          "type": "uint256"
        },
        {
          "internalType": "uint256",
          "name": "_amount",
          "type": "uint256"
        },
        {
          "internalType": "bool",
          "name": "_add",
          "type": "bool"
        }
      ],
      "name": "updateCollateral",
      "outputs": [],
      "stateMutability": "nonpayable",
      "type": "function"
    },
    {
      "inputs": [
        {
          "internalType": "bytes[]",
          "name": "updatePriceData",
          "type": "bytes[]"
        },
        {
          "internalType": "uint256[]",
          "name": "_conditionalOrders",
          "type": "uint256[]"
        },
        {
          "internalType": "uint256",
          "name": "_timestamp",
          "type": "uint256"
        }
      ],
      "name": "updatePriceConditionalOrders",
      "outputs": [],
      "stateMutability": "nonpayable",
      "type": "function"
    },
    {
      "inputs": [
        {
          "internalType": "bytes[]",
          "name": "updatePriceData",
          "type": "bytes[]"
        },
        {
          "internalType": "uint256[]",
          "name": "_orders",
          "type": "uint256[]"
        },
        {
          "internalType": "uint256",
          "name": "_timestamp",
          "type": "uint256"
        }
      ],
      "name": "updatePriceOrders",
      "outputs": [],
      "stateMutability": "nonpayable",
      "type": "function"
    },
    {
      "inputs": [],
      "name": "withdraw",
      "outputs": [
        {
          "internalType": "bool",
          "name": "",
          "type": "bool"
        }
      ],
      "stateMutability": "nonpayable",
      "type": "function"
    },
    {
      "stateMutability": "payable",
      "type": "receive"
    }
  ],
  "transactionHash": "0x3841b2feec7822afce4a2a05ef21997adc59b847b14306d6450aa071568bff71",
  "args": [
    "0xbB97656cd5fECe3a643335d03C8919D5E7DcD225",
    "0xff1a0f4744e8582DF1aE09D5611b887B6a12925C",
    "0x5B91C8E7a2DEABC623E6Ab34E8c26F27Cc18bC66"
  ],
  "numDeployments": 1,
  "solcInputHash": "4acfb6cc8ab06152e1b49fdfce2d7258",
  "bytecode": "0x60c06040523480156200001157600080fd5b506040516200237a3803806200237a833981016040819052620000349162000143565b6001600160a01b0381166080526000805460ff191690556200005f6200005962000089565b620000a5565b506001600160a01b0391821660a052600180546001600160a01b031916919092161790556200018d565b6000620000a0620000fe60201b620016941760201c565b905090565b600080546001600160a01b03838116610100818102610100600160a81b0319851617855560405193049190911692909183917f8be0079c531659141344cd1fd0a4f28419497f9722a3daafe3b4186f6b6457e091a35050565b6080516000906001600160a01b0316330362000121575060131936013560601c90565b503390565b80516001600160a01b03811681146200013e57600080fd5b919050565b6000806000606084860312156200015957600080fd5b620001648462000126565b9250620001746020850162000126565b9150620001846040850162000126565b90509250925092565b60805160a0516121ab620001cf600039600081816105d6015281816108b101528181610a3e01526112f6015260008181610399015261169801526121ab6000f3fe6080604052600436106101d15760003560e01c80637a3174a7116100f7578063c57bf9ad11610095578063d800a4dd11610064578063d800a4dd146106e2578063ef4532cf1461070f578063f2fde38b1461072f578063fe3d33ce1461074f57600080fd5b8063c57bf9ad146105f8578063c7647ff714610675578063cdf8972e146106a2578063d09ef241146106c257600080fd5b80638456cb59116100d15780638456cb591461054b5780638da5cb5b14610560578063a1df8f5c14610597578063c5443082146105c457600080fd5b80637a3174a7146104eb5780637c86f4341461050b57806382c03cce1461052b57600080fd5b8063572b6c051161016f578063715018a61161013e578063715018a61461041757806373729d051461042c57806377197d271461044c57806378959dbc146104cb57600080fd5b8063572b6c051461037c578063574b0731146103c95780635c975abb146103e957806365d4a9671461040157600080fd5b806332496c7c116101ab57806332496c7c146102575780633ccfd60b1461032a5780633f4ba83a1461034f5780634c2eefb41461036657600080fd5b806310cfa97f146101dd578063163de5e5146102135780631e9358511461023757600080fd5b366101d857005b600080fd5b3480156101e957600080fd5b506101fd6101f8366004611afc565b61076f565b60405161020a9190611b15565b60405180910390f35b34801561021f57600080fd5b5061022960035481565b60405190815260200161020a565b34801561024357600080fd5b50610229610252366004611bbf565b610809565b34801561026357600080fd5b506102d4610272366004611afc565b600c60205260009081526040902080546001820154600283015460038401546004850154600586015460068701546007978801546001600160a01b03909716979596949593840b94929360ff90921692909181810b91600160401b9004900b89565b604080516001600160a01b03909a168a5260208a019890985296880195909552600793840b60608801526080870192909252151560a086015260c085015290810b60e08401520b6101008201526101200161020a565b34801561033657600080fd5b5061033f61083a565b604051901515815260200161020a565b34801561035b57600080fd5b50610364610894565b005b34801561037257600080fd5b5061022960075481565b34801561038857600080fd5b5061033f610397366004611be9565b7f00000000000000000000000000000000000000000000000000000000000000006001600160a01b0390811691161490565b3480156103d557600080fd5b506103646103e4366004611ce1565b6108a6565b3480156103f557600080fd5b5060005460ff1661033f565b34801561040d57600080fd5b50610229600b5481565b34801561042357600080fd5b50610364610a05565b34801561043857600080fd5b50610229610447366004611bbf565b610a17565b34801561045857600080fd5b506102d4610467366004611afc565b6004602081905260009182526040909120805460018201546002830154600384015494840154600585015460068601546007968701546001600160a01b03909616979496939594840b94929360ff90921692909181810b91600160401b9004900b89565b3480156104d757600080fd5b506103646104e6366004611e22565b610a33565b3480156104f757600080fd5b50610364610506366004611e8d565b610b7b565b34801561051757600080fd5b50610364610526366004611afc565b610ce2565b34801561053757600080fd5b50610364610546366004611ec2565b610eb6565b34801561055757600080fd5b506103646111a9565b34801561056c57600080fd5b5060005461010090046001600160a01b03165b6040516001600160a01b03909116815260200161020a565b3480156105a357600080fd5b506102296105b2366004611be9565b600d6020526000908152604090205481565b3480156105d057600080fd5b5061057f7f000000000000000000000000000000000000000000000000000000000000000081565b34801561060457600080fd5b506102d4610613366004611afc565b600860205260009081526040902080546001820154600283015460038401546004850154600586015460068701546007978801546001600160a01b03909716979596949593840b94929360ff90921692909181810b91600160401b9004900b89565b34801561068157600080fd5b50610229610690366004611be9565b60066020526000908152604090205481565b3480156106ae57600080fd5b506101fd6106bd366004611afc565b6111b9565b3480156106ce57600080fd5b506101fd6106dd366004611afc565b611253565b3480156106ee57600080fd5b506102296106fd366004611be9565b600a6020526000908152604090205481565b34801561071b57600080fd5b5061036461072a366004611ce1565b6112eb565b34801561073b57600080fd5b5061036461074a366004611be9565b61143a565b34801561075b57600080fd5b5061036461076a366004611ef0565b6114b3565b610777611ab0565b506000908152600c602090815260409182902082516101208101845281546001600160a01b031681526001820154928101929092526002810154928201929092526003820154600790810b606083015260048301546080830152600583015460ff16151560a0830152600683015460c08301529182015480830b60e0830152600160401b900490910b61010082015290565b6005602052816000526040600020818154811061082557600080fd5b90600052602060002001600091509150505481565b60006108446116d8565b604051600090339047908381818185875af1925050503d8060008114610886576040519150601f19603f3d011682016040523d82523d6000602084013e61088b565b606091505b50909250505090565b61089c6116d8565b6108a4611757565b565b336001600160a01b037f000000000000000000000000000000000000000000000000000000000000000016146108f75760405162461bcd60e51b81526004016108ee90611f25565b60405180910390fd5b600061090384836117af565b905060005b83518110156109fe5760006004600086848151811061092957610929611f5a565b6020908102919091018101518252810191909152604001600020835160078201805467ffffffffffffffff191667ffffffffffffffff90921691909117905560608401516004820155805486519192507fccd3be7a71c0db83ae7270007ddc655ac0872f3c8122af7f9b58ba74408950df916001600160a01b03909116908790859081106109b9576109b9611f5a565b60200260200101516040516109e39291906001600160a01b03929092168252602082015260400190565b60405180910390a150806109f681611f86565b915050610908565b5050505050565b610a0d6116d8565b6108a4600061197b565b6009602052816000526040600020818154811061082557600080fd5b336001600160a01b037f00000000000000000000000000000000000000000000000000000000000000001614610a7b5760405162461bcd60e51b81526004016108ee90611f25565b60005b8351811015610b75576000600c6000868481518110610a9f57610a9f611f5a565b6020908102919091018101518252810191909152604001600090812060078101805467ffffffffffffffff191667ffffffffffffffff8716179055600481018690556006810191909155805486519192507f4c5553db85d7bfef7a6d0eaf4081b48180d894da946d898a43bcf895606c85d0916001600160a01b0390911690879085908110610b3057610b30611f5a565b6020026020010151604051610b5a9291906001600160a01b03929092168252602082015260400190565b60405180910390a15080610b6d81611f86565b915050610a7e565b50505050565b6000838152600c60205260408120600601549003610bcd5760405162461bcd60e51b815260206004820152600f60248201526e4e6f204d617267696e20547261646560881b60448201526064016108ee565b8015610bff576000838152600c602052604081206002018054849290610bf4908490611f9f565b90915550610c979050565b6000838152600c60205260409020600201548210610c705760405162461bcd60e51b815260206004820152602860248201527f52656d6f76696e6720636f6c61746572616c20686967686572207468616e20616044820152677661696c61626c6560c01b60648201526084016108ee565b6000838152600c602052604081206002018054849290610c91908490611fb2565b90915550505b6040805184815260208101849052821515918101919091527fee8643e67c24622cc9a839eafd837adc5c08d4354a70257db45b3cb2bde00eeb906060015b60405180910390a1505050565b600160036000828254610cf59190611f9f565b9091555050604080516101208101825233815242602080830191825282840185815260006060850181815260808601828152600160a0880181815260c0890185815260e08a018681526101008b0187815260038054895260049a8b90529c88209b518c546001600160a01b0319166001600160a01b03909116178c559951938b0193909355955160028a01559251988801805467ffffffffffffffff191667ffffffffffffffff9a8b16179055905194870194909455516005808701805460ff1916921515929092179091559151600686015591516007909401805493519486166001600160801b031990941693909317600160401b949095169390930293909317905590610e026119d4565b6001600160a01b03168152602080820192909252604001600090812060035481546001818101845592845293832090930192909255600690610e426119d4565b6001600160a01b03166001600160a01b031681526020019081526020016000206000828254610e719190611f9f565b90915550506003546040805142815260208101929092527f6f34c3f094460b0585979f759a118a66b36a8e39a5fad428401bededa66b4d4a910160405180910390a150565b60008211610ef85760405162461bcd60e51b815260206004820152600f60248201526e416d6f756e7420506f73697469766560881b60448201526064016108ee565b60008311610f3c5760405162461bcd60e51b81526020600482015260116024820152704c6576657261676520506f73697469766560781b60448201526064016108ee565b60008160070b13610f805760405162461bcd60e51b815260206004820152600e60248201526d507269636520506f73697469766560901b60448201526064016108ee565b600d6000610f8c6119d4565b6001600160a01b0316815260208101919091526040016000205415610fe85760405162461bcd60e51b8152602060048201526012602482015271416c726561647920696e206120747261646560701b60448201526064016108ee565b6001600b6000828254610ffb9190611f9f565b9091555060009050816110138464e8d4a51000611fc5565b61101d9190611fec565b6040805161012081018252338152426020808301918252828401888152600788810b6060860190815260006080870181815260a0880182815260c089018f815260e08a018481528c870b6101008c01908152600b80548752600c909a529b85209a518b546001600160a01b0319166001600160a01b03909116178b55985160018b0155955160028a0155925160038901805467ffffffffffffffff191667ffffffffffffffff92831617905590516004890155915160058801805460ff19169115159190911790559251600687015593519401805495519484166001600160801b031990961695909517600160401b9490931693909302919091179092559054919250600d9061112b6119d4565b6001600160a01b03168152602080820192909252604090810160002092909255600b5482514281529182015290810184905260608101859052600783810b608083015282900b60a08201527f25b0402b3a62a8bdf506198467bb8414d799dd285d94f74ebfe452424a9225149060c00160405180910390a150505050565b6111b16116d8565b6108a46119e3565b6111c1611ab0565b5060009081526008602090815260409182902082516101208101845281546001600160a01b031681526001820154928101929092526002810154928201929092526003820154600790810b606083015260048301546080830152600583015460ff16151560a0830152600683015460c08301529182015480830b60e0830152600160401b900490910b61010082015290565b61125b611ab0565b5060009081526004602081815260409283902083516101208101855281546001600160a01b031681526001820154928101929092526002810154938201939093526003830154600790810b6060830152918301546080820152600583015460ff16151560a0820152600683015460c08201529181015480820b60e0840152600160401b9004900b61010082015290565b336001600160a01b037f000000000000000000000000000000000000000000000000000000000000000016146113335760405162461bcd60e51b81526004016108ee90611f25565b600061133f84836117af565b905060005b83518110156109fe5760006008600086848151811061136557611365611f5a565b6020908102919091018101518252810191909152604001600020835160078201805467ffffffffffffffff191667ffffffffffffffff90921691909117905560608401516004820155805486519192507f2360db32a732a7141ac8d4af80c636d039637abf0b002cc5319489cbf181e73e916001600160a01b03909116908790859081106113f5576113f5611f5a565b602002602001015160405161141f9291906001600160a01b03929092168252602082015260400190565b60405180910390a1508061143281611f86565b915050611344565b6114426116d8565b6001600160a01b0381166114a75760405162461bcd60e51b815260206004820152602660248201527f4f776e61626c653a206e6577206f776e657220697320746865207a65726f206160448201526564647265737360d01b60648201526084016108ee565b6114b08161197b565b50565b6001600760008282546114c69190611f9f565b90915550506040805161012081018252338152426020808301918252828401878152600787810b6060860190815260006080870181815289151560a0890190815260c0890183815260e08a018481526101008b018581528754865260089099529a842099518a546001600160a01b0319166001600160a01b03909116178a55975160018a015594516002890155915160038801805467ffffffffffffffff191667ffffffffffffffff92831617905591516004880155925160058701805460ff191691151591909117905593516006860155945193909401805491519383166001600160801b031990921691909117600160401b93909216929092021790556009906115d06119d4565b6001600160a01b03168152602080820192909252604001600090812060075481546001818101845592845293832090930192909255600a906116106119d4565b6001600160a01b03166001600160a01b03168152602001908152602001600020600082825461163f9190611f9f565b9091555050600780546040805142815260208101929092529184900b9181019190915281151560608201527f57ecd4ae95df1a2ea1ef0da13a09120359b9c5ffcce6e56eda3ab0d2cabf1c6d90608001610cd5565b60007f00000000000000000000000000000000000000000000000000000000000000006001600160a01b031633036116d3575060131936013560601c90565b503390565b6116e06119d4565b6001600160a01b03166117016000546001600160a01b036101009091041690565b6001600160a01b0316146108a45760405162461bcd60e51b815260206004820181905260248201527f4f776e61626c653a2063616c6c6572206973206e6f7420746865206f776e657260448201526064016108ee565b61175f611a21565b6000805460ff191690557f5db9ee0a495bf2e6ff9c91a7834c1ba4fdd244a5e8aa4e537bd38aeae4b073aa6117926119d4565b6040516001600160a01b03909116815260200160405180910390a1565b60408051608081018252600080825260208201819052918101829052606081019190915260008281526002602052604090205460070b1561180a576060810182905260008281526002602052604090205460070b8152611975565b60015460405163d47eed4560e01b81526000916001600160a01b03169063d47eed459061183b908790600401612039565b602060405180830381865afa158015611858573d6000803e3d6000fd5b505050506040513d601f19601f8201168201806040525081019061187c91906120cb565b600154604051631df3cbc560e31b81529192506001600160a01b03169063ef9e5e289083906118af908890600401612039565b6000604051808303818588803b1580156118c857600080fd5b505af11580156118dc573d6000803e3d6000fd5b50506001546040516396834ad360e01b81527fca80ba6dc32e08d06f1aa886011eed1d77c77be9eb761cc10d72b7d0a2fd57a66004820181905294506001600160a01b0390911692506396834ad39150602401608060405180830381865afa15801561194c573d6000803e3d6000fd5b505050506040513d601f19601f8201168201806040525081019061197091906120e4565b925050505b92915050565b600080546001600160a01b03838116610100818102610100600160a81b0319851617855560405193049190911692909183917f8be0079c531659141344cd1fd0a4f28419497f9722a3daafe3b4186f6b6457e091a35050565b60006119de611694565b905090565b6119eb611a6a565b6000805460ff191660011790557f62e78cea01bee320cd4e420270b5ea74000d11b0c9f74754ebdbfc544b05a2586117926119d4565b60005460ff166108a45760405162461bcd60e51b815260206004820152601460248201527314185d5cd8589b194e881b9bdd081c185d5cd95960621b60448201526064016108ee565b60005460ff16156108a45760405162461bcd60e51b815260206004820152601060248201526f14185d5cd8589b194e881c185d5cd95960821b60448201526064016108ee565b6040805161012081018252600080825260208201819052918101829052606081018290526080810182905260a0810182905260c0810182905260e0810182905261010081019190915290565b600060208284031215611b0e57600080fd5b5035919050565b81516001600160a01b03168152602080830151908201526040808301519082015260608083015160070b908201526080808301519082015260a082810151610120830191611b669084018215159052565b5060c083015160c083015260e0830151611b8560e084018260070b9052565b5061010080840151611b9b8285018260070b9052565b505092915050565b80356001600160a01b0381168114611bba57600080fd5b919050565b60008060408385031215611bd257600080fd5b611bdb83611ba3565b946020939093013593505050565b600060208284031215611bfb57600080fd5b611c0482611ba3565b9392505050565b634e487b7160e01b600052604160045260246000fd5b604051601f8201601f1916810167ffffffffffffffff81118282101715611c4a57611c4a611c0b565b604052919050565b600067ffffffffffffffff821115611c6c57611c6c611c0b565b5060051b60200190565b600082601f830112611c8757600080fd5b81356020611c9c611c9783611c52565b611c21565b82815260059290921b84018101918181019086841115611cbb57600080fd5b8286015b84811015611cd65780358352918301918301611cbf565b509695505050505050565b600080600060608486031215611cf657600080fd5b833567ffffffffffffffff80821115611d0e57600080fd5b818601915086601f830112611d2257600080fd5b81356020611d32611c9783611c52565b82815260059290921b8401810191818101908a841115611d5157600080fd5b8286015b84811015611dde57803586811115611d6d5760008081fd5b8701603f81018d13611d7f5760008081fd5b84810135604088821115611d9557611d95611c0b565b611da7601f8301601f19168801611c21565b8281528f82848601011115611dbc5760008081fd5b8282850189830137600092810188019290925250845250918301918301611d55565b5097505087013592505080821115611df557600080fd5b50611e0286828701611c76565b925050604084013590509250925092565b8060070b81146114b057600080fd5b600080600060608486031215611e3757600080fd5b833567ffffffffffffffff811115611e4e57600080fd5b611e5a86828701611c76565b935050602084013591506040840135611e7281611e13565b809150509250925092565b80358015158114611bba57600080fd5b600080600060608486031215611ea257600080fd5b8335925060208401359150611eb960408501611e7d565b90509250925092565b600080600060608486031215611ed757600080fd5b83359250602084013591506040840135611e7281611e13565b600080600060608486031215611f0557600080fd5b833592506020840135611f1781611e13565b9150611eb960408501611e7d565b6020808252818101527f4f6e6c79206465646963617465642067656c61746f206d73672e73656e646572604082015260600190565b634e487b7160e01b600052603260045260246000fd5b634e487b7160e01b600052601160045260246000fd5b600060018201611f9857611f98611f70565b5060010190565b8082018082111561197557611975611f70565b8181038181111561197557611975611f70565b60008260070b8260070b028060070b9150808214611fe557611fe5611f70565b5092915050565b60008160070b8360070b8061201157634e487b7160e01b600052601260045260246000fd5b677fffffffffffffff1982146000198214161561203057612030611f70565b90059392505050565b6000602080830181845280855180835260408601915060408160051b87010192508387016000805b838110156120bd57888603603f1901855282518051808852835b81811015612096578281018a01518982018b0152890161207b565b508781018901849052601f01601f1916909601870195509386019391860191600101612061565b509398975050505050505050565b6000602082840312156120dd57600080fd5b5051919050565b6000608082840312156120f657600080fd5b6040516080810167ffffffffffffffff828210818311171561211a5761211a611c0b565b816040528451915061212b82611e13565b908252602084015190808216821461214257600080fd5b5060208201526040830151600381900b811461215d57600080fd5b6040820152606092830151928101929092525091905056fea2646970667358221220c7024064b52b19d562056ae9f21c8d0a04d4e6cf22a59cbb6f1db0c7e41da9f664736f6c63430008120033",
  "devdoc": {
    "events": {
      "Paused(address)": {
        "details": "Emitted when the pause is triggered by `account`."
      },
      "Unpaused(address)": {
        "details": "Emitted when the pause is lifted by `account`."
      }
    },
    "kind": "dev",
    "methods": {
      "owner()": {
        "details": "Returns the address of the current owner."
      },
      "paused()": {
        "details": "Returns true if the contract is paused, and false otherwise."
      },
      "renounceOwnership()": {
        "details": "Leaves the contract without owner. It will not be possible to call `onlyOwner` functions. Can only be called by the current owner. NOTE: Renouncing ownership will leave the contract without an owner, thereby disabling any functionality that is only available to the owner."
      },
      "transferOwnership(address)": {
        "details": "Transfers ownership of the contract to a new account (`newOwner`). Can only be called by the current owner."
      }
    },
    "version": 1
  },
  "userdoc": {
    "kind": "user",
    "methods": {},
    "version": 1
  },
  "storageLayout": {
    "storage": [
      {
        "astId": 279,
        "contract": "contracts/PerpMock.sol:PerpMock",
        "label": "_paused",
        "offset": 0,
        "slot": "0",
        "type": "t_bool"
      },
      {
        "astId": 77,
        "contract": "contracts/PerpMock.sol:PerpMock",
        "label": "_owner",
        "offset": 1,
        "slot": "0",
        "type": "t_address"
      },
      {
        "astId": 672,
        "contract": "contracts/PerpMock.sol:PerpMock",
        "label": "_pyth",
        "offset": 0,
        "slot": "1",
        "type": "t_contract(IPyth)584"
      },
      {
        "astId": 676,
        "contract": "contracts/PerpMock.sol:PerpMock",
        "label": "priceByTimestamp",
        "offset": 0,
        "slot": "2",
        "type": "t_mapping(t_uint256,t_int64)"
      },
      {
        "astId": 678,
        "contract": "contracts/PerpMock.sol:PerpMock",
        "label": "orderId",
        "offset": 0,
        "slot": "3",
        "type": "t_uint256"
      },
      {
        "astId": 683,
        "contract": "contracts/PerpMock.sol:PerpMock",
        "label": "ordersByOrderId",
        "offset": 0,
        "slot": "4",
        "type": "t_mapping(t_uint256,t_struct(Order)669_storage)"
      },
      {
        "astId": 688,
        "contract": "contracts/PerpMock.sol:PerpMock",
        "label": "ordersByUser",
        "offset": 0,
        "slot": "5",
        "type": "t_mapping(t_address,t_array(t_uint256)dyn_storage)"
      },
      {
        "astId": 692,
        "contract": "contracts/PerpMock.sol:PerpMock",
        "label": "nrOrdersByUser",
        "offset": 0,
        "slot": "6",
        "type": "t_mapping(t_address,t_uint256)"
      },
      {
        "astId": 706,
        "contract": "contracts/PerpMock.sol:PerpMock",
        "label": "conditionalOrderId",
        "offset": 0,
        "slot": "7",
        "type": "t_uint256"
      },
      {
        "astId": 711,
        "contract": "contracts/PerpMock.sol:PerpMock",
        "label": "conditionalOrdersByOrderId",
        "offset": 0,
        "slot": "8",
        "type": "t_mapping(t_uint256,t_struct(Order)669_storage)"
      },
      {
        "astId": 716,
        "contract": "contracts/PerpMock.sol:PerpMock",
        "label": "conditionalOrdersByUser",
        "offset": 0,
        "slot": "9",
        "type": "t_mapping(t_address,t_array(t_uint256)dyn_storage)"
      },
      {
        "astId": 720,
        "contract": "contracts/PerpMock.sol:PerpMock",
        "label": "nrConditionalOrdersByUser",
        "offset": 0,
        "slot": "10",
        "type": "t_mapping(t_address,t_uint256)"
      },
      {
        "astId": 738,
        "contract": "contracts/PerpMock.sol:PerpMock",
        "label": "marginTradeId",
        "offset": 0,
        "slot": "11",
        "type": "t_uint256"
      },
      {
        "astId": 743,
        "contract": "contracts/PerpMock.sol:PerpMock",
        "label": "marginTradesByOrderId",
        "offset": 0,
        "slot": "12",
        "type": "t_mapping(t_uint256,t_struct(Order)669_storage)"
      },
      {
        "astId": 747,
        "contract": "contracts/PerpMock.sol:PerpMock",
        "label": "marginTradeIdByUser",
        "offset": 0,
        "slot": "13",
        "type": "t_mapping(t_address,t_uint256)"
      }
    ],
    "types": {
      "t_address": {
        "encoding": "inplace",
        "label": "address",
        "numberOfBytes": "20"
      },
      "t_array(t_uint256)dyn_storage": {
        "base": "t_uint256",
        "encoding": "dynamic_array",
        "label": "uint256[]",
        "numberOfBytes": "32"
      },
      "t_bool": {
        "encoding": "inplace",
        "label": "bool",
        "numberOfBytes": "1"
      },
      "t_contract(IPyth)584": {
        "encoding": "inplace",
        "label": "contract IPyth",
        "numberOfBytes": "20"
      },
      "t_int64": {
        "encoding": "inplace",
        "label": "int64",
        "numberOfBytes": "8"
      },
      "t_mapping(t_address,t_array(t_uint256)dyn_storage)": {
        "encoding": "mapping",
        "key": "t_address",
        "label": "mapping(address => uint256[])",
        "numberOfBytes": "32",
        "value": "t_array(t_uint256)dyn_storage"
      },
      "t_mapping(t_address,t_uint256)": {
        "encoding": "mapping",
        "key": "t_address",
        "label": "mapping(address => uint256)",
        "numberOfBytes": "32",
        "value": "t_uint256"
      },
      "t_mapping(t_uint256,t_int64)": {
        "encoding": "mapping",
        "key": "t_uint256",
        "label": "mapping(uint256 => int64)",
        "numberOfBytes": "32",
        "value": "t_int64"
      },
      "t_mapping(t_uint256,t_struct(Order)669_storage)": {
        "encoding": "mapping",
        "key": "t_uint256",
        "label": "mapping(uint256 => struct PerpMock.Order)",
        "numberOfBytes": "32",
        "value": "t_struct(Order)669_storage"
      },
      "t_struct(Order)669_storage": {
        "encoding": "inplace",
        "label": "struct PerpMock.Order",
        "members": [
          {
            "astId": 652,
            "contract": "contracts/PerpMock.sol:PerpMock",
            "label": "user",
            "offset": 0,
            "slot": "0",
            "type": "t_address"
          },
          {
            "astId": 654,
            "contract": "contracts/PerpMock.sol:PerpMock",
            "label": "timestamp",
            "offset": 0,
            "slot": "1",
            "type": "t_uint256"
          },
          {
            "astId": 656,
            "contract": "contracts/PerpMock.sol:PerpMock",
            "label": "amount",
            "offset": 0,
            "slot": "2",
            "type": "t_uint256"
          },
          {
            "astId": 658,
            "contract": "contracts/PerpMock.sol:PerpMock",
            "label": "price",
            "offset": 0,
            "slot": "3",
            "type": "t_int64"
          },
          {
            "astId": 660,
            "contract": "contracts/PerpMock.sol:PerpMock",
            "label": "publishTime",
            "offset": 0,
            "slot": "4",
            "type": "t_uint256"
          },
          {
            "astId": 662,
            "contract": "contracts/PerpMock.sol:PerpMock",
            "label": "above",
            "offset": 0,
            "slot": "5",
            "type": "t_bool"
          },
          {
            "astId": 664,
            "contract": "contracts/PerpMock.sol:PerpMock",
            "label": "leverage",
            "offset": 0,
            "slot": "6",
            "type": "t_uint256"
          },
          {
            "astId": 666,
            "contract": "contracts/PerpMock.sol:PerpMock",
            "label": "priceSettled",
            "offset": 0,
            "slot": "7",
            "type": "t_int64"
          },
          {
            "astId": 668,
            "contract": "contracts/PerpMock.sol:PerpMock",
            "label": "tokens",
            "offset": 8,
            "slot": "7",
            "type": "t_int64"
          }
        ],
        "numberOfBytes": "256"
      },
      "t_uint256": {
        "encoding": "inplace",
        "label": "uint256",
        "numberOfBytes": "32"
      }
    }
  }
}