{
  "address": "0xc109BB3880D55E98793c715e6E7Be3ac247e342f",
  "abi": [
    {
      "inputs": [
        {
          "internalType": "address",
          "name": "_gelatoMsgSender",
          "type": "address"
        },
        {
          "internalType": "address",
          "name": "pythContract",
          "type": "address"
        },
        {
          "internalType": "address",
          "name": "_trustedForwarder",
          "type": "address"
        }
      ],
      "stateMutability": "nonpayable",
      "type": "constructor"
    },
    {
      "anonymous": false,
      "inputs": [
        {
          "indexed": true,
          "internalType": "address",
          "name": "previousOwner",
          "type": "address"
        },
        {
          "indexed": true,
          "internalType": "address",
          "name": "newOwner",
          "type": "address"
        }
      ],
      "name": "OwnershipTransferred",
      "type": "event"
    },
    {
      "anonymous": false,
      "inputs": [
        {
          "indexed": false,
          "internalType": "address",
          "name": "account",
          "type": "address"
        }
      ],
      "name": "Paused",
      "type": "event"
    },
    {
      "anonymous": false,
      "inputs": [
        {
          "indexed": false,
          "internalType": "address",
          "name": "account",
          "type": "address"
        }
      ],
      "name": "Unpaused",
      "type": "event"
    },
    {
      "anonymous": false,
      "inputs": [
        {
          "indexed": false,
          "internalType": "uint256",
          "name": "timestamp",
          "type": "uint256"
        },
        {
          "indexed": false,
          "internalType": "uint256",
          "name": "orderId",
          "type": "uint256"
        },
        {
          "indexed": false,
          "internalType": "uint256",
          "name": "amount",
          "type": "uint256"
        },
        {
          "indexed": false,
          "internalType": "uint256",
          "name": "leverage",
          "type": "uint256"
        }
      ],
      "name": "marginTradeEvent",
      "type": "event"
    },
    {
      "anonymous": false,
      "inputs": [
        {
          "indexed": false,
          "internalType": "uint256",
          "name": "timestamp",
          "type": "uint256"
        },
        {
          "indexed": false,
          "internalType": "uint256",
          "name": "orderId",
          "type": "uint256"
        },
        {
          "indexed": false,
          "internalType": "int64",
          "name": "price",
          "type": "int64"
        },
        {
          "indexed": false,
          "internalType": "bool",
          "name": "above",
          "type": "bool"
        }
      ],
      "name": "setConditionalOrderEvent",
      "type": "event"
    },
    {
      "anonymous": false,
      "inputs": [
        {
          "indexed": false,
          "internalType": "uint256",
          "name": "timestamp",
          "type": "uint256"
        },
        {
          "indexed": false,
          "internalType": "uint256",
          "name": "orderId",
          "type": "uint256"
        }
      ],
      "name": "setOrderEvent",
      "type": "event"
    },
    {
      "anonymous": false,
      "inputs": [
        {
          "indexed": false,
          "internalType": "uint256",
          "name": "orderId",
          "type": "uint256"
        },
        {
          "indexed": false,
          "internalType": "uint256",
          "name": "amount",
          "type": "uint256"
        },
        {
          "indexed": false,
          "internalType": "bool",
          "name": "add",
          "type": "bool"
        }
      ],
      "name": "updateCollateralEvent",
      "type": "event"
    },
    {
      "inputs": [],
      "name": "conditionalOrderId",
      "outputs": [
        {
          "internalType": "uint256",
          "name": "",
          "type": "uint256"
        }
      ],
      "stateMutability": "view",
      "type": "function"
    },
    {
      "inputs": [
        {
          "internalType": "uint256",
          "name": "",
          "type": "uint256"
        }
      ],
      "name": "conditionalOrdersByOrderId",
      "outputs": [
        {
          "internalType": "uint256",
          "name": "timestamp",
          "type": "uint256"
        },
        {
          "internalType": "uint256",
          "name": "amount",
          "type": "uint256"
        },
        {
          "internalType": "int64",
          "name": "price",
          "type": "int64"
        },
        {
          "internalType": "uint256",
          "name": "publishTime",
          "type": "uint256"
        },
        {
          "internalType": "bool",
          "name": "above",
          "type": "bool"
        },
        {
          "internalType": "uint256",
          "name": "leverage",
          "type": "uint256"
        }
      ],
      "stateMutability": "view",
      "type": "function"
    },
    {
      "inputs": [
        {
          "internalType": "address",
          "name": "",
          "type": "address"
        },
        {
          "internalType": "uint256",
          "name": "",
          "type": "uint256"
        }
      ],
      "name": "conditionalOrdersByUser",
      "outputs": [
        {
          "internalType": "uint256",
          "name": "",
          "type": "uint256"
        }
      ],
      "stateMutability": "view",
      "type": "function"
    },
    {
      "inputs": [],
      "name": "gelatoMsgSender",
      "outputs": [
        {
          "internalType": "address",
          "name": "",
          "type": "address"
        }
      ],
      "stateMutability": "view",
      "type": "function"
    },
    {
      "inputs": [
        {
          "internalType": "uint256",
          "name": "_order",
          "type": "uint256"
        }
      ],
      "name": "getConditionalOrder",
      "outputs": [
        {
          "components": [
            {
              "internalType": "uint256",
              "name": "timestamp",
              "type": "uint256"
            },
            {
              "internalType": "uint256",
              "name": "amount",
              "type": "uint256"
            },
            {
              "internalType": "int64",
              "name": "price",
              "type": "int64"
            },
            {
              "internalType": "uint256",
              "name": "publishTime",
              "type": "uint256"
            },
            {
              "internalType": "bool",
              "name": "above",
              "type": "bool"
            },
            {
              "internalType": "uint256",
              "name": "leverage",
              "type": "uint256"
            }
          ],
          "internalType": "struct PerpMock.Order",
          "name": "",
          "type": "tuple"
        }
      ],
      "stateMutability": "view",
      "type": "function"
    },
    {
      "inputs": [
        {
          "internalType": "uint256",
          "name": "_order",
          "type": "uint256"
        }
      ],
      "name": "getMargonTrade",
      "outputs": [
        {
          "components": [
            {
              "internalType": "uint256",
              "name": "timestamp",
              "type": "uint256"
            },
            {
              "internalType": "uint256",
              "name": "amount",
              "type": "uint256"
            },
            {
              "internalType": "int64",
              "name": "price",
              "type": "int64"
            },
            {
              "internalType": "uint256",
              "name": "publishTime",
              "type": "uint256"
            },
            {
              "internalType": "bool",
              "name": "above",
              "type": "bool"
            },
            {
              "internalType": "uint256",
              "name": "leverage",
              "type": "uint256"
            }
          ],
          "internalType": "struct PerpMock.Order",
          "name": "",
          "type": "tuple"
        }
      ],
      "stateMutability": "view",
      "type": "function"
    },
    {
      "inputs": [
        {
          "internalType": "uint256",
          "name": "_order",
          "type": "uint256"
        }
      ],
      "name": "getOrder",
      "outputs": [
        {
          "components": [
            {
              "internalType": "uint256",
              "name": "timestamp",
              "type": "uint256"
            },
            {
              "internalType": "uint256",
              "name": "amount",
              "type": "uint256"
            },
            {
              "internalType": "int64",
              "name": "price",
              "type": "int64"
            },
            {
              "internalType": "uint256",
              "name": "publishTime",
              "type": "uint256"
            },
            {
              "internalType": "bool",
              "name": "above",
              "type": "bool"
            },
            {
              "internalType": "uint256",
              "name": "leverage",
              "type": "uint256"
            }
          ],
          "internalType": "struct PerpMock.Order",
          "name": "",
          "type": "tuple"
        }
      ],
      "stateMutability": "view",
      "type": "function"
    },
    {
      "inputs": [
        {
          "internalType": "address",
          "name": "forwarder",
          "type": "address"
        }
      ],
      "name": "isTrustedForwarder",
      "outputs": [
        {
          "internalType": "bool",
          "name": "",
          "type": "bool"
        }
      ],
      "stateMutability": "view",
      "type": "function"
    },
    {
      "inputs": [
        {
          "internalType": "uint256[]",
          "name": "_tradesLiquidated",
          "type": "uint256[]"
        },
        {
          "internalType": "uint256",
          "name": "_timestamp",
          "type": "uint256"
        }
      ],
      "name": "liquidate",
      "outputs": [],
      "stateMutability": "nonpayable",
      "type": "function"
    },
    {
      "inputs": [
        {
          "internalType": "uint256",
          "name": "_leverage",
          "type": "uint256"
        },
        {
          "internalType": "uint256",
          "name": "_amount",
          "type": "uint256"
        }
      ],
      "name": "marginTrade",
      "outputs": [],
      "stateMutability": "nonpayable",
      "type": "function"
    },
    {
      "inputs": [],
      "name": "marginTradeId",
      "outputs": [
        {
          "internalType": "uint256",
          "name": "",
          "type": "uint256"
        }
      ],
      "stateMutability": "view",
      "type": "function"
    },
    {
      "inputs": [
        {
          "internalType": "uint256",
          "name": "",
          "type": "uint256"
        }
      ],
      "name": "marginTradesByOrderId",
      "outputs": [
        {
          "internalType": "uint256",
          "name": "timestamp",
          "type": "uint256"
        },
        {
          "internalType": "uint256",
          "name": "amount",
          "type": "uint256"
        },
        {
          "internalType": "int64",
          "name": "price",
          "type": "int64"
        },
        {
          "internalType": "uint256",
          "name": "publishTime",
          "type": "uint256"
        },
        {
          "internalType": "bool",
          "name": "above",
          "type": "bool"
        },
        {
          "internalType": "uint256",
          "name": "leverage",
          "type": "uint256"
        }
      ],
      "stateMutability": "view",
      "type": "function"
    },
    {
      "inputs": [
        {
          "internalType": "address",
          "name": "",
          "type": "address"
        },
        {
          "internalType": "uint256",
          "name": "",
          "type": "uint256"
        }
      ],
      "name": "marginTradesByUser",
      "outputs": [
        {
          "internalType": "uint256",
          "name": "",
          "type": "uint256"
        }
      ],
      "stateMutability": "view",
      "type": "function"
    },
    {
      "inputs": [
        {
          "internalType": "address",
          "name": "",
          "type": "address"
        }
      ],
      "name": "nrConditionalOrdersByUser",
      "outputs": [
        {
          "internalType": "uint256",
          "name": "",
          "type": "uint256"
        }
      ],
      "stateMutability": "view",
      "type": "function"
    },
    {
      "inputs": [
        {
          "internalType": "address",
          "name": "",
          "type": "address"
        }
      ],
      "name": "nrMarginTradesByUser",
      "outputs": [
        {
          "internalType": "uint256",
          "name": "",
          "type": "uint256"
        }
      ],
      "stateMutability": "view",
      "type": "function"
    },
    {
      "inputs": [
        {
          "internalType": "address",
          "name": "",
          "type": "address"
        }
      ],
      "name": "nrOrdersByUser",
      "outputs": [
        {
          "internalType": "uint256",
          "name": "",
          "type": "uint256"
        }
      ],
      "stateMutability": "view",
      "type": "function"
    },
    {
      "inputs": [],
      "name": "orderId",
      "outputs": [
        {
          "internalType": "uint256",
          "name": "",
          "type": "uint256"
        }
      ],
      "stateMutability": "view",
      "type": "function"
    },
    {
      "inputs": [
        {
          "internalType": "uint256",
          "name": "",
          "type": "uint256"
        }
      ],
      "name": "ordersByOrderId",
      "outputs": [
        {
          "internalType": "uint256",
          "name": "timestamp",
          "type": "uint256"
        },
        {
          "internalType": "uint256",
          "name": "amount",
          "type": "uint256"
        },
        {
          "internalType": "int64",
          "name": "price",
          "type": "int64"
        },
        {
          "internalType": "uint256",
          "name": "publishTime",
          "type": "uint256"
        },
        {
          "internalType": "bool",
          "name": "above",
          "type": "bool"
        },
        {
          "internalType": "uint256",
          "name": "leverage",
          "type": "uint256"
        }
      ],
      "stateMutability": "view",
      "type": "function"
    },
    {
      "inputs": [
        {
          "internalType": "address",
          "name": "",
          "type": "address"
        },
        {
          "internalType": "uint256",
          "name": "",
          "type": "uint256"
        }
      ],
      "name": "ordersByUser",
      "outputs": [
        {
          "internalType": "uint256",
          "name": "",
          "type": "uint256"
        }
      ],
      "stateMutability": "view",
      "type": "function"
    },
    {
      "inputs": [],
      "name": "owner",
      "outputs": [
        {
          "internalType": "address",
          "name": "",
          "type": "address"
        }
      ],
      "stateMutability": "view",
      "type": "function"
    },
    {
      "inputs": [],
      "name": "pause",
      "outputs": [],
      "stateMutability": "nonpayable",
      "type": "function"
    },
    {
      "inputs": [],
      "name": "paused",
      "outputs": [
        {
          "internalType": "bool",
          "name": "",
          "type": "bool"
        }
      ],
      "stateMutability": "view",
      "type": "function"
    },
    {
      "inputs": [],
      "name": "renounceOwnership",
      "outputs": [],
      "stateMutability": "nonpayable",
      "type": "function"
    },
    {
      "inputs": [
        {
          "internalType": "uint256",
          "name": "_amount",
          "type": "uint256"
        },
        {
          "internalType": "int64",
          "name": "_price",
          "type": "int64"
        },
        {
          "internalType": "bool",
          "name": "_above",
          "type": "bool"
        }
      ],
      "name": "setConditionalOrder",
      "outputs": [],
      "stateMutability": "nonpayable",
      "type": "function"
    },
    {
      "inputs": [
        {
          "internalType": "uint256",
          "name": "_amount",
          "type": "uint256"
        }
      ],
      "name": "setOrder",
      "outputs": [],
      "stateMutability": "nonpayable",
      "type": "function"
    },
    {
      "inputs": [
        {
          "internalType": "address",
          "name": "newOwner",
          "type": "address"
        }
      ],
      "name": "transferOwnership",
      "outputs": [],
      "stateMutability": "nonpayable",
      "type": "function"
    },
    {
      "inputs": [],
      "name": "unpause",
      "outputs": [],
      "stateMutability": "nonpayable",
      "type": "function"
    },
    {
      "inputs": [
        {
          "internalType": "uint256",
          "name": "_orderId",
          "type": "uint256"
        },
        {
          "internalType": "uint256",
          "name": "_amount",
          "type": "uint256"
        },
        {
          "internalType": "bool",
          "name": "_add",
          "type": "bool"
        }
      ],
      "name": "updateCollateral",
      "outputs": [],
      "stateMutability": "nonpayable",
      "type": "function"
    },
    {
      "inputs": [
        {
          "internalType": "bytes[]",
          "name": "updatePriceData",
          "type": "bytes[]"
        },
        {
          "internalType": "uint256[]",
          "name": "_conditionalOrders",
          "type": "uint256[]"
        },
        {
          "internalType": "uint256",
          "name": "_timestamp",
          "type": "uint256"
        }
      ],
      "name": "updatePriceConditionalOrders",
      "outputs": [],
      "stateMutability": "nonpayable",
      "type": "function"
    },
    {
      "inputs": [
        {
          "internalType": "bytes[]",
          "name": "updatePriceData",
          "type": "bytes[]"
        },
        {
          "internalType": "uint256[]",
          "name": "_orders",
          "type": "uint256[]"
        },
        {
          "internalType": "uint256",
          "name": "_timestamp",
          "type": "uint256"
        }
      ],
      "name": "updatePriceOrders",
      "outputs": [],
      "stateMutability": "nonpayable",
      "type": "function"
    },
    {
      "inputs": [],
      "name": "withdraw",
      "outputs": [
        {
          "internalType": "bool",
          "name": "",
          "type": "bool"
        }
      ],
      "stateMutability": "nonpayable",
      "type": "function"
    },
    {
      "stateMutability": "payable",
      "type": "receive"
    }
  ],
  "transactionHash": "0x7824224e9ce1a8392ece10cf92da0f42e0ee3653f4a34279960d9f948c7e946f",
  "args": [
    "0xbB97656cd5fECe3a643335d03C8919D5E7DcD225",
    "0xff1a0f4744e8582DF1aE09D5611b887B6a12925C",
    "0x5B91C8E7a2DEABC623E6Ab34E8c26F27Cc18bC66"
  ],
  "numDeployments": 1,
  "solcInputHash": "032743c6297ea02d448f10bc4a8ad512",
  "bytecode": "0x60c06040523480156200001157600080fd5b5060405162001e8e38038062001e8e833981016040819052620000349162000143565b6001600160a01b0381166080526000805460ff191690556200005f6200005962000089565b620000a5565b506001600160a01b0391821660a052600180546001600160a01b031916919092161790556200018d565b6000620000a0620000fe60201b620012dd1760201c565b905090565b600080546001600160a01b03838116610100818102610100600160a81b0319851617855560405193049190911692909183917f8be0079c531659141344cd1fd0a4f28419497f9722a3daafe3b4186f6b6457e091a35050565b6080516000906001600160a01b0316330362000121575060131936013560601c90565b503390565b80516001600160a01b03811681146200013e57600080fd5b919050565b6000806000606084860312156200015957600080fd5b620001648462000126565b9250620001746020850162000126565b9150620001846040850162000126565b90509250925092565b60805160a051611cbf620001cf6000396000818161056a0152818161078e015281816108e4015261101d01526000818161039e01526112e10152611cbf6000f3fe6080604052600436106101dc5760003560e01c806377197d2711610102578063c7647ff711610095578063db38e50411610064578063db38e504146106d2578063ef4532cf146106f2578063f2fde38b14610712578063fe3d33ce1461073257600080fd5b8063c7647ff7146105e7578063cdf8972e14610614578063d09ef24114610685578063d800a4dd146106a557600080fd5b80638628f770116100d15780638628f770146105015780638da5cb5b14610521578063c544308214610558578063c57bf9ad1461058c57600080fd5b806377197d27146104515780637a3174a7146104ac5780637c86f434146104cc5780638456cb59146104ec57600080fd5b806351d958581161017a5780635c975abb116101495780635c975abb146103ee57806365d4a96714610406578063715018a61461041c57806373729d051461043157600080fd5b806351d958581461033457806356d9942414610361578063572b6c0514610381578063574b0731146103ce57600080fd5b806332496c7c116101b657806332496c7c146102535780633ccfd60b146102e45780633f4ba83a146103095780634c2eefb41461031e57600080fd5b8063163de5e5146101e85780631e935851146102115780632e3abf481461023157600080fd5b366101e357005b600080fd5b3480156101f457600080fd5b506101fe60035481565b6040519081526020015b60405180910390f35b34801561021d57600080fd5b506101fe61022c366004611750565b610752565b34801561023d57600080fd5b5061025161024c366004611850565b610783565b005b34801561025f57600080fd5b506102ae61026e366004611895565b600c602052600090815260409020805460018201546002830154600384015460048501546005909501549394929360079290920b92909160ff9091169086565b60408051968752602087019590955260079390930b938501939093526060840152901515608083015260a082015260c001610208565b3480156102f057600080fd5b506102f9610851565b6040519015158152602001610208565b34801561031557600080fd5b506102516108ab565b34801561032a57600080fd5b506101fe60075481565b34801561034057600080fd5b506101fe61034f3660046118ae565b600e6020526000908152604090205481565b34801561036d57600080fd5b506101fe61037c366004611750565b6108bd565b34801561038d57600080fd5b506102f961039c3660046118ae565b7f00000000000000000000000000000000000000000000000000000000000000006001600160a01b0390811691161490565b3480156103da57600080fd5b506102516103e93660046118d0565b6108d9565b3480156103fa57600080fd5b5060005460ff166102f9565b34801561041257600080fd5b506101fe600b5481565b34801561042857600080fd5b50610251610a0c565b34801561043d57600080fd5b506101fe61044c366004611750565b610a1e565b34801561045d57600080fd5b506102ae61046c366004611895565b60046020819052600091825260409091208054600182015460028301546003840154948401546005909401549294919360079190910b9260ff9091169086565b3480156104b857600080fd5b506102516104c7366004611a12565b610a3a565b3480156104d857600080fd5b506102516104e7366004611895565b610ba1565b3480156104f857600080fd5b50610251610d0f565b34801561050d57600080fd5b5061025161051c366004611a47565b610d1f565b34801561052d57600080fd5b5060005461010090046001600160a01b03165b6040516001600160a01b039091168152602001610208565b34801561056457600080fd5b506105407f000000000000000000000000000000000000000000000000000000000000000081565b34801561059857600080fd5b506102ae6105a7366004611895565b6008602052600090815260409020805460018201546002830154600384015460048501546005909501549394929360079290920b92909160ff9091169086565b3480156105f357600080fd5b506101fe6106023660046118ae565b60066020526000908152604090205481565b34801561062057600080fd5b5061063461062f366004611895565b610ed8565b6040516102089190600060c0820190508251825260208301516020830152604083015160070b60408301526060830151606083015260808301511515608083015260a083015160a083015292915050565b34801561069157600080fd5b506106346106a0366004611895565b610f41565b3480156106b157600080fd5b506101fe6106c03660046118ae565b600a6020526000908152604090205481565b3480156106de57600080fd5b506106346106ed366004611895565b610fa9565b3480156106fe57600080fd5b5061025161070d3660046118d0565b611012565b34801561071e57600080fd5b5061025161072d3660046118ae565b6110e9565b34801561073e57600080fd5b5061025161074d366004611a78565b611162565b6005602052816000526040600020818154811061076e57600080fd5b90600052602060002001600091509150505481565b336001600160a01b037f000000000000000000000000000000000000000000000000000000000000000016146107d45760405162461bcd60e51b81526004016107cb90611aad565b60405180910390fd5b60005b825181101561084c576000600c60008584815181106107f8576107f8611ae2565b6020908102919091018101518252810191909152604001600090812060028101805467ffffffffffffffff19169055600381018590556005810182905560010155508061084481611b0e565b9150506107d7565b505050565b600061085b611321565b604051600090339047908381818185875af1925050503d806000811461089d576040519150601f19603f3d011682016040523d82523d6000602084013e6108a2565b606091505b50909250505090565b6108b3611321565b6108bb6113a0565b565b600d602052816000526040600020818154811061076e57600080fd5b336001600160a01b037f000000000000000000000000000000000000000000000000000000000000000016146109215760405162461bcd60e51b81526004016107cb90611aad565b600061092d84836113f8565b905060005b8351811015610a055760006004600086848151811061095357610953611ae2565b60200260200101518152602001908152602001600020905082606001518160000154600c6109819190611b27565b106109c35760405162461bcd60e51b81526020600482015260126024820152711393d5080c4c881cd958c8195b185c1cd95960721b60448201526064016107cb565b825160028201805467ffffffffffffffff191667ffffffffffffffff9092169190911790556060830151600390910155806109fd81611b0e565b915050610932565b5050505050565b610a14611321565b6108bb60006115c4565b6009602052816000526040600020818154811061076e57600080fd5b6000838152600c60205260408120600101549003610a8c5760405162461bcd60e51b815260206004820152600f60248201526e4e6f204d617267696e20547261646560881b60448201526064016107cb565b8015610abe576000838152600c602052604081206001018054849290610ab3908490611b27565b90915550610b569050565b6000838152600c60205260409020600101548210610b2f5760405162461bcd60e51b815260206004820152602860248201527f52656d6f76696e6720636f6c61746572616c20686967686572207468616e20616044820152677661696c61626c6560c01b60648201526084016107cb565b6000838152600c602052604081206001018054849290610b50908490611b3a565b90915550505b6040805184815260208101849052821515918101919091527fee8643e67c24622cc9a839eafd837adc5c08d4354a70257db45b3cb2bde00eeb906060015b60405180910390a1505050565b600160036000828254610bb49190611b27565b90915550506040805160c081018252428152602080820184815260008385018181526060850182815260016080870181815260a0880185815260038054875260049889905299862098518955955191880191909155915160028701805467ffffffffffffffff191667ffffffffffffffff90921691909117905551958501959095559351918301805460ff1916921515929092179091555160059182015590610c5b61161d565b6001600160a01b03168152602080820192909252604001600090812060035481546001818101845592845293832090930192909255600690610c9b61161d565b6001600160a01b03166001600160a01b031681526020019081526020016000206000828254610cca9190611b27565b90915550506003546040805142815260208101929092527f6f34c3f094460b0585979f759a118a66b36a8e39a5fad428401bededa66b4d4a910160405180910390a150565b610d17611321565b6108bb61162c565b60008111610d615760405162461bcd60e51b815260206004820152600f60248201526e416d6f756e7420506f73697469766560881b60448201526064016107cb565b6001600b6000828254610d749190611b27565b90915550506040805160c08101825242815260208082018481526000838501818152606085018281526080860183815260a087018a8152600b548552600c90965296832095518655925160018601555160028501805467ffffffffffffffff191667ffffffffffffffff90921691909117905590516003840155925160048301805460ff191691151591909117905551600590910155600d90610e1561161d565b6001600160a01b031681526020808201929092526040016000908120600b5481546001818101845592845293832090930192909255600e90610e5561161d565b6001600160a01b03166001600160a01b031681526020019081526020016000206000828254610e849190611b27565b9091555050600b546040805142815260208101929092528101829052606081018390527f6dd10f5d1e12860f9410b4e1173e5ed499cc13156859944b40410e082ea816e39060800160405180910390a15050565b610ee06116f9565b50600090815260086020908152604091829020825160c08101845281548152600182015492810192909252600281015460070b9282019290925260038201546060820152600482015460ff161515608082015260059091015460a082015290565b610f496116f9565b50600090815260046020818152604092839020835160c08101855281548152600182015492810192909252600281015460070b93820193909352600383015460608201529082015460ff161515608082015260059091015460a082015290565b610fb16116f9565b506000908152600c6020908152604091829020825160c08101845281548152600182015492810192909252600281015460070b9282019290925260038201546060820152600482015460ff161515608082015260059091015460a082015290565b336001600160a01b037f0000000000000000000000000000000000000000000000000000000000000000161461105a5760405162461bcd60e51b81526004016107cb90611aad565b600061106684836113f8565b905060005b8351811015610a055760006008600086848151811061108c5761108c611ae2565b6020908102919091018101518252810191909152604001600020835160028201805467ffffffffffffffff191667ffffffffffffffff909216919091179055606084015160039091015550806110e181611b0e565b91505061106b565b6110f1611321565b6001600160a01b0381166111565760405162461bcd60e51b815260206004820152602660248201527f4f776e61626c653a206e6577206f776e657220697320746865207a65726f206160448201526564647265737360d01b60648201526084016107cb565b61115f816115c4565b50565b6001600760008282546111759190611b27565b90915550506040805160c08101825242815260208082018681526000838501818152606085018281528715156080870190815260a087018481526007548552600890965296832095518655925160018601555160028501805467ffffffffffffffff191667ffffffffffffffff90921691909117905590516003840155925160048301805460ff19169115159190911790555160059091015560099061121961161d565b6001600160a01b03168152602080820192909252604001600090812060075481546001818101845592845293832090930192909255600a9061125961161d565b6001600160a01b03166001600160a01b0316815260200190815260200160002060008282546112889190611b27565b9091555050600780546040805142815260208101929092529184900b9181019190915281151560608201527f57ecd4ae95df1a2ea1ef0da13a09120359b9c5ffcce6e56eda3ab0d2cabf1c6d90608001610b94565b60007f00000000000000000000000000000000000000000000000000000000000000006001600160a01b0316330361131c575060131936013560601c90565b503390565b61132961161d565b6001600160a01b031661134a6000546001600160a01b036101009091041690565b6001600160a01b0316146108bb5760405162461bcd60e51b815260206004820181905260248201527f4f776e61626c653a2063616c6c6572206973206e6f7420746865206f776e657260448201526064016107cb565b6113a861166a565b6000805460ff191690557f5db9ee0a495bf2e6ff9c91a7834c1ba4fdd244a5e8aa4e537bd38aeae4b073aa6113db61161d565b6040516001600160a01b03909116815260200160405180910390a1565b60408051608081018252600080825260208201819052918101829052606081019190915260008281526002602052604090205460070b15611453576060810182905260008281526002602052604090205460070b81526115be565b60015460405163d47eed4560e01b81526000916001600160a01b03169063d47eed4590611484908790600401611b4d565b602060405180830381865afa1580156114a1573d6000803e3d6000fd5b505050506040513d601f19601f820116820180604052508101906114c59190611bdf565b600154604051631df3cbc560e31b81529192506001600160a01b03169063ef9e5e289083906114f8908890600401611b4d565b6000604051808303818588803b15801561151157600080fd5b505af1158015611525573d6000803e3d6000fd5b50506001546040516396834ad360e01b81527fca80ba6dc32e08d06f1aa886011eed1d77c77be9eb761cc10d72b7d0a2fd57a66004820181905294506001600160a01b0390911692506396834ad39150602401608060405180830381865afa158015611595573d6000803e3d6000fd5b505050506040513d601f19601f820116820180604052508101906115b99190611bf8565b925050505b92915050565b600080546001600160a01b03838116610100818102610100600160a81b0319851617855560405193049190911692909183917f8be0079c531659141344cd1fd0a4f28419497f9722a3daafe3b4186f6b6457e091a35050565b60006116276112dd565b905090565b6116346116b3565b6000805460ff191660011790557f62e78cea01bee320cd4e420270b5ea74000d11b0c9f74754ebdbfc544b05a2586113db61161d565b60005460ff166108bb5760405162461bcd60e51b815260206004820152601460248201527314185d5cd8589b194e881b9bdd081c185d5cd95960621b60448201526064016107cb565b60005460ff16156108bb5760405162461bcd60e51b815260206004820152601060248201526f14185d5cd8589b194e881c185d5cd95960821b60448201526064016107cb565b6040518060c001604052806000815260200160008152602001600060070b815260200160008152602001600015158152602001600081525090565b80356001600160a01b038116811461174b57600080fd5b919050565b6000806040838503121561176357600080fd5b61176c83611734565b946020939093013593505050565b634e487b7160e01b600052604160045260246000fd5b604051601f8201601f1916810167ffffffffffffffff811182821017156117b9576117b961177a565b604052919050565b600067ffffffffffffffff8211156117db576117db61177a565b5060051b60200190565b600082601f8301126117f657600080fd5b8135602061180b611806836117c1565b611790565b82815260059290921b8401810191818101908684111561182a57600080fd5b8286015b84811015611845578035835291830191830161182e565b509695505050505050565b6000806040838503121561186357600080fd5b823567ffffffffffffffff81111561187a57600080fd5b611886858286016117e5565b95602094909401359450505050565b6000602082840312156118a757600080fd5b5035919050565b6000602082840312156118c057600080fd5b6118c982611734565b9392505050565b6000806000606084860312156118e557600080fd5b833567ffffffffffffffff808211156118fd57600080fd5b818601915086601f83011261191157600080fd5b81356020611921611806836117c1565b82815260059290921b8401810191818101908a84111561194057600080fd5b8286015b848110156119cd5780358681111561195c5760008081fd5b8701603f81018d1361196e5760008081fd5b848101356040888211156119845761198461177a565b611996601f8301601f19168801611790565b8281528f828486010111156119ab5760008081fd5b8282850189830137600092810188019290925250845250918301918301611944565b50975050870135925050808211156119e457600080fd5b506119f1868287016117e5565b925050604084013590509250925092565b8035801515811461174b57600080fd5b600080600060608486031215611a2757600080fd5b8335925060208401359150611a3e60408501611a02565b90509250925092565b60008060408385031215611a5a57600080fd5b50508035926020909101359150565b8060070b811461115f57600080fd5b600080600060608486031215611a8d57600080fd5b833592506020840135611a9f81611a69565b9150611a3e60408501611a02565b6020808252818101527f4f6e6c79206465646963617465642067656c61746f206d73672e73656e646572604082015260600190565b634e487b7160e01b600052603260045260246000fd5b634e487b7160e01b600052601160045260246000fd5b600060018201611b2057611b20611af8565b5060010190565b808201808211156115be576115be611af8565b818103818111156115be576115be611af8565b6000602080830181845280855180835260408601915060408160051b87010192508387016000805b83811015611bd157888603603f1901855282518051808852835b81811015611baa578281018a01518982018b01528901611b8f565b508781018901849052601f01601f1916909601870195509386019391860191600101611b75565b509398975050505050505050565b600060208284031215611bf157600080fd5b5051919050565b600060808284031215611c0a57600080fd5b6040516080810167ffffffffffffffff8282108183111715611c2e57611c2e61177a565b8160405284519150611c3f82611a69565b9082526020840151908082168214611c5657600080fd5b5060208201526040830151600381900b8114611c7157600080fd5b6040820152606092830151928101929092525091905056fea26469706673582212206cf8da94607513a4f6d72d1a102deae372221580e9b258ebfd5be6bd17f2f04064736f6c63430008120033",
  "devdoc": {
    "events": {
      "Paused(address)": {
        "details": "Emitted when the pause is triggered by `account`."
      },
      "Unpaused(address)": {
        "details": "Emitted when the pause is lifted by `account`."
      }
    },
    "kind": "dev",
    "methods": {
      "owner()": {
        "details": "Returns the address of the current owner."
      },
      "paused()": {
        "details": "Returns true if the contract is paused, and false otherwise."
      },
      "renounceOwnership()": {
        "details": "Leaves the contract without owner. It will not be possible to call `onlyOwner` functions. Can only be called by the current owner. NOTE: Renouncing ownership will leave the contract without an owner, thereby disabling any functionality that is only available to the owner."
      },
      "transferOwnership(address)": {
        "details": "Transfers ownership of the contract to a new account (`newOwner`). Can only be called by the current owner."
      }
    },
    "version": 1
  },
  "userdoc": {
    "kind": "user",
    "methods": {},
    "version": 1
  },
  "storageLayout": {
    "storage": [
      {
        "astId": 279,
        "contract": "contracts/PerpMock.sol:PerpMock",
        "label": "_paused",
        "offset": 0,
        "slot": "0",
        "type": "t_bool"
      },
      {
        "astId": 77,
        "contract": "contracts/PerpMock.sol:PerpMock",
        "label": "_owner",
        "offset": 1,
        "slot": "0",
        "type": "t_address"
      },
      {
        "astId": 666,
        "contract": "contracts/PerpMock.sol:PerpMock",
        "label": "_pyth",
        "offset": 0,
        "slot": "1",
        "type": "t_contract(IPyth)584"
      },
      {
        "astId": 670,
        "contract": "contracts/PerpMock.sol:PerpMock",
        "label": "priceByTimestamp",
        "offset": 0,
        "slot": "2",
        "type": "t_mapping(t_uint256,t_int64)"
      },
      {
        "astId": 672,
        "contract": "contracts/PerpMock.sol:PerpMock",
        "label": "orderId",
        "offset": 0,
        "slot": "3",
        "type": "t_uint256"
      },
      {
        "astId": 677,
        "contract": "contracts/PerpMock.sol:PerpMock",
        "label": "ordersByOrderId",
        "offset": 0,
        "slot": "4",
        "type": "t_mapping(t_uint256,t_struct(Order)663_storage)"
      },
      {
        "astId": 682,
        "contract": "contracts/PerpMock.sol:PerpMock",
        "label": "ordersByUser",
        "offset": 0,
        "slot": "5",
        "type": "t_mapping(t_address,t_array(t_uint256)dyn_storage)"
      },
      {
        "astId": 686,
        "contract": "contracts/PerpMock.sol:PerpMock",
        "label": "nrOrdersByUser",
        "offset": 0,
        "slot": "6",
        "type": "t_mapping(t_address,t_uint256)"
      },
      {
        "astId": 694,
        "contract": "contracts/PerpMock.sol:PerpMock",
        "label": "conditionalOrderId",
        "offset": 0,
        "slot": "7",
        "type": "t_uint256"
      },
      {
        "astId": 699,
        "contract": "contracts/PerpMock.sol:PerpMock",
        "label": "conditionalOrdersByOrderId",
        "offset": 0,
        "slot": "8",
        "type": "t_mapping(t_uint256,t_struct(Order)663_storage)"
      },
      {
        "astId": 704,
        "contract": "contracts/PerpMock.sol:PerpMock",
        "label": "conditionalOrdersByUser",
        "offset": 0,
        "slot": "9",
        "type": "t_mapping(t_address,t_array(t_uint256)dyn_storage)"
      },
      {
        "astId": 708,
        "contract": "contracts/PerpMock.sol:PerpMock",
        "label": "nrConditionalOrdersByUser",
        "offset": 0,
        "slot": "10",
        "type": "t_mapping(t_address,t_uint256)"
      },
      {
        "astId": 720,
        "contract": "contracts/PerpMock.sol:PerpMock",
        "label": "marginTradeId",
        "offset": 0,
        "slot": "11",
        "type": "t_uint256"
      },
      {
        "astId": 725,
        "contract": "contracts/PerpMock.sol:PerpMock",
        "label": "marginTradesByOrderId",
        "offset": 0,
        "slot": "12",
        "type": "t_mapping(t_uint256,t_struct(Order)663_storage)"
      },
      {
        "astId": 730,
        "contract": "contracts/PerpMock.sol:PerpMock",
        "label": "marginTradesByUser",
        "offset": 0,
        "slot": "13",
        "type": "t_mapping(t_address,t_array(t_uint256)dyn_storage)"
      },
      {
        "astId": 734,
        "contract": "contracts/PerpMock.sol:PerpMock",
        "label": "nrMarginTradesByUser",
        "offset": 0,
        "slot": "14",
        "type": "t_mapping(t_address,t_uint256)"
      }
    ],
    "types": {
      "t_address": {
        "encoding": "inplace",
        "label": "address",
        "numberOfBytes": "20"
      },
      "t_array(t_uint256)dyn_storage": {
        "base": "t_uint256",
        "encoding": "dynamic_array",
        "label": "uint256[]",
        "numberOfBytes": "32"
      },
      "t_bool": {
        "encoding": "inplace",
        "label": "bool",
        "numberOfBytes": "1"
      },
      "t_contract(IPyth)584": {
        "encoding": "inplace",
        "label": "contract IPyth",
        "numberOfBytes": "20"
      },
      "t_int64": {
        "encoding": "inplace",
        "label": "int64",
        "numberOfBytes": "8"
      },
      "t_mapping(t_address,t_array(t_uint256)dyn_storage)": {
        "encoding": "mapping",
        "key": "t_address",
        "label": "mapping(address => uint256[])",
        "numberOfBytes": "32",
        "value": "t_array(t_uint256)dyn_storage"
      },
      "t_mapping(t_address,t_uint256)": {
        "encoding": "mapping",
        "key": "t_address",
        "label": "mapping(address => uint256)",
        "numberOfBytes": "32",
        "value": "t_uint256"
      },
      "t_mapping(t_uint256,t_int64)": {
        "encoding": "mapping",
        "key": "t_uint256",
        "label": "mapping(uint256 => int64)",
        "numberOfBytes": "32",
        "value": "t_int64"
      },
      "t_mapping(t_uint256,t_struct(Order)663_storage)": {
        "encoding": "mapping",
        "key": "t_uint256",
        "label": "mapping(uint256 => struct PerpMock.Order)",
        "numberOfBytes": "32",
        "value": "t_struct(Order)663_storage"
      },
      "t_struct(Order)663_storage": {
        "encoding": "inplace",
        "label": "struct PerpMock.Order",
        "members": [
          {
            "astId": 652,
            "contract": "contracts/PerpMock.sol:PerpMock",
            "label": "timestamp",
            "offset": 0,
            "slot": "0",
            "type": "t_uint256"
          },
          {
            "astId": 654,
            "contract": "contracts/PerpMock.sol:PerpMock",
            "label": "amount",
            "offset": 0,
            "slot": "1",
            "type": "t_uint256"
          },
          {
            "astId": 656,
            "contract": "contracts/PerpMock.sol:PerpMock",
            "label": "price",
            "offset": 0,
            "slot": "2",
            "type": "t_int64"
          },
          {
            "astId": 658,
            "contract": "contracts/PerpMock.sol:PerpMock",
            "label": "publishTime",
            "offset": 0,
            "slot": "3",
            "type": "t_uint256"
          },
          {
            "astId": 660,
            "contract": "contracts/PerpMock.sol:PerpMock",
            "label": "above",
            "offset": 0,
            "slot": "4",
            "type": "t_bool"
          },
          {
            "astId": 662,
            "contract": "contracts/PerpMock.sol:PerpMock",
            "label": "leverage",
            "offset": 0,
            "slot": "5",
            "type": "t_uint256"
          }
        ],
        "numberOfBytes": "192"
      },
      "t_uint256": {
        "encoding": "inplace",
        "label": "uint256",
        "numberOfBytes": "32"
      }
    }
  }
}