{
  "address": "0x0542F269C737bDe9e2d1883FaF0eC2F3D51e5B95",
  "abi": [
    {
      "inputs": [
        {
          "internalType": "address",
          "name": "_gelatoMsgSender",
          "type": "address"
        },
        {
          "internalType": "address",
          "name": "pythContract",
          "type": "address"
        },
        {
          "internalType": "address",
          "name": "_trustedForwarder",
          "type": "address"
        }
      ],
      "stateMutability": "nonpayable",
      "type": "constructor"
    },
    {
      "anonymous": false,
      "inputs": [
        {
          "indexed": true,
          "internalType": "address",
          "name": "previousOwner",
          "type": "address"
        },
        {
          "indexed": true,
          "internalType": "address",
          "name": "newOwner",
          "type": "address"
        }
      ],
      "name": "OwnershipTransferred",
      "type": "event"
    },
    {
      "anonymous": false,
      "inputs": [
        {
          "indexed": false,
          "internalType": "address",
          "name": "account",
          "type": "address"
        }
      ],
      "name": "Paused",
      "type": "event"
    },
    {
      "anonymous": false,
      "inputs": [
        {
          "indexed": false,
          "internalType": "address",
          "name": "account",
          "type": "address"
        }
      ],
      "name": "Unpaused",
      "type": "event"
    },
    {
      "anonymous": false,
      "inputs": [
        {
          "indexed": false,
          "internalType": "address",
          "name": "user",
          "type": "address"
        },
        {
          "indexed": false,
          "internalType": "uint256",
          "name": "orderId",
          "type": "uint256"
        }
      ],
      "name": "executeConditionalOrder",
      "type": "event"
    },
    {
      "anonymous": false,
      "inputs": [
        {
          "indexed": false,
          "internalType": "address",
          "name": "user",
          "type": "address"
        },
        {
          "indexed": false,
          "internalType": "uint256",
          "name": "orderId",
          "type": "uint256"
        }
      ],
      "name": "executeLiquidateOrder",
      "type": "event"
    },
    {
      "anonymous": false,
      "inputs": [
        {
          "indexed": false,
          "internalType": "uint256",
          "name": "timestamp",
          "type": "uint256"
        },
        {
          "indexed": false,
          "internalType": "uint256",
          "name": "orderId",
          "type": "uint256"
        },
        {
          "indexed": false,
          "internalType": "uint256",
          "name": "amount",
          "type": "uint256"
        },
        {
          "indexed": false,
          "internalType": "uint256",
          "name": "leverage",
          "type": "uint256"
        },
        {
          "indexed": false,
          "internalType": "int64",
          "name": "price",
          "type": "int64"
        },
        {
          "indexed": false,
          "internalType": "int64",
          "name": "tokens",
          "type": "int64"
        }
      ],
      "name": "marginTradeEvent",
      "type": "event"
    },
    {
      "anonymous": false,
      "inputs": [
        {
          "indexed": false,
          "internalType": "uint256",
          "name": "timestamp",
          "type": "uint256"
        },
        {
          "indexed": false,
          "internalType": "uint256",
          "name": "orderId",
          "type": "uint256"
        },
        {
          "indexed": false,
          "internalType": "int64",
          "name": "price",
          "type": "int64"
        },
        {
          "indexed": false,
          "internalType": "bool",
          "name": "above",
          "type": "bool"
        }
      ],
      "name": "setConditionalOrderEvent",
      "type": "event"
    },
    {
      "anonymous": false,
      "inputs": [
        {
          "indexed": false,
          "internalType": "uint256",
          "name": "timestamp",
          "type": "uint256"
        },
        {
          "indexed": false,
          "internalType": "uint256",
          "name": "orderId",
          "type": "uint256"
        }
      ],
      "name": "setOrderEvent",
      "type": "event"
    },
    {
      "anonymous": false,
      "inputs": [
        {
          "indexed": false,
          "internalType": "address",
          "name": "user",
          "type": "address"
        },
        {
          "indexed": false,
          "internalType": "uint256",
          "name": "orderId",
          "type": "uint256"
        }
      ],
      "name": "settleOrderEvent",
      "type": "event"
    },
    {
      "anonymous": false,
      "inputs": [
        {
          "indexed": false,
          "internalType": "uint256",
          "name": "orderId",
          "type": "uint256"
        },
        {
          "indexed": false,
          "internalType": "uint256",
          "name": "amount",
          "type": "uint256"
        },
        {
          "indexed": false,
          "internalType": "bool",
          "name": "add",
          "type": "bool"
        }
      ],
      "name": "updateCollateralEvent",
      "type": "event"
    },
    {
      "inputs": [],
      "name": "conditionalOrderId",
      "outputs": [
        {
          "internalType": "uint256",
          "name": "",
          "type": "uint256"
        }
      ],
      "stateMutability": "view",
      "type": "function"
    },
    {
      "inputs": [
        {
          "internalType": "uint256",
          "name": "",
          "type": "uint256"
        }
      ],
      "name": "conditionalOrdersByOrderId",
      "outputs": [
        {
          "internalType": "address",
          "name": "user",
          "type": "address"
        },
        {
          "internalType": "uint256",
          "name": "timestamp",
          "type": "uint256"
        },
        {
          "internalType": "uint256",
          "name": "amount",
          "type": "uint256"
        },
        {
          "internalType": "int64",
          "name": "price",
          "type": "int64"
        },
        {
          "internalType": "uint256",
          "name": "publishTime",
          "type": "uint256"
        },
        {
          "internalType": "bool",
          "name": "above",
          "type": "bool"
        },
        {
          "internalType": "uint256",
          "name": "leverage",
          "type": "uint256"
        },
        {
          "internalType": "int64",
          "name": "priceSettled",
          "type": "int64"
        },
        {
          "internalType": "int64",
          "name": "tokens",
          "type": "int64"
        },
        {
          "internalType": "bool",
          "name": "active",
          "type": "bool"
        }
      ],
      "stateMutability": "view",
      "type": "function"
    },
    {
      "inputs": [
        {
          "internalType": "address",
          "name": "",
          "type": "address"
        },
        {
          "internalType": "uint256",
          "name": "",
          "type": "uint256"
        }
      ],
      "name": "conditionalOrdersByUser",
      "outputs": [
        {
          "internalType": "uint256",
          "name": "",
          "type": "uint256"
        }
      ],
      "stateMutability": "view",
      "type": "function"
    },
    {
      "inputs": [],
      "name": "gelatoMsgSender",
      "outputs": [
        {
          "internalType": "address",
          "name": "",
          "type": "address"
        }
      ],
      "stateMutability": "view",
      "type": "function"
    },
    {
      "inputs": [
        {
          "internalType": "uint256",
          "name": "_order",
          "type": "uint256"
        }
      ],
      "name": "getConditionalOrder",
      "outputs": [
        {
          "components": [
            {
              "internalType": "address",
              "name": "user",
              "type": "address"
            },
            {
              "internalType": "uint256",
              "name": "timestamp",
              "type": "uint256"
            },
            {
              "internalType": "uint256",
              "name": "amount",
              "type": "uint256"
            },
            {
              "internalType": "int64",
              "name": "price",
              "type": "int64"
            },
            {
              "internalType": "uint256",
              "name": "publishTime",
              "type": "uint256"
            },
            {
              "internalType": "bool",
              "name": "above",
              "type": "bool"
            },
            {
              "internalType": "uint256",
              "name": "leverage",
              "type": "uint256"
            },
            {
              "internalType": "int64",
              "name": "priceSettled",
              "type": "int64"
            },
            {
              "internalType": "int64",
              "name": "tokens",
              "type": "int64"
            },
            {
              "internalType": "bool",
              "name": "active",
              "type": "bool"
            }
          ],
          "internalType": "struct PerpMock.Order",
          "name": "",
          "type": "tuple"
        }
      ],
      "stateMutability": "view",
      "type": "function"
    },
    {
      "inputs": [
        {
          "internalType": "uint256",
          "name": "_order",
          "type": "uint256"
        }
      ],
      "name": "getMarginTrade",
      "outputs": [
        {
          "components": [
            {
              "internalType": "address",
              "name": "user",
              "type": "address"
            },
            {
              "internalType": "uint256",
              "name": "timestamp",
              "type": "uint256"
            },
            {
              "internalType": "uint256",
              "name": "amount",
              "type": "uint256"
            },
            {
              "internalType": "int64",
              "name": "price",
              "type": "int64"
            },
            {
              "internalType": "uint256",
              "name": "publishTime",
              "type": "uint256"
            },
            {
              "internalType": "bool",
              "name": "above",
              "type": "bool"
            },
            {
              "internalType": "uint256",
              "name": "leverage",
              "type": "uint256"
            },
            {
              "internalType": "int64",
              "name": "priceSettled",
              "type": "int64"
            },
            {
              "internalType": "int64",
              "name": "tokens",
              "type": "int64"
            },
            {
              "internalType": "bool",
              "name": "active",
              "type": "bool"
            }
          ],
          "internalType": "struct PerpMock.Order",
          "name": "",
          "type": "tuple"
        }
      ],
      "stateMutability": "view",
      "type": "function"
    },
    {
      "inputs": [
        {
          "internalType": "uint256",
          "name": "_order",
          "type": "uint256"
        }
      ],
      "name": "getOrder",
      "outputs": [
        {
          "components": [
            {
              "internalType": "address",
              "name": "user",
              "type": "address"
            },
            {
              "internalType": "uint256",
              "name": "timestamp",
              "type": "uint256"
            },
            {
              "internalType": "uint256",
              "name": "amount",
              "type": "uint256"
            },
            {
              "internalType": "int64",
              "name": "price",
              "type": "int64"
            },
            {
              "internalType": "uint256",
              "name": "publishTime",
              "type": "uint256"
            },
            {
              "internalType": "bool",
              "name": "above",
              "type": "bool"
            },
            {
              "internalType": "uint256",
              "name": "leverage",
              "type": "uint256"
            },
            {
              "internalType": "int64",
              "name": "priceSettled",
              "type": "int64"
            },
            {
              "internalType": "int64",
              "name": "tokens",
              "type": "int64"
            },
            {
              "internalType": "bool",
              "name": "active",
              "type": "bool"
            }
          ],
          "internalType": "struct PerpMock.Order",
          "name": "",
          "type": "tuple"
        }
      ],
      "stateMutability": "view",
      "type": "function"
    },
    {
      "inputs": [
        {
          "internalType": "address",
          "name": "forwarder",
          "type": "address"
        }
      ],
      "name": "isTrustedForwarder",
      "outputs": [
        {
          "internalType": "bool",
          "name": "",
          "type": "bool"
        }
      ],
      "stateMutability": "view",
      "type": "function"
    },
    {
      "inputs": [
        {
          "internalType": "uint256[]",
          "name": "_tradesLiquidated",
          "type": "uint256[]"
        },
        {
          "internalType": "uint256",
          "name": "_timestamp",
          "type": "uint256"
        },
        {
          "internalType": "int64",
          "name": "_priceSettled",
          "type": "int64"
        }
      ],
      "name": "liquidate",
      "outputs": [],
      "stateMutability": "nonpayable",
      "type": "function"
    },
    {
      "inputs": [
        {
          "internalType": "uint256",
          "name": "_leverage",
          "type": "uint256"
        },
        {
          "internalType": "uint256",
          "name": "_amount",
          "type": "uint256"
        },
        {
          "internalType": "int64",
          "name": "_price",
          "type": "int64"
        }
      ],
      "name": "marginTrade",
      "outputs": [],
      "stateMutability": "nonpayable",
      "type": "function"
    },
    {
      "inputs": [],
      "name": "marginTradeId",
      "outputs": [
        {
          "internalType": "uint256",
          "name": "",
          "type": "uint256"
        }
      ],
      "stateMutability": "view",
      "type": "function"
    },
    {
      "inputs": [
        {
          "internalType": "address",
          "name": "",
          "type": "address"
        }
      ],
      "name": "marginTradeIdByUser",
      "outputs": [
        {
          "internalType": "uint256",
          "name": "",
          "type": "uint256"
        }
      ],
      "stateMutability": "view",
      "type": "function"
    },
    {
      "inputs": [
        {
          "internalType": "uint256",
          "name": "",
          "type": "uint256"
        }
      ],
      "name": "marginTradesByOrderId",
      "outputs": [
        {
          "internalType": "address",
          "name": "user",
          "type": "address"
        },
        {
          "internalType": "uint256",
          "name": "timestamp",
          "type": "uint256"
        },
        {
          "internalType": "uint256",
          "name": "amount",
          "type": "uint256"
        },
        {
          "internalType": "int64",
          "name": "price",
          "type": "int64"
        },
        {
          "internalType": "uint256",
          "name": "publishTime",
          "type": "uint256"
        },
        {
          "internalType": "bool",
          "name": "above",
          "type": "bool"
        },
        {
          "internalType": "uint256",
          "name": "leverage",
          "type": "uint256"
        },
        {
          "internalType": "int64",
          "name": "priceSettled",
          "type": "int64"
        },
        {
          "internalType": "int64",
          "name": "tokens",
          "type": "int64"
        },
        {
          "internalType": "bool",
          "name": "active",
          "type": "bool"
        }
      ],
      "stateMutability": "view",
      "type": "function"
    },
    {
      "inputs": [
        {
          "internalType": "address",
          "name": "",
          "type": "address"
        }
      ],
      "name": "nrConditionalOrdersByUser",
      "outputs": [
        {
          "internalType": "uint256",
          "name": "",
          "type": "uint256"
        }
      ],
      "stateMutability": "view",
      "type": "function"
    },
    {
      "inputs": [
        {
          "internalType": "address",
          "name": "",
          "type": "address"
        }
      ],
      "name": "nrOrdersByUser",
      "outputs": [
        {
          "internalType": "uint256",
          "name": "",
          "type": "uint256"
        }
      ],
      "stateMutability": "view",
      "type": "function"
    },
    {
      "inputs": [],
      "name": "orderId",
      "outputs": [
        {
          "internalType": "uint256",
          "name": "",
          "type": "uint256"
        }
      ],
      "stateMutability": "view",
      "type": "function"
    },
    {
      "inputs": [
        {
          "internalType": "uint256",
          "name": "",
          "type": "uint256"
        }
      ],
      "name": "ordersByOrderId",
      "outputs": [
        {
          "internalType": "address",
          "name": "user",
          "type": "address"
        },
        {
          "internalType": "uint256",
          "name": "timestamp",
          "type": "uint256"
        },
        {
          "internalType": "uint256",
          "name": "amount",
          "type": "uint256"
        },
        {
          "internalType": "int64",
          "name": "price",
          "type": "int64"
        },
        {
          "internalType": "uint256",
          "name": "publishTime",
          "type": "uint256"
        },
        {
          "internalType": "bool",
          "name": "above",
          "type": "bool"
        },
        {
          "internalType": "uint256",
          "name": "leverage",
          "type": "uint256"
        },
        {
          "internalType": "int64",
          "name": "priceSettled",
          "type": "int64"
        },
        {
          "internalType": "int64",
          "name": "tokens",
          "type": "int64"
        },
        {
          "internalType": "bool",
          "name": "active",
          "type": "bool"
        }
      ],
      "stateMutability": "view",
      "type": "function"
    },
    {
      "inputs": [
        {
          "internalType": "address",
          "name": "",
          "type": "address"
        },
        {
          "internalType": "uint256",
          "name": "",
          "type": "uint256"
        }
      ],
      "name": "ordersByUser",
      "outputs": [
        {
          "internalType": "uint256",
          "name": "",
          "type": "uint256"
        }
      ],
      "stateMutability": "view",
      "type": "function"
    },
    {
      "inputs": [],
      "name": "owner",
      "outputs": [
        {
          "internalType": "address",
          "name": "",
          "type": "address"
        }
      ],
      "stateMutability": "view",
      "type": "function"
    },
    {
      "inputs": [],
      "name": "pause",
      "outputs": [],
      "stateMutability": "nonpayable",
      "type": "function"
    },
    {
      "inputs": [],
      "name": "paused",
      "outputs": [
        {
          "internalType": "bool",
          "name": "",
          "type": "bool"
        }
      ],
      "stateMutability": "view",
      "type": "function"
    },
    {
      "inputs": [],
      "name": "renounceOwnership",
      "outputs": [],
      "stateMutability": "nonpayable",
      "type": "function"
    },
    {
      "inputs": [
        {
          "internalType": "uint256",
          "name": "_amount",
          "type": "uint256"
        },
        {
          "internalType": "int64",
          "name": "_price",
          "type": "int64"
        },
        {
          "internalType": "bool",
          "name": "_above",
          "type": "bool"
        }
      ],
      "name": "setConditionalOrder",
      "outputs": [],
      "stateMutability": "nonpayable",
      "type": "function"
    },
    {
      "inputs": [
        {
          "internalType": "uint256",
          "name": "_amount",
          "type": "uint256"
        }
      ],
      "name": "setOrder",
      "outputs": [],
      "stateMutability": "nonpayable",
      "type": "function"
    },
    {
      "inputs": [
        {
          "internalType": "address",
          "name": "newOwner",
          "type": "address"
        }
      ],
      "name": "transferOwnership",
      "outputs": [],
      "stateMutability": "nonpayable",
      "type": "function"
    },
    {
      "inputs": [],
      "name": "unpause",
      "outputs": [],
      "stateMutability": "nonpayable",
      "type": "function"
    },
    {
      "inputs": [
        {
          "internalType": "uint256",
          "name": "_orderId",
          "type": "uint256"
        },
        {
          "internalType": "uint256",
          "name": "_amount",
          "type": "uint256"
        },
        {
          "internalType": "bool",
          "name": "_add",
          "type": "bool"
        }
      ],
      "name": "updateCollateral",
      "outputs": [],
      "stateMutability": "nonpayable",
      "type": "function"
    },
    {
      "inputs": [
        {
          "internalType": "bytes[]",
          "name": "updatePriceData",
          "type": "bytes[]"
        },
        {
          "internalType": "uint256[]",
          "name": "_conditionalOrders",
          "type": "uint256[]"
        },
        {
          "internalType": "uint256",
          "name": "_timestamp",
          "type": "uint256"
        }
      ],
      "name": "updatePriceConditionalOrders",
      "outputs": [],
      "stateMutability": "nonpayable",
      "type": "function"
    },
    {
      "inputs": [
        {
          "internalType": "bytes[]",
          "name": "updatePriceData",
          "type": "bytes[]"
        },
        {
          "internalType": "uint256[]",
          "name": "_orders",
          "type": "uint256[]"
        },
        {
          "internalType": "uint256",
          "name": "_timestamp",
          "type": "uint256"
        }
      ],
      "name": "updatePriceOrders",
      "outputs": [],
      "stateMutability": "nonpayable",
      "type": "function"
    },
    {
      "inputs": [],
      "name": "withdraw",
      "outputs": [
        {
          "internalType": "bool",
          "name": "",
          "type": "bool"
        }
      ],
      "stateMutability": "nonpayable",
      "type": "function"
    },
    {
      "stateMutability": "payable",
      "type": "receive"
    }
  ],
  "transactionHash": "0x90c0d1c0fdbef8ffc87b847afdda91d766dfdbbd688a9f9690dd2e729db00cc9",
  "args": [
    "0xbB97656cd5fECe3a643335d03C8919D5E7DcD225",
    "0xff1a0f4744e8582DF1aE09D5611b887B6a12925C",
    "0x5B91C8E7a2DEABC623E6Ab34E8c26F27Cc18bC66"
  ],
  "numDeployments": 2,
  "solcInputHash": "b3f214b78f0a3ad6f2bedd42be4d6b29",
  "bytecode": "0x60c06040523480156200001157600080fd5b506040516200249838038062002498833981016040819052620000349162000143565b6001600160a01b0381166080526000805460ff191690556200005f6200005962000089565b620000a5565b506001600160a01b0391821660a052600180546001600160a01b031916919092161790556200018d565b6000620000a0620000fe60201b620017981760201c565b905090565b600080546001600160a01b03838116610100818102610100600160a81b0319851617855560405193049190911692909183917f8be0079c531659141344cd1fd0a4f28419497f9722a3daafe3b4186f6b6457e091a35050565b6080516000906001600160a01b0316330362000121575060131936013560601c90565b503390565b80516001600160a01b03811681146200013e57600080fd5b919050565b6000806000606084860312156200015957600080fd5b620001648462000126565b9250620001746020850162000126565b9150620001846040850162000126565b90509250925092565b60805160a0516122c9620001cf600039600081816105f2015281816108eb01528181610a8101526113cb0152600081816103ab015261179c01526122c96000f3fe6080604052600436106101d15760003560e01c80637a3174a7116100f7578063c57bf9ad11610095578063d800a4dd11610064578063d800a4dd14610708578063ef4532cf14610735578063f2fde38b14610755578063fe3d33ce1461077557600080fd5b8063c57bf9ad14610614578063c7647ff71461069b578063cdf8972e146106c8578063d09ef241146106e857600080fd5b80638456cb59116100d15780638456cb59146105675780638da5cb5b1461057c578063a1df8f5c146105b3578063c5443082146105e057600080fd5b80637a3174a7146105075780637c86f4341461052757806382c03cce1461054757600080fd5b8063572b6c051161016f578063715018a61161013e578063715018a61461042957806373729d051461043e57806377197d271461045e57806378959dbc146104e757600080fd5b8063572b6c051461038e578063574b0731146103db5780635c975abb146103fb57806365d4a9671461041357600080fd5b806332496c7c116101ab57806332496c7c146102575780633ccfd60b1461033c5780633f4ba83a146103615780634c2eefb41461037857600080fd5b806310cfa97f146101dd578063163de5e5146102135780631e9358511461023757600080fd5b366101d857005b600080fd5b3480156101e957600080fd5b506101fd6101f8366004611c08565b610795565b60405161020a9190611c21565b60405180910390f35b34801561021f57600080fd5b5061022960035481565b60405190815260200161020a565b34801561024357600080fd5b50610229610252366004611cdd565b610843565b34801561026357600080fd5b506102de610272366004611c08565b600c60205260009081526040902080546001820154600283015460038401546004850154600586015460068701546007978801546001600160a01b03909716979596949593840b94929360ff92831693919282820b92600160401b810490920b91600160801b9004168a565b604080516001600160a01b03909b168b5260208b019990995297890196909652600794850b6060890152608088019390935290151560a087015260c0860152810b60e08501520b61010083015215156101208201526101400161020a565b34801561034857600080fd5b50610351610874565b604051901515815260200161020a565b34801561036d57600080fd5b506103766108ce565b005b34801561038457600080fd5b5061022960075481565b34801561039a57600080fd5b506103516103a9366004611d07565b7f00000000000000000000000000000000000000000000000000000000000000006001600160a01b0390811691161490565b3480156103e757600080fd5b506103766103f6366004611dff565b6108e0565b34801561040757600080fd5b5060005460ff16610351565b34801561041f57600080fd5b50610229600b5481565b34801561043557600080fd5b50610376610a48565b34801561044a57600080fd5b50610229610459366004611cdd565b610a5a565b34801561046a57600080fd5b506102de610479366004611c08565b6004602081905260009182526040909120805460018201546002830154600384015494840154600585015460068601546007968701546001600160a01b03909616979496939594840b94929360ff92831693919282820b92600160401b810490920b91600160801b9004168a565b3480156104f357600080fd5b50610376610502366004611f40565b610a76565b34801561051357600080fd5b50610376610522366004611fab565b610bbd565b34801561053357600080fd5b50610376610542366004611c08565b610d24565b34801561055357600080fd5b50610376610562366004611fe0565b610f19565b34801561057357600080fd5b50610376611254565b34801561058857600080fd5b5060005461010090046001600160a01b03165b6040516001600160a01b03909116815260200161020a565b3480156105bf57600080fd5b506102296105ce366004611d07565b600d6020526000908152604090205481565b3480156105ec57600080fd5b5061059b7f000000000000000000000000000000000000000000000000000000000000000081565b34801561062057600080fd5b506102de61062f366004611c08565b600860205260009081526040902080546001820154600283015460038401546004850154600586015460068701546007978801546001600160a01b03909716979596949593840b94929360ff92831693919282820b92600160401b810490920b91600160801b9004168a565b3480156106a757600080fd5b506102296106b6366004611d07565b60066020526000908152604090205481565b3480156106d457600080fd5b506101fd6106e3366004611c08565b611264565b3480156106f457600080fd5b506101fd610703366004611c08565b611312565b34801561071457600080fd5b50610229610723366004611d07565b600a6020526000908152604090205481565b34801561074157600080fd5b50610376610750366004611dff565b6113c0565b34801561076157600080fd5b50610376610770366004611d07565b611518565b34801561078157600080fd5b5061037661079036600461200e565b611591565b61079d611bb4565b506000908152600c602090815260409182902082516101408101845281546001600160a01b031681526001820154928101929092526002810154928201929092526003820154600790810b606083015260048301546080830152600583015460ff908116151560a0840152600684015460c08401529281015480820b60e0840152600160401b810490910b610100830152600160801b9004909116151561012082015290565b6005602052816000526040600020818154811061085f57600080fd5b90600052602060002001600091509150505481565b600061087e6117dc565b604051600090339047908381818185875af1925050503d80600081146108c0576040519150601f19603f3d011682016040523d82523d6000602084013e6108c5565b606091505b50909250505090565b6108d66117dc565b6108de61185b565b565b336001600160a01b037f000000000000000000000000000000000000000000000000000000000000000016146109315760405162461bcd60e51b815260040161092890612043565b60405180910390fd5b600061093d84836118b3565b905060005b8351811015610a415760006004600086848151811061096357610963612078565b602090810291909101810151825281019190915260400160002083516007820180546060870151600485015570ff0000000000000000ffffffffffffffff191667ffffffffffffffff909216919091179055805486519192507fccd3be7a71c0db83ae7270007ddc655ac0872f3c8122af7f9b58ba74408950df916001600160a01b03909116908790859081106109fc576109fc612078565b6020026020010151604051610a269291906001600160a01b03929092168252602082015260400190565b60405180910390a15080610a39816120a4565b915050610942565b5050505050565b610a506117dc565b6108de6000611a7f565b6009602052816000526040600020818154811061085f57600080fd5b336001600160a01b037f00000000000000000000000000000000000000000000000000000000000000001614610abe5760405162461bcd60e51b815260040161092890612043565b60005b8351811015610bb7576000600c6000868481518110610ae257610ae2612078565b60209081029190910181015182528101919091526040016000206007810180546004830187905570ff0000000000000000ffffffffffffffff191667ffffffffffffffff8616179055805486519192507f4c5553db85d7bfef7a6d0eaf4081b48180d894da946d898a43bcf895606c85d0916001600160a01b0390911690879085908110610b7257610b72612078565b6020026020010151604051610b9c9291906001600160a01b03929092168252602082015260400190565b60405180910390a15080610baf816120a4565b915050610ac1565b50505050565b6000838152600c60205260408120600601549003610c0f5760405162461bcd60e51b815260206004820152600f60248201526e4e6f204d617267696e20547261646560881b6044820152606401610928565b8015610c41576000838152600c602052604081206002018054849290610c369084906120bd565b90915550610cd99050565b6000838152600c60205260409020600201548210610cb25760405162461bcd60e51b815260206004820152602860248201527f52656d6f76696e6720636f6c61746572616c20686967686572207468616e20616044820152677661696c61626c6560c01b6064820152608401610928565b6000838152600c602052604081206002018054849290610cd39084906120d0565b90915550505b6040805184815260208101849052821515918101919091527fee8643e67c24622cc9a839eafd837adc5c08d4354a70257db45b3cb2bde00eeb906060015b60405180910390a1505050565b600160036000828254610d3791906120bd565b9091555050604080516101408101825233815242602080830191825282840185815260006060850181815260808601828152600160a0880181815260c0890185815260e08a018681526101008b018781526101208c01858152600380548a5260049b8c90529d89209c518d546001600160a01b0319166001600160a01b03909116178d559a51948c0194909455965160028b01559351998901805467ffffffffffffffff191667ffffffffffffffff9b8c16179055915195880195909555516005808801805460ff19169215159290921790915590516006870155915160079095018054935194519587166001600160801b031990941693909317600160401b94909616939093029490941760ff60801b1916600160801b9315159390930292909217909155610e65611ad8565b6001600160a01b03168152602080820192909252604001600090812060035481546001818101845592845293832090930192909255600690610ea5611ad8565b6001600160a01b03166001600160a01b031681526020019081526020016000206000828254610ed491906120bd565b90915550506003546040805142815260208101929092527f6f34c3f094460b0585979f759a118a66b36a8e39a5fad428401bededa66b4d4a910160405180910390a150565b60008211610f5b5760405162461bcd60e51b815260206004820152600f60248201526e416d6f756e7420506f73697469766560881b6044820152606401610928565b60008311610f9f5760405162461bcd60e51b81526020600482015260116024820152704c6576657261676520506f73697469766560781b6044820152606401610928565b60008160070b13610fe35760405162461bcd60e51b815260206004820152600e60248201526d507269636520506f73697469766560901b6044820152606401610928565b600c6000600d6000610ff3611ad8565b6001600160a01b0316815260208082019290925260409081016000908120548452918301939093529101902060070154600160801b900460ff161561106f5760405162461bcd60e51b8152602060048201526012602482015271416c726561647920696e206120747261646560701b6044820152606401610928565b6001600b600082825461108291906120bd565b90915550600090508161109a8464e8d4a510006120e3565b6110a4919061210a565b6040805161014081018252338152426020808301918252828401888152600788810b6060860190815260006080870181815260a0880182815260c089018f815260e08a018481528c870b6101008c0190815260016101208d01818152600b80548952600c909c529d87209c518d546001600160a01b0319166001600160a01b03909116178d559a519a8c019a909a55965160028b0155935160038a01805467ffffffffffffffff191667ffffffffffffffff928316179055915160048a01555160058901805460ff1916911515919091179055915160068801559251959091018054945196519582166001600160801b031990951694909417600160401b96909116959095029490941760ff60801b1916600160801b9315159390930292909217905554919250600d906111d6611ad8565b6001600160a01b03168152602080820192909252604090810160002092909255600b5482514281529182015290810184905260608101859052600783810b608083015282900b60a08201527f25b0402b3a62a8bdf506198467bb8414d799dd285d94f74ebfe452424a9225149060c00160405180910390a150505050565b61125c6117dc565b6108de611ae7565b61126c611bb4565b5060009081526008602090815260409182902082516101408101845281546001600160a01b031681526001820154928101929092526002810154928201929092526003820154600790810b606083015260048301546080830152600583015460ff908116151560a0840152600684015460c08401529281015480820b60e0840152600160401b810490910b610100830152600160801b9004909116151561012082015290565b61131a611bb4565b5060009081526004602081815260409283902083516101408101855281546001600160a01b031681526001820154928101929092526002810154938201939093526003830154600790810b6060830152918301546080820152600583015460ff908116151560a0830152600684015460c08301529282015480830b60e0830152600160401b810490920b610100820152600160801b909104909116151561012082015290565b336001600160a01b037f000000000000000000000000000000000000000000000000000000000000000016146114085760405162461bcd60e51b815260040161092890612043565b600061141484836118b3565b905060005b8351811015610a415760006008600086848151811061143a5761143a612078565b602090810291909101810151825281019190915260400160002083516007820180546060870151600485015570ff0000000000000000ffffffffffffffff191667ffffffffffffffff909216919091179055805486519192507f2360db32a732a7141ac8d4af80c636d039637abf0b002cc5319489cbf181e73e916001600160a01b03909116908790859081106114d3576114d3612078565b60200260200101516040516114fd9291906001600160a01b03929092168252602082015260400190565b60405180910390a15080611510816120a4565b915050611419565b6115206117dc565b6001600160a01b0381166115855760405162461bcd60e51b815260206004820152602660248201527f4f776e61626c653a206e6577206f776e657220697320746865207a65726f206160448201526564647265737360d01b6064820152608401610928565b61158e81611a7f565b50565b6001600760008282546115a491906120bd565b90915550506040805161014081018252338152426020808301918252828401878152600787810b6060860190815260006080870181815289151560a0890190815260c0890183815260e08a018481526101008b0185815260016101208d01818152895488526008909b529c86209b518c546001600160a01b0319166001600160a01b03909116178c5599519b8b019b909b55955160028a0155925160038901805467ffffffffffffffff191667ffffffffffffffff92831617905590516004890155915160058801805460ff191691151591909117905592516006870155955194018054935192519486166001600160801b031990941693909317600160401b92909516919091029390931760ff60801b1916600160801b921515929092029190911790556009906116d4611ad8565b6001600160a01b03168152602080820192909252604001600090812060075481546001818101845592845293832090930192909255600a90611714611ad8565b6001600160a01b03166001600160a01b03168152602001908152602001600020600082825461174391906120bd565b9091555050600780546040805142815260208101929092529184900b9181019190915281151560608201527f57ecd4ae95df1a2ea1ef0da13a09120359b9c5ffcce6e56eda3ab0d2cabf1c6d90608001610d17565b60007f00000000000000000000000000000000000000000000000000000000000000006001600160a01b031633036117d7575060131936013560601c90565b503390565b6117e4611ad8565b6001600160a01b03166118056000546001600160a01b036101009091041690565b6001600160a01b0316146108de5760405162461bcd60e51b815260206004820181905260248201527f4f776e61626c653a2063616c6c6572206973206e6f7420746865206f776e65726044820152606401610928565b611863611b25565b6000805460ff191690557f5db9ee0a495bf2e6ff9c91a7834c1ba4fdd244a5e8aa4e537bd38aeae4b073aa611896611ad8565b6040516001600160a01b03909116815260200160405180910390a1565b60408051608081018252600080825260208201819052918101829052606081019190915260008281526002602052604090205460070b1561190e576060810182905260008281526002602052604090205460070b8152611a79565b60015460405163d47eed4560e01b81526000916001600160a01b03169063d47eed459061193f908790600401612157565b602060405180830381865afa15801561195c573d6000803e3d6000fd5b505050506040513d601f19601f8201168201806040525081019061198091906121e9565b600154604051631df3cbc560e31b81529192506001600160a01b03169063ef9e5e289083906119b3908890600401612157565b6000604051808303818588803b1580156119cc57600080fd5b505af11580156119e0573d6000803e3d6000fd5b50506001546040516396834ad360e01b81527fca80ba6dc32e08d06f1aa886011eed1d77c77be9eb761cc10d72b7d0a2fd57a66004820181905294506001600160a01b0390911692506396834ad39150602401608060405180830381865afa158015611a50573d6000803e3d6000fd5b505050506040513d601f19601f82011682018060405250810190611a749190612202565b925050505b92915050565b600080546001600160a01b03838116610100818102610100600160a81b0319851617855560405193049190911692909183917f8be0079c531659141344cd1fd0a4f28419497f9722a3daafe3b4186f6b6457e091a35050565b6000611ae2611798565b905090565b611aef611b6e565b6000805460ff191660011790557f62e78cea01bee320cd4e420270b5ea74000d11b0c9f74754ebdbfc544b05a258611896611ad8565b60005460ff166108de5760405162461bcd60e51b815260206004820152601460248201527314185d5cd8589b194e881b9bdd081c185d5cd95960621b6044820152606401610928565b60005460ff16156108de5760405162461bcd60e51b815260206004820152601060248201526f14185d5cd8589b194e881c185d5cd95960821b6044820152606401610928565b6040805161014081018252600080825260208201819052918101829052606081018290526080810182905260a0810182905260c0810182905260e08101829052610100810182905261012081019190915290565b600060208284031215611c1a57600080fd5b5035919050565b81516001600160a01b03168152610140810160208301516020830152604083015160408301526060830151611c5b606084018260070b9052565b506080830151608083015260a0830151611c7960a084018215159052565b5060c083015160c083015260e0830151611c9860e084018260070b9052565b5061010080840151611cae8285018260070b9052565b5050610120928301511515919092015290565b80356001600160a01b0381168114611cd857600080fd5b919050565b60008060408385031215611cf057600080fd5b611cf983611cc1565b946020939093013593505050565b600060208284031215611d1957600080fd5b611d2282611cc1565b9392505050565b634e487b7160e01b600052604160045260246000fd5b604051601f8201601f1916810167ffffffffffffffff81118282101715611d6857611d68611d29565b604052919050565b600067ffffffffffffffff821115611d8a57611d8a611d29565b5060051b60200190565b600082601f830112611da557600080fd5b81356020611dba611db583611d70565b611d3f565b82815260059290921b84018101918181019086841115611dd957600080fd5b8286015b84811015611df45780358352918301918301611ddd565b509695505050505050565b600080600060608486031215611e1457600080fd5b833567ffffffffffffffff80821115611e2c57600080fd5b818601915086601f830112611e4057600080fd5b81356020611e50611db583611d70565b82815260059290921b8401810191818101908a841115611e6f57600080fd5b8286015b84811015611efc57803586811115611e8b5760008081fd5b8701603f81018d13611e9d5760008081fd5b84810135604088821115611eb357611eb3611d29565b611ec5601f8301601f19168801611d3f565b8281528f82848601011115611eda5760008081fd5b8282850189830137600092810188019290925250845250918301918301611e73565b5097505087013592505080821115611f1357600080fd5b50611f2086828701611d94565b925050604084013590509250925092565b8060070b811461158e57600080fd5b600080600060608486031215611f5557600080fd5b833567ffffffffffffffff811115611f6c57600080fd5b611f7886828701611d94565b935050602084013591506040840135611f9081611f31565b809150509250925092565b80358015158114611cd857600080fd5b600080600060608486031215611fc057600080fd5b8335925060208401359150611fd760408501611f9b565b90509250925092565b600080600060608486031215611ff557600080fd5b83359250602084013591506040840135611f9081611f31565b60008060006060848603121561202357600080fd5b83359250602084013561203581611f31565b9150611fd760408501611f9b565b6020808252818101527f4f6e6c79206465646963617465642067656c61746f206d73672e73656e646572604082015260600190565b634e487b7160e01b600052603260045260246000fd5b634e487b7160e01b600052601160045260246000fd5b6000600182016120b6576120b661208e565b5060010190565b80820180821115611a7957611a7961208e565b81810381811115611a7957611a7961208e565b60008260070b8260070b028060070b91508082146121035761210361208e565b5092915050565b60008160070b8360070b8061212f57634e487b7160e01b600052601260045260246000fd5b677fffffffffffffff1982146000198214161561214e5761214e61208e565b90059392505050565b6000602080830181845280855180835260408601915060408160051b87010192508387016000805b838110156121db57888603603f1901855282518051808852835b818110156121b4578281018a01518982018b01528901612199565b508781018901849052601f01601f191690960187019550938601939186019160010161217f565b509398975050505050505050565b6000602082840312156121fb57600080fd5b5051919050565b60006080828403121561221457600080fd5b6040516080810167ffffffffffffffff828210818311171561223857612238611d29565b816040528451915061224982611f31565b908252602084015190808216821461226057600080fd5b5060208201526040830151600381900b811461227b57600080fd5b6040820152606092830151928101929092525091905056fea2646970667358221220a636dd3ce8b19c17d64b9b0d35a5805f1133468befdeec7547f6f8aeace4903d64736f6c63430008120033",
  "devdoc": {
    "events": {
      "Paused(address)": {
        "details": "Emitted when the pause is triggered by `account`."
      },
      "Unpaused(address)": {
        "details": "Emitted when the pause is lifted by `account`."
      }
    },
    "kind": "dev",
    "methods": {
      "owner()": {
        "details": "Returns the address of the current owner."
      },
      "paused()": {
        "details": "Returns true if the contract is paused, and false otherwise."
      },
      "renounceOwnership()": {
        "details": "Leaves the contract without owner. It will not be possible to call `onlyOwner` functions. Can only be called by the current owner. NOTE: Renouncing ownership will leave the contract without an owner, thereby disabling any functionality that is only available to the owner."
      },
      "transferOwnership(address)": {
        "details": "Transfers ownership of the contract to a new account (`newOwner`). Can only be called by the current owner."
      }
    },
    "version": 1
  },
  "userdoc": {
    "kind": "user",
    "methods": {},
    "version": 1
  },
  "storageLayout": {
    "storage": [
      {
        "astId": 279,
        "contract": "contracts/PerpMock.sol:PerpMock",
        "label": "_paused",
        "offset": 0,
        "slot": "0",
        "type": "t_bool"
      },
      {
        "astId": 77,
        "contract": "contracts/PerpMock.sol:PerpMock",
        "label": "_owner",
        "offset": 1,
        "slot": "0",
        "type": "t_address"
      },
      {
        "astId": 674,
        "contract": "contracts/PerpMock.sol:PerpMock",
        "label": "_pyth",
        "offset": 0,
        "slot": "1",
        "type": "t_contract(IPyth)584"
      },
      {
        "astId": 678,
        "contract": "contracts/PerpMock.sol:PerpMock",
        "label": "priceByTimestamp",
        "offset": 0,
        "slot": "2",
        "type": "t_mapping(t_uint256,t_int64)"
      },
      {
        "astId": 680,
        "contract": "contracts/PerpMock.sol:PerpMock",
        "label": "orderId",
        "offset": 0,
        "slot": "3",
        "type": "t_uint256"
      },
      {
        "astId": 685,
        "contract": "contracts/PerpMock.sol:PerpMock",
        "label": "ordersByOrderId",
        "offset": 0,
        "slot": "4",
        "type": "t_mapping(t_uint256,t_struct(Order)671_storage)"
      },
      {
        "astId": 690,
        "contract": "contracts/PerpMock.sol:PerpMock",
        "label": "ordersByUser",
        "offset": 0,
        "slot": "5",
        "type": "t_mapping(t_address,t_array(t_uint256)dyn_storage)"
      },
      {
        "astId": 694,
        "contract": "contracts/PerpMock.sol:PerpMock",
        "label": "nrOrdersByUser",
        "offset": 0,
        "slot": "6",
        "type": "t_mapping(t_address,t_uint256)"
      },
      {
        "astId": 708,
        "contract": "contracts/PerpMock.sol:PerpMock",
        "label": "conditionalOrderId",
        "offset": 0,
        "slot": "7",
        "type": "t_uint256"
      },
      {
        "astId": 713,
        "contract": "contracts/PerpMock.sol:PerpMock",
        "label": "conditionalOrdersByOrderId",
        "offset": 0,
        "slot": "8",
        "type": "t_mapping(t_uint256,t_struct(Order)671_storage)"
      },
      {
        "astId": 718,
        "contract": "contracts/PerpMock.sol:PerpMock",
        "label": "conditionalOrdersByUser",
        "offset": 0,
        "slot": "9",
        "type": "t_mapping(t_address,t_array(t_uint256)dyn_storage)"
      },
      {
        "astId": 722,
        "contract": "contracts/PerpMock.sol:PerpMock",
        "label": "nrConditionalOrdersByUser",
        "offset": 0,
        "slot": "10",
        "type": "t_mapping(t_address,t_uint256)"
      },
      {
        "astId": 740,
        "contract": "contracts/PerpMock.sol:PerpMock",
        "label": "marginTradeId",
        "offset": 0,
        "slot": "11",
        "type": "t_uint256"
      },
      {
        "astId": 745,
        "contract": "contracts/PerpMock.sol:PerpMock",
        "label": "marginTradesByOrderId",
        "offset": 0,
        "slot": "12",
        "type": "t_mapping(t_uint256,t_struct(Order)671_storage)"
      },
      {
        "astId": 749,
        "contract": "contracts/PerpMock.sol:PerpMock",
        "label": "marginTradeIdByUser",
        "offset": 0,
        "slot": "13",
        "type": "t_mapping(t_address,t_uint256)"
      }
    ],
    "types": {
      "t_address": {
        "encoding": "inplace",
        "label": "address",
        "numberOfBytes": "20"
      },
      "t_array(t_uint256)dyn_storage": {
        "base": "t_uint256",
        "encoding": "dynamic_array",
        "label": "uint256[]",
        "numberOfBytes": "32"
      },
      "t_bool": {
        "encoding": "inplace",
        "label": "bool",
        "numberOfBytes": "1"
      },
      "t_contract(IPyth)584": {
        "encoding": "inplace",
        "label": "contract IPyth",
        "numberOfBytes": "20"
      },
      "t_int64": {
        "encoding": "inplace",
        "label": "int64",
        "numberOfBytes": "8"
      },
      "t_mapping(t_address,t_array(t_uint256)dyn_storage)": {
        "encoding": "mapping",
        "key": "t_address",
        "label": "mapping(address => uint256[])",
        "numberOfBytes": "32",
        "value": "t_array(t_uint256)dyn_storage"
      },
      "t_mapping(t_address,t_uint256)": {
        "encoding": "mapping",
        "key": "t_address",
        "label": "mapping(address => uint256)",
        "numberOfBytes": "32",
        "value": "t_uint256"
      },
      "t_mapping(t_uint256,t_int64)": {
        "encoding": "mapping",
        "key": "t_uint256",
        "label": "mapping(uint256 => int64)",
        "numberOfBytes": "32",
        "value": "t_int64"
      },
      "t_mapping(t_uint256,t_struct(Order)671_storage)": {
        "encoding": "mapping",
        "key": "t_uint256",
        "label": "mapping(uint256 => struct PerpMock.Order)",
        "numberOfBytes": "32",
        "value": "t_struct(Order)671_storage"
      },
      "t_struct(Order)671_storage": {
        "encoding": "inplace",
        "label": "struct PerpMock.Order",
        "members": [
          {
            "astId": 652,
            "contract": "contracts/PerpMock.sol:PerpMock",
            "label": "user",
            "offset": 0,
            "slot": "0",
            "type": "t_address"
          },
          {
            "astId": 654,
            "contract": "contracts/PerpMock.sol:PerpMock",
            "label": "timestamp",
            "offset": 0,
            "slot": "1",
            "type": "t_uint256"
          },
          {
            "astId": 656,
            "contract": "contracts/PerpMock.sol:PerpMock",
            "label": "amount",
            "offset": 0,
            "slot": "2",
            "type": "t_uint256"
          },
          {
            "astId": 658,
            "contract": "contracts/PerpMock.sol:PerpMock",
            "label": "price",
            "offset": 0,
            "slot": "3",
            "type": "t_int64"
          },
          {
            "astId": 660,
            "contract": "contracts/PerpMock.sol:PerpMock",
            "label": "publishTime",
            "offset": 0,
            "slot": "4",
            "type": "t_uint256"
          },
          {
            "astId": 662,
            "contract": "contracts/PerpMock.sol:PerpMock",
            "label": "above",
            "offset": 0,
            "slot": "5",
            "type": "t_bool"
          },
          {
            "astId": 664,
            "contract": "contracts/PerpMock.sol:PerpMock",
            "label": "leverage",
            "offset": 0,
            "slot": "6",
            "type": "t_uint256"
          },
          {
            "astId": 666,
            "contract": "contracts/PerpMock.sol:PerpMock",
            "label": "priceSettled",
            "offset": 0,
            "slot": "7",
            "type": "t_int64"
          },
          {
            "astId": 668,
            "contract": "contracts/PerpMock.sol:PerpMock",
            "label": "tokens",
            "offset": 8,
            "slot": "7",
            "type": "t_int64"
          },
          {
            "astId": 670,
            "contract": "contracts/PerpMock.sol:PerpMock",
            "label": "active",
            "offset": 16,
            "slot": "7",
            "type": "t_bool"
          }
        ],
        "numberOfBytes": "256"
      },
      "t_uint256": {
        "encoding": "inplace",
        "label": "uint256",
        "numberOfBytes": "32"
      }
    }
  }
}