{
  "address": "0x5B91C8E7a2DEABC623E6Ab34E8c26F27Cc18bC66",
  "abi": [
    {
      "inputs": [
        {
          "internalType": "address",
          "name": "_trustedForwarder",
          "type": "address"
        }
      ],
      "stateMutability": "nonpayable",
      "type": "constructor"
    },
    {
      "anonymous": false,
      "inputs": [
        {
          "indexed": false,
          "internalType": "bytes32",
          "name": "sessionKey",
          "type": "bytes32"
        }
      ],
      "name": "SetSession",
      "type": "event"
    },
    {
      "inputs": [
        {
          "internalType": "string",
          "name": "_sessionId",
          "type": "string"
        },
        {
          "internalType": "uint256",
          "name": "_duration",
          "type": "uint256"
        },
        {
          "internalType": "address",
          "name": "_tmpPublicKey",
          "type": "address"
        }
      ],
      "name": "createSession",
      "outputs": [],
      "stateMutability": "nonpayable",
      "type": "function"
    },
    {
      "inputs": [
        {
          "internalType": "address",
          "name": "_target",
          "type": "address"
        },
        {
          "internalType": "bytes",
          "name": "_data",
          "type": "bytes"
        },
        {
          "internalType": "uint256",
          "name": "_value",
          "type": "uint256"
        },
        {
          "internalType": "string",
          "name": "_sessionId",
          "type": "string"
        }
      ],
      "name": "executeCall",
      "outputs": [],
      "stateMutability": "nonpayable",
      "type": "function"
    },
    {
      "inputs": [
        {
          "internalType": "address",
          "name": "forwarder",
          "type": "address"
        }
      ],
      "name": "isTrustedForwarder",
      "outputs": [
        {
          "internalType": "bool",
          "name": "",
          "type": "bool"
        }
      ],
      "stateMutability": "view",
      "type": "function"
    },
    {
      "inputs": [
        {
          "internalType": "bytes32",
          "name": "",
          "type": "bytes32"
        }
      ],
      "name": "sessions",
      "outputs": [
        {
          "internalType": "uint256",
          "name": "end",
          "type": "uint256"
        },
        {
          "internalType": "address",
          "name": "user",
          "type": "address"
        },
        {
          "internalType": "address",
          "name": "tempPublicKey",
          "type": "address"
        }
      ],
      "stateMutability": "view",
      "type": "function"
    }
  ],
  "transactionHash": "0x4c98ccfd39551aaacc0e22305eaf0d33235e423acc9dfa8c87b67e22cfe63820",
  "args": [
    "0xd8253782c45a12053594b9deB72d8e8aB2Fca54c"
  ],
  "numDeployments": 1,
  "solcInputHash": "696dcecc3484168f21c15281098cada4",
  "bytecode": "0x60a060405234801561001057600080fd5b50604051610a00380380610a0083398101604081905261002f91610040565b6001600160a01b0316608052610070565b60006020828403121561005257600080fd5b81516001600160a01b038116811461006957600080fd5b9392505050565b60805161097561008b600039600061010301526109756000f3fe608060405234801561001057600080fd5b506004361061004c5760003560e01c8063572b6c05146100515780637dbd28321461007957806392e016df146100d9578063ebf1eed8146100ee575b600080fd5b61006461005f3660046105dc565b610101565b60405190151581526020015b60405180910390f35b6100b46100873660046105fe565b60006020819052908152604090208054600182015460029092015490916001600160a01b03908116911683565b604080519384526001600160a01b039283166020850152911690820152606001610070565b6100ec6100e73660046106ba565b610133565b005b6100ec6100fc366004610711565b610263565b7f00000000000000000000000000000000000000000000000000000000000000006001600160a01b0390811691161490565b61013c33610101565b6101865760405162461bcd60e51b81526020600482015260166024820152756f6e6c7947656c61746f52656c61794552433237373160501b60448201526064015b60405180910390fd5b60008360405160200161019991906107e7565b60408051601f198184030181528282528051602090910120606083019091529150806101c58542610803565b81526020016101d2610483565b6001600160a01b039081168252848116602092830152600084815280835260409081902084518155848401516001820180549185166001600160a01b0319928316179055948201516002909101805491909316941693909317905590518281527fd7a664a405eb64bdf6a057784c4082ee88bc25bead56ac540c58c1a95550a0cb910160405180910390a150505050565b60008160405160200161027691906107e7565b60408051601f19818403018152828252805160209182012060008181528083528390206060850184528054855260018101546001600160a01b0390811693860193909352600201549091169183019190915291506102d333610101565b6103185760405162461bcd60e51b81526020600482015260166024820152756f6e6c7947656c61746f52656c61794552433237373160501b604482015260640161017d565b60208101516001600160a01b03166103635760405162461bcd60e51b815260206004820152600e60248201526d1cd95cdcda5bdb939bdd125b9a5d60921b604482015260640161017d565b61036b610483565b6001600160a01b031681604001516001600160a01b0316146103c35760405162461bcd60e51b81526020600482015260116024820152701d195b5c12d95e539bdd105b1b1bddd959607a1b604482015260640161017d565b80514211156104055760405162461bcd60e51b815260206004820152600e60248201526d1d195b5c12d95e515e1c1a5c995960921b604482015260640161017d565b6000868683602001516040516020016104209392919061082a565b6040516020818303038152906040529050600061047689838860016040518060400160405280601c81526020017f53657373696f6e4b6579476174652e6578656375746543616c6c3a20000000008152506104a5565b5050505050505050505050565b600061048e33610101565b156104a0575060131936013560601c90565b503390565b60006060866001600160a01b031685876040516104c291906107e7565b60006040518083038185875af1925050503d80600081146104ff576040519150601f19603f3d011682016040523d82523d6000602084013e610504565b606091505b509092509050811580156105155750835b1561052457610524818461052e565b9550959350505050565b6020825161053c9190610850565b6004036105af5760208201516001600160e01b0319811662461bcd60e51b0361059e576044830192508183604051602001610578929190610872565b60408051601f198184030181529082905262461bcd60e51b825261017d916004016108a1565b8160405160200161057891906108d4565b806040516020016105789190610907565b80356001600160a01b03811681146105d757600080fd5b919050565b6000602082840312156105ee57600080fd5b6105f7826105c0565b9392505050565b60006020828403121561061057600080fd5b5035919050565b634e487b7160e01b600052604160045260246000fd5b600082601f83011261063e57600080fd5b813567ffffffffffffffff8082111561065957610659610617565b604051601f8301601f19908116603f0116810190828211818310171561068157610681610617565b8160405283815286602085880101111561069a57600080fd5b836020870160208301376000602085830101528094505050505092915050565b6000806000606084860312156106cf57600080fd5b833567ffffffffffffffff8111156106e657600080fd5b6106f28682870161062d565b93505060208401359150610708604085016105c0565b90509250925092565b60008060008060006080868803121561072957600080fd5b610732866105c0565b9450602086013567ffffffffffffffff8082111561074f57600080fd5b818801915088601f83011261076357600080fd5b81358181111561077257600080fd5b89602082850101111561078457600080fd5b602083019650809550506040880135935060608801359150808211156107a957600080fd5b506107b68882890161062d565b9150509295509295909350565b60005b838110156107de5781810151838201526020016107c6565b50506000910152565b600082516107f98184602087016107c3565b9190910192915050565b8082018082111561082457634e487b7160e01b600052601160045260246000fd5b92915050565b8284823760609190911b6bffffffffffffffffffffffff19169101908152601401919050565b60008261086d57634e487b7160e01b600052601260045260246000fd5b500690565b600083516108848184602088016107c3565b8351908301906108988183602088016107c3565b01949350505050565b60208152600082518060208401526108c08160408501602087016107c3565b601f01601f19169190910160400192915050565b600082516108e68184602087016107c3565b6e2737a2b93937b929b2b632b1ba37b960891b920191825250600f01919050565b600082516109198184602087016107c3565b73556e657870656374656452657475726e6461746160601b92019182525060140191905056fea2646970667358221220b15438ccfac4dc4e018ceb7d99a2e107556d60a3caf9d879d421da20f0e3d71a64736f6c63430008120033",
  "devdoc": {
    "kind": "dev",
    "methods": {},
    "version": 1
  },
  "userdoc": {
    "kind": "user",
    "methods": {},
    "version": 1
  },
  "storageLayout": {
    "storage": [
      {
        "astId": 1597,
        "contract": "contracts/sessionKeyGateForwarder/SessionKeyGate.sol:SessionKeyGate",
        "label": "sessions",
        "offset": 0,
        "slot": "0",
        "type": "t_mapping(t_bytes32,t_struct(SessionGate)1590_storage)"
      }
    ],
    "types": {
      "t_address": {
        "encoding": "inplace",
        "label": "address",
        "numberOfBytes": "20"
      },
      "t_bytes32": {
        "encoding": "inplace",
        "label": "bytes32",
        "numberOfBytes": "32"
      },
      "t_mapping(t_bytes32,t_struct(SessionGate)1590_storage)": {
        "encoding": "mapping",
        "key": "t_bytes32",
        "label": "mapping(bytes32 => struct SessionGate)",
        "numberOfBytes": "32",
        "value": "t_struct(SessionGate)1590_storage"
      },
      "t_struct(SessionGate)1590_storage": {
        "encoding": "inplace",
        "label": "struct SessionGate",
        "members": [
          {
            "astId": 1585,
            "contract": "contracts/sessionKeyGateForwarder/SessionKeyGate.sol:SessionKeyGate",
            "label": "end",
            "offset": 0,
            "slot": "0",
            "type": "t_uint256"
          },
          {
            "astId": 1587,
            "contract": "contracts/sessionKeyGateForwarder/SessionKeyGate.sol:SessionKeyGate",
            "label": "user",
            "offset": 0,
            "slot": "1",
            "type": "t_address"
          },
          {
            "astId": 1589,
            "contract": "contracts/sessionKeyGateForwarder/SessionKeyGate.sol:SessionKeyGate",
            "label": "tempPublicKey",
            "offset": 0,
            "slot": "2",
            "type": "t_address"
          }
        ],
        "numberOfBytes": "96"
      },
      "t_uint256": {
        "encoding": "inplace",
        "label": "uint256",
        "numberOfBytes": "32"
      }
    }
  }
}