{
  "address": "0x2503DC67db9462e2EAd459903D5a78b626F8f23B",
  "abi": [
    {
      "inputs": [
        {
          "internalType": "address",
          "name": "_gelatoMsgSender",
          "type": "address"
        },
        {
          "internalType": "address",
          "name": "pythContract",
          "type": "address"
        }
      ],
      "stateMutability": "nonpayable",
      "type": "constructor"
    },
    {
      "anonymous": false,
      "inputs": [
        {
          "indexed": true,
          "internalType": "address",
          "name": "previousOwner",
          "type": "address"
        },
        {
          "indexed": true,
          "internalType": "address",
          "name": "newOwner",
          "type": "address"
        }
      ],
      "name": "OwnershipTransferred",
      "type": "event"
    },
    {
      "anonymous": false,
      "inputs": [
        {
          "indexed": false,
          "internalType": "address",
          "name": "account",
          "type": "address"
        }
      ],
      "name": "Paused",
      "type": "event"
    },
    {
      "anonymous": false,
      "inputs": [
        {
          "indexed": false,
          "internalType": "address",
          "name": "account",
          "type": "address"
        }
      ],
      "name": "Unpaused",
      "type": "event"
    },
    {
      "anonymous": false,
      "inputs": [
        {
          "indexed": false,
          "internalType": "uint256",
          "name": "timestamp",
          "type": "uint256"
        },
        {
          "indexed": false,
          "internalType": "uint256",
          "name": "orderId",
          "type": "uint256"
        }
      ],
      "name": "setOrderEvent",
      "type": "event"
    },
    {
      "inputs": [],
      "name": "gelatoMsgSender",
      "outputs": [
        {
          "internalType": "address",
          "name": "",
          "type": "address"
        }
      ],
      "stateMutability": "view",
      "type": "function"
    },
    {
      "inputs": [
        {
          "internalType": "uint256",
          "name": "_order",
          "type": "uint256"
        }
      ],
      "name": "getOrder",
      "outputs": [
        {
          "components": [
            {
              "internalType": "uint256",
              "name": "timestamp",
              "type": "uint256"
            },
            {
              "internalType": "int64",
              "name": "price",
              "type": "int64"
            },
            {
              "internalType": "uint256",
              "name": "amount",
              "type": "uint256"
            }
          ],
          "internalType": "struct PerpMock.Order",
          "name": "",
          "type": "tuple"
        }
      ],
      "stateMutability": "view",
      "type": "function"
    },
    {
      "inputs": [],
      "name": "orderId",
      "outputs": [
        {
          "internalType": "uint256",
          "name": "",
          "type": "uint256"
        }
      ],
      "stateMutability": "view",
      "type": "function"
    },
    {
      "inputs": [],
      "name": "owner",
      "outputs": [
        {
          "internalType": "address",
          "name": "",
          "type": "address"
        }
      ],
      "stateMutability": "view",
      "type": "function"
    },
    {
      "inputs": [],
      "name": "pause",
      "outputs": [],
      "stateMutability": "nonpayable",
      "type": "function"
    },
    {
      "inputs": [],
      "name": "paused",
      "outputs": [
        {
          "internalType": "bool",
          "name": "",
          "type": "bool"
        }
      ],
      "stateMutability": "view",
      "type": "function"
    },
    {
      "inputs": [],
      "name": "renounceOwnership",
      "outputs": [],
      "stateMutability": "nonpayable",
      "type": "function"
    },
    {
      "inputs": [
        {
          "internalType": "uint256",
          "name": "_amount",
          "type": "uint256"
        }
      ],
      "name": "setOrder",
      "outputs": [],
      "stateMutability": "nonpayable",
      "type": "function"
    },
    {
      "inputs": [
        {
          "internalType": "address",
          "name": "newOwner",
          "type": "address"
        }
      ],
      "name": "transferOwnership",
      "outputs": [],
      "stateMutability": "nonpayable",
      "type": "function"
    },
    {
      "inputs": [],
      "name": "unpause",
      "outputs": [],
      "stateMutability": "nonpayable",
      "type": "function"
    },
    {
      "inputs": [
        {
          "internalType": "bytes[]",
          "name": "updatePriceData",
          "type": "bytes[]"
        },
        {
          "internalType": "uint256[]",
          "name": "orders",
          "type": "uint256[]"
        }
      ],
      "name": "updatePrice",
      "outputs": [],
      "stateMutability": "nonpayable",
      "type": "function"
    },
    {
      "inputs": [],
      "name": "withdraw",
      "outputs": [
        {
          "internalType": "bool",
          "name": "",
          "type": "bool"
        }
      ],
      "stateMutability": "nonpayable",
      "type": "function"
    },
    {
      "stateMutability": "payable",
      "type": "receive"
    }
  ],
  "transactionHash": "0x42e37ee43d463b31f2be611a5c97b1a34d9b243d952f469a8aa9e19ffa966177",
  "args": [
    "0xcc53666e25BF52C7c5Bc1e8F6E1F6bf58E871659",
    "0xff1a0f4744e8582DF1aE09D5611b887B6a12925C"
  ],
  "numDeployments": 1,
  "solcInputHash": "90327e9a39ff73f902783436b87b4a8f",
  "bytecode": "0x60a060405234801561001057600080fd5b50604051610e72380380610e7283398101604081905261002f916100d9565b6100383361006d565b6000805460ff60a01b191690556001600160a01b03918216608052600180546001600160a01b0319169190921617905561010c565b600080546001600160a01b038381166001600160a01b0319831681178455604051919092169283917f8be0079c531659141344cd1fd0a4f28419497f9722a3daafe3b4186f6b6457e09190a35050565b80516001600160a01b03811681146100d457600080fd5b919050565b600080604083850312156100ec57600080fd5b6100f5836100bd565b9150610103602084016100bd565b90509250929050565b608051610d4461012e600039600081816101e9015261027b0152610d446000f3fe6080604052600436106100ab5760003560e01c80637c86f434116100645780637c86f434146101705780638456cb59146101905780638da5cb5b146101a5578063c5443082146101d7578063d09ef2411461020b578063f2fde38b1461025057600080fd5b8063163de5e5146100b757806320c67377146100e05780633ccfd60b146101025780633f4ba83a146101275780635c975abb1461013c578063715018a61461015b57600080fd5b366100b257005b600080fd5b3480156100c357600080fd5b506100cd60025481565b6040519081526020015b60405180910390f35b3480156100ec57600080fd5b506101006100fb3660046109fc565b610270565b005b34801561010e57600080fd5b5061011761052d565b60405190151581526020016100d7565b34801561013357600080fd5b50610100610587565b34801561014857600080fd5b50600054600160a01b900460ff16610117565b34801561016757600080fd5b50610100610599565b34801561017c57600080fd5b5061010061018b366004610b25565b6105ab565b34801561019c57600080fd5b5061010061065b565b3480156101b157600080fd5b506000546001600160a01b03165b6040516001600160a01b0390911681526020016100d7565b3480156101e357600080fd5b506101bf7f000000000000000000000000000000000000000000000000000000000000000081565b34801561021757600080fd5b5061022b610226366004610b25565b61066b565b604080518251815260208084015160070b9082015291810151908201526060016100d7565b34801561025c57600080fd5b5061010061026b366004610b3e565b6106ce565b336001600160a01b037f000000000000000000000000000000000000000000000000000000000000000016146102ed5760405162461bcd60e51b815260206004820181905260248201527f4f6e6c79206465646963617465642067656c61746f206d73672e73656e64657260448201526064015b60405180910390fd5b60015460405163d47eed4560e01b81526000916001600160a01b03169063d47eed459061031e908690600401610b6e565b602060405180830381865afa15801561033b573d6000803e3d6000fd5b505050506040513d601f19601f8201168201806040525081019061035f9190610c00565b600154604051631df3cbc560e31b81529192506001600160a01b03169063ef9e5e28908390610392908790600401610b6e565b6000604051808303818588803b1580156103ab57600080fd5b505af11580156103bf573d6000803e3d6000fd5b50506001546040516396834ad360e01b81527fca80ba6dc32e08d06f1aa886011eed1d77c77be9eb761cc10d72b7d0a2fd57a6600482018190529450600093506001600160a01b0390911691506396834ad390602401608060405180830381865afa158015610432573d6000803e3d6000fd5b505050506040513d601f19601f820116820180604052508101906104569190610c19565b905060005b84518110156105255760006003600087848151811061047c5761047c610cb0565b60200260200101518152602001908152602001600020905082606001518160000154600c6104aa9190610cdc565b106104ec5760405162461bcd60e51b81526020600482015260126024820152711393d5080c4c881cd958c8195b185c1cd95960721b60448201526064016102e4565b8251600191909101805467ffffffffffffffff191667ffffffffffffffff9092169190911790558061051d81610cf5565b91505061045b565b505050505050565b6000610537610747565b604051600090339047908381818185875af1925050503d8060008114610579576040519150601f19603f3d011682016040523d82523d6000602084013e61057e565b606091505b50909250505090565b61058f610747565b6105976107a1565b565b6105a1610747565b61059760006107f6565b6001600260008282546105be9190610cdc565b9091555050604080516060810182524280825260006020808401828152848601878152600280548552600384529387902095518655905160018601805467ffffffffffffffff191667ffffffffffffffff9092169190911790555193820193909355548351918252918101919091527f6f34c3f094460b0585979f759a118a66b36a8e39a5fad428401bededa66b4d4a910160405180910390a150565b610663610747565b610597610846565b610692604051806060016040528060008152602001600060070b8152602001600081525090565b50600090815260036020908152604091829020825160608101845281548152600182015460070b92810192909252600201549181019190915290565b6106d6610747565b6001600160a01b03811661073b5760405162461bcd60e51b815260206004820152602660248201527f4f776e61626c653a206e6577206f776e657220697320746865207a65726f206160448201526564647265737360d01b60648201526084016102e4565b610744816107f6565b50565b6000546001600160a01b031633146105975760405162461bcd60e51b815260206004820181905260248201527f4f776e61626c653a2063616c6c6572206973206e6f7420746865206f776e657260448201526064016102e4565b6107a9610889565b6000805460ff60a01b191690557f5db9ee0a495bf2e6ff9c91a7834c1ba4fdd244a5e8aa4e537bd38aeae4b073aa335b6040516001600160a01b03909116815260200160405180910390a1565b600080546001600160a01b038381166001600160a01b0319831681178455604051919092169283917f8be0079c531659141344cd1fd0a4f28419497f9722a3daafe3b4186f6b6457e09190a35050565b61084e6108d9565b6000805460ff60a01b1916600160a01b1790557f62e78cea01bee320cd4e420270b5ea74000d11b0c9f74754ebdbfc544b05a2586107d93390565b600054600160a01b900460ff166105975760405162461bcd60e51b815260206004820152601460248201527314185d5cd8589b194e881b9bdd081c185d5cd95960621b60448201526064016102e4565b600054600160a01b900460ff16156105975760405162461bcd60e51b815260206004820152601060248201526f14185d5cd8589b194e881c185d5cd95960821b60448201526064016102e4565b634e487b7160e01b600052604160045260246000fd5b604051601f8201601f1916810167ffffffffffffffff8111828210171561096557610965610926565b604052919050565b600067ffffffffffffffff82111561098757610987610926565b5060051b60200190565b600082601f8301126109a257600080fd5b813560206109b76109b28361096d565b61093c565b82815260059290921b840181019181810190868411156109d657600080fd5b8286015b848110156109f157803583529183019183016109da565b509695505050505050565b6000806040808486031215610a1057600080fd5b833567ffffffffffffffff80821115610a2857600080fd5b8186019150601f8781840112610a3d57600080fd5b82356020610a4d6109b28361096d565b82815260059290921b8501810191818101908b841115610a6c57600080fd5b8287015b84811015610af557803587811115610a885760008081fd5b8801603f81018e13610a9a5760008081fd5b8481013588811115610aae57610aae610926565b610abf818901601f1916870161093c565b8181528f8c838501011115610ad45760008081fd5b818c8401888301376000918101870191909152845250918301918301610a70565b509850508801359450505080831115610b0d57600080fd5b5050610b1b85828601610991565b9150509250929050565b600060208284031215610b3757600080fd5b5035919050565b600060208284031215610b5057600080fd5b81356001600160a01b0381168114610b6757600080fd5b9392505050565b6000602080830181845280855180835260408601915060408160051b87010192508387016000805b83811015610bf257888603603f1901855282518051808852835b81811015610bcb578281018a01518982018b01528901610bb0565b508781018901849052601f01601f1916909601870195509386019391860191600101610b96565b509398975050505050505050565b600060208284031215610c1257600080fd5b5051919050565b600060808284031215610c2b57600080fd5b6040516080810167ffffffffffffffff8282108183111715610c4f57610c4f610926565b81604052845191508160070b8214610c6657600080fd5b9082526020840151908082168214610c7d57600080fd5b5060208201526040830151600381900b8114610c9857600080fd5b60408201526060928301519281019290925250919050565b634e487b7160e01b600052603260045260246000fd5b634e487b7160e01b600052601160045260246000fd5b80820180821115610cef57610cef610cc6565b92915050565b600060018201610d0757610d07610cc6565b506001019056fea26469706673582212208c33eeafdae1bb05e7b707ee9cac909a7c218accdffa079ac4cb7bd9c92a111e64736f6c63430008120033",
  "devdoc": {
    "events": {
      "Paused(address)": {
        "details": "Emitted when the pause is triggered by `account`."
      },
      "Unpaused(address)": {
        "details": "Emitted when the pause is lifted by `account`."
      }
    },
    "kind": "dev",
    "methods": {
      "owner()": {
        "details": "Returns the address of the current owner."
      },
      "paused()": {
        "details": "Returns true if the contract is paused, and false otherwise."
      },
      "renounceOwnership()": {
        "details": "Leaves the contract without owner. It will not be possible to call `onlyOwner` functions. Can only be called by the current owner. NOTE: Renouncing ownership will leave the contract without an owner, thereby disabling any functionality that is only available to the owner."
      },
      "transferOwnership(address)": {
        "details": "Transfers ownership of the contract to a new account (`newOwner`). Can only be called by the current owner."
      }
    },
    "version": 1
  },
  "userdoc": {
    "kind": "user",
    "methods": {},
    "version": 1
  },
  "storageLayout": {
    "storage": [
      {
        "astId": 7,
        "contract": "contracts/PerpMock.sol:PerpMock",
        "label": "_owner",
        "offset": 0,
        "slot": "0",
        "type": "t_address"
      },
      {
        "astId": 130,
        "contract": "contracts/PerpMock.sol:PerpMock",
        "label": "_paused",
        "offset": 20,
        "slot": "0",
        "type": "t_bool"
      },
      {
        "astId": 504,
        "contract": "contracts/PerpMock.sol:PerpMock",
        "label": "_pyth",
        "offset": 0,
        "slot": "1",
        "type": "t_contract(IPyth)435"
      },
      {
        "astId": 506,
        "contract": "contracts/PerpMock.sol:PerpMock",
        "label": "orderId",
        "offset": 0,
        "slot": "2",
        "type": "t_uint256"
      },
      {
        "astId": 513,
        "contract": "contracts/PerpMock.sol:PerpMock",
        "label": "ordersByOrderId",
        "offset": 0,
        "slot": "3",
        "type": "t_mapping(t_uint256,t_struct(Order)501_storage)"
      }
    ],
    "types": {
      "t_address": {
        "encoding": "inplace",
        "label": "address",
        "numberOfBytes": "20"
      },
      "t_bool": {
        "encoding": "inplace",
        "label": "bool",
        "numberOfBytes": "1"
      },
      "t_contract(IPyth)435": {
        "encoding": "inplace",
        "label": "contract IPyth",
        "numberOfBytes": "20"
      },
      "t_int64": {
        "encoding": "inplace",
        "label": "int64",
        "numberOfBytes": "8"
      },
      "t_mapping(t_uint256,t_struct(Order)501_storage)": {
        "encoding": "mapping",
        "key": "t_uint256",
        "label": "mapping(uint256 => struct PerpMock.Order)",
        "numberOfBytes": "32",
        "value": "t_struct(Order)501_storage"
      },
      "t_struct(Order)501_storage": {
        "encoding": "inplace",
        "label": "struct PerpMock.Order",
        "members": [
          {
            "astId": 496,
            "contract": "contracts/PerpMock.sol:PerpMock",
            "label": "timestamp",
            "offset": 0,
            "slot": "0",
            "type": "t_uint256"
          },
          {
            "astId": 498,
            "contract": "contracts/PerpMock.sol:PerpMock",
            "label": "price",
            "offset": 0,
            "slot": "1",
            "type": "t_int64"
          },
          {
            "astId": 500,
            "contract": "contracts/PerpMock.sol:PerpMock",
            "label": "amount",
            "offset": 0,
            "slot": "2",
            "type": "t_uint256"
          }
        ],
        "numberOfBytes": "96"
      },
      "t_uint256": {
        "encoding": "inplace",
        "label": "uint256",
        "numberOfBytes": "32"
      }
    }
  }
}