{
  "address": "0x7c0d464B21552F3B8e0FDA2C74798e54CA0cAF7B",
  "abi": [
    {
      "inputs": [
        {
          "internalType": "address",
          "name": "_gelatoMsgSender",
          "type": "address"
        },
        {
          "internalType": "address",
          "name": "pythContract",
          "type": "address"
        }
      ],
      "stateMutability": "nonpayable",
      "type": "constructor"
    },
    {
      "anonymous": false,
      "inputs": [
        {
          "indexed": true,
          "internalType": "address",
          "name": "previousOwner",
          "type": "address"
        },
        {
          "indexed": true,
          "internalType": "address",
          "name": "newOwner",
          "type": "address"
        }
      ],
      "name": "OwnershipTransferred",
      "type": "event"
    },
    {
      "anonymous": false,
      "inputs": [
        {
          "indexed": false,
          "internalType": "address",
          "name": "account",
          "type": "address"
        }
      ],
      "name": "Paused",
      "type": "event"
    },
    {
      "anonymous": false,
      "inputs": [
        {
          "indexed": false,
          "internalType": "address",
          "name": "account",
          "type": "address"
        }
      ],
      "name": "Unpaused",
      "type": "event"
    },
    {
      "anonymous": false,
      "inputs": [
        {
          "indexed": false,
          "internalType": "uint256",
          "name": "timestamp",
          "type": "uint256"
        },
        {
          "indexed": false,
          "internalType": "uint256",
          "name": "orderId",
          "type": "uint256"
        }
      ],
      "name": "setOrderEvent",
      "type": "event"
    },
    {
      "inputs": [],
      "name": "gelatoMsgSender",
      "outputs": [
        {
          "internalType": "address",
          "name": "",
          "type": "address"
        }
      ],
      "stateMutability": "view",
      "type": "function"
    },
    {
      "inputs": [
        {
          "internalType": "uint256",
          "name": "_order",
          "type": "uint256"
        }
      ],
      "name": "getOrder",
      "outputs": [
        {
          "components": [
            {
              "internalType": "uint256",
              "name": "timestamp",
              "type": "uint256"
            },
            {
              "internalType": "uint256",
              "name": "amount",
              "type": "uint256"
            },
            {
              "internalType": "int64",
              "name": "price",
              "type": "int64"
            },
            {
              "internalType": "uint256",
              "name": "publishTime",
              "type": "uint256"
            }
          ],
          "internalType": "struct PerpMock.Order",
          "name": "",
          "type": "tuple"
        }
      ],
      "stateMutability": "view",
      "type": "function"
    },
    {
      "inputs": [],
      "name": "orderId",
      "outputs": [
        {
          "internalType": "uint256",
          "name": "",
          "type": "uint256"
        }
      ],
      "stateMutability": "view",
      "type": "function"
    },
    {
      "inputs": [],
      "name": "owner",
      "outputs": [
        {
          "internalType": "address",
          "name": "",
          "type": "address"
        }
      ],
      "stateMutability": "view",
      "type": "function"
    },
    {
      "inputs": [],
      "name": "pause",
      "outputs": [],
      "stateMutability": "nonpayable",
      "type": "function"
    },
    {
      "inputs": [],
      "name": "paused",
      "outputs": [
        {
          "internalType": "bool",
          "name": "",
          "type": "bool"
        }
      ],
      "stateMutability": "view",
      "type": "function"
    },
    {
      "inputs": [],
      "name": "renounceOwnership",
      "outputs": [],
      "stateMutability": "nonpayable",
      "type": "function"
    },
    {
      "inputs": [
        {
          "internalType": "uint256",
          "name": "_amount",
          "type": "uint256"
        }
      ],
      "name": "setOrder",
      "outputs": [],
      "stateMutability": "nonpayable",
      "type": "function"
    },
    {
      "inputs": [
        {
          "internalType": "address",
          "name": "newOwner",
          "type": "address"
        }
      ],
      "name": "transferOwnership",
      "outputs": [],
      "stateMutability": "nonpayable",
      "type": "function"
    },
    {
      "inputs": [],
      "name": "unpause",
      "outputs": [],
      "stateMutability": "nonpayable",
      "type": "function"
    },
    {
      "inputs": [
        {
          "internalType": "bytes[]",
          "name": "updatePriceData",
          "type": "bytes[]"
        },
        {
          "internalType": "uint256[]",
          "name": "orders",
          "type": "uint256[]"
        }
      ],
      "name": "updatePrice",
      "outputs": [],
      "stateMutability": "nonpayable",
      "type": "function"
    },
    {
      "inputs": [],
      "name": "withdraw",
      "outputs": [
        {
          "internalType": "bool",
          "name": "",
          "type": "bool"
        }
      ],
      "stateMutability": "nonpayable",
      "type": "function"
    },
    {
      "stateMutability": "payable",
      "type": "receive"
    }
  ],
  "transactionHash": "0x37ecfd72cd3fbb26877cc4966b90ad6593d5828d5f0af1c12e9eedee9cbe8d93",
  "args": [
    "0xcc53666e25BF52C7c5Bc1e8F6E1F6bf58E871659",
    "0xff1a0f4744e8582DF1aE09D5611b887B6a12925C"
  ],
  "numDeployments": 1,
  "solcInputHash": "73324ea5c1cfa20c56955b03063d1af4",
  "bytecode": "0x60a060405234801561001057600080fd5b50604051610eaa380380610eaa83398101604081905261002f916100d9565b6100383361006d565b6000805460ff60a01b191690556001600160a01b03918216608052600180546001600160a01b0319169190921617905561010c565b600080546001600160a01b038381166001600160a01b0319831681178455604051919092169283917f8be0079c531659141344cd1fd0a4f28419497f9722a3daafe3b4186f6b6457e09190a35050565b80516001600160a01b03811681146100d457600080fd5b919050565b600080604083850312156100ec57600080fd5b6100f5836100bd565b9150610103602084016100bd565b90509250929050565b608051610d7c61012e600039600081816101e9015261028c0152610d7c6000f3fe6080604052600436106100ab5760003560e01c80637c86f434116100645780637c86f434146101705780638456cb59146101905780638da5cb5b146101a5578063c5443082146101d7578063d09ef2411461020b578063f2fde38b1461026157600080fd5b8063163de5e5146100b757806320c67377146100e05780633ccfd60b146101025780633f4ba83a146101275780635c975abb1461013c578063715018a61461015b57600080fd5b366100b257005b600080fd5b3480156100c357600080fd5b506100cd60025481565b6040519081526020015b60405180910390f35b3480156100ec57600080fd5b506101006100fb366004610a34565b610281565b005b34801561010e57600080fd5b50610117610547565b60405190151581526020016100d7565b34801561013357600080fd5b506101006105a1565b34801561014857600080fd5b50600054600160a01b900460ff16610117565b34801561016757600080fd5b506101006105b3565b34801561017c57600080fd5b5061010061018b366004610b5d565b6105c5565b34801561019c57600080fd5b50610100610683565b3480156101b157600080fd5b506000546001600160a01b03165b6040516001600160a01b0390911681526020016100d7565b3480156101e357600080fd5b506101bf7f000000000000000000000000000000000000000000000000000000000000000081565b34801561021757600080fd5b5061022b610226366004610b5d565b610693565b6040516100d79190815181526020808301519082015260408083015160070b908201526060918201519181019190915260800190565b34801561026d57600080fd5b5061010061027c366004610b76565b610706565b336001600160a01b037f000000000000000000000000000000000000000000000000000000000000000016146102fe5760405162461bcd60e51b815260206004820181905260248201527f4f6e6c79206465646963617465642067656c61746f206d73672e73656e64657260448201526064015b60405180910390fd5b60015460405163d47eed4560e01b81526000916001600160a01b03169063d47eed459061032f908690600401610ba6565b602060405180830381865afa15801561034c573d6000803e3d6000fd5b505050506040513d601f19601f820116820180604052508101906103709190610c38565b600154604051631df3cbc560e31b81529192506001600160a01b03169063ef9e5e289083906103a3908790600401610ba6565b6000604051808303818588803b1580156103bc57600080fd5b505af11580156103d0573d6000803e3d6000fd5b50506001546040516396834ad360e01b81527fca80ba6dc32e08d06f1aa886011eed1d77c77be9eb761cc10d72b7d0a2fd57a6600482018190529450600093506001600160a01b0390911691506396834ad390602401608060405180830381865afa158015610443573d6000803e3d6000fd5b505050506040513d601f19601f820116820180604052508101906104679190610c51565b905060005b845181101561053f5760006003600087848151811061048d5761048d610ce8565b60200260200101518152602001908152602001600020905082606001518160000154600c6104bb9190610d14565b106104fd5760405162461bcd60e51b81526020600482015260126024820152711393d5080c4c881cd958c8195b185c1cd95960721b60448201526064016102f5565b825160028201805467ffffffffffffffff191667ffffffffffffffff90921691909117905560608301516003909101558061053781610d2d565b91505061046c565b505050505050565b600061055161077f565b604051600090339047908381818185875af1925050503d8060008114610593576040519150601f19603f3d011682016040523d82523d6000602084013e610598565b606091505b50909250505090565b6105a961077f565b6105b16107d9565b565b6105bb61077f565b6105b1600061082e565b6001600260008282546105d89190610d14565b90915550506040805160808101825242808252602080830185815260008486018181526060860182815260028054845260038087529389902097518855935160018801559051868401805467ffffffffffffffff191667ffffffffffffffff9092169190911790555194019390935591548351918252918101919091527f6f34c3f094460b0585979f759a118a66b36a8e39a5fad428401bededa66b4d4a910160405180910390a150565b61068b61077f565b6105b161087e565b6106c160405180608001604052806000815260200160008152602001600060070b8152602001600081525090565b50600090815260036020818152604092839020835160808101855281548152600182015492810192909252600281015460070b93820193909352910154606082015290565b61070e61077f565b6001600160a01b0381166107735760405162461bcd60e51b815260206004820152602660248201527f4f776e61626c653a206e6577206f776e657220697320746865207a65726f206160448201526564647265737360d01b60648201526084016102f5565b61077c8161082e565b50565b6000546001600160a01b031633146105b15760405162461bcd60e51b815260206004820181905260248201527f4f776e61626c653a2063616c6c6572206973206e6f7420746865206f776e657260448201526064016102f5565b6107e16108c1565b6000805460ff60a01b191690557f5db9ee0a495bf2e6ff9c91a7834c1ba4fdd244a5e8aa4e537bd38aeae4b073aa335b6040516001600160a01b03909116815260200160405180910390a1565b600080546001600160a01b038381166001600160a01b0319831681178455604051919092169283917f8be0079c531659141344cd1fd0a4f28419497f9722a3daafe3b4186f6b6457e09190a35050565b610886610911565b6000805460ff60a01b1916600160a01b1790557f62e78cea01bee320cd4e420270b5ea74000d11b0c9f74754ebdbfc544b05a2586108113390565b600054600160a01b900460ff166105b15760405162461bcd60e51b815260206004820152601460248201527314185d5cd8589b194e881b9bdd081c185d5cd95960621b60448201526064016102f5565b600054600160a01b900460ff16156105b15760405162461bcd60e51b815260206004820152601060248201526f14185d5cd8589b194e881c185d5cd95960821b60448201526064016102f5565b634e487b7160e01b600052604160045260246000fd5b604051601f8201601f1916810167ffffffffffffffff8111828210171561099d5761099d61095e565b604052919050565b600067ffffffffffffffff8211156109bf576109bf61095e565b5060051b60200190565b600082601f8301126109da57600080fd5b813560206109ef6109ea836109a5565b610974565b82815260059290921b84018101918181019086841115610a0e57600080fd5b8286015b84811015610a295780358352918301918301610a12565b509695505050505050565b6000806040808486031215610a4857600080fd5b833567ffffffffffffffff80821115610a6057600080fd5b8186019150601f8781840112610a7557600080fd5b82356020610a856109ea836109a5565b82815260059290921b8501810191818101908b841115610aa457600080fd5b8287015b84811015610b2d57803587811115610ac05760008081fd5b8801603f81018e13610ad25760008081fd5b8481013588811115610ae657610ae661095e565b610af7818901601f19168701610974565b8181528f8c838501011115610b0c5760008081fd5b818c8401888301376000918101870191909152845250918301918301610aa8565b509850508801359450505080831115610b4557600080fd5b5050610b53858286016109c9565b9150509250929050565b600060208284031215610b6f57600080fd5b5035919050565b600060208284031215610b8857600080fd5b81356001600160a01b0381168114610b9f57600080fd5b9392505050565b6000602080830181845280855180835260408601915060408160051b87010192508387016000805b83811015610c2a57888603603f1901855282518051808852835b81811015610c03578281018a01518982018b01528901610be8565b508781018901849052601f01601f1916909601870195509386019391860191600101610bce565b509398975050505050505050565b600060208284031215610c4a57600080fd5b5051919050565b600060808284031215610c6357600080fd5b6040516080810167ffffffffffffffff8282108183111715610c8757610c8761095e565b81604052845191508160070b8214610c9e57600080fd5b9082526020840151908082168214610cb557600080fd5b5060208201526040830151600381900b8114610cd057600080fd5b60408201526060928301519281019290925250919050565b634e487b7160e01b600052603260045260246000fd5b634e487b7160e01b600052601160045260246000fd5b80820180821115610d2757610d27610cfe565b92915050565b600060018201610d3f57610d3f610cfe565b506001019056fea2646970667358221220b921c2ba65fd4a722e3b43148377b8d0e4cd074f6ebe24111c8437656489a7f864736f6c63430008120033",
  "devdoc": {
    "events": {
      "Paused(address)": {
        "details": "Emitted when the pause is triggered by `account`."
      },
      "Unpaused(address)": {
        "details": "Emitted when the pause is lifted by `account`."
      }
    },
    "kind": "dev",
    "methods": {
      "owner()": {
        "details": "Returns the address of the current owner."
      },
      "paused()": {
        "details": "Returns true if the contract is paused, and false otherwise."
      },
      "renounceOwnership()": {
        "details": "Leaves the contract without owner. It will not be possible to call `onlyOwner` functions. Can only be called by the current owner. NOTE: Renouncing ownership will leave the contract without an owner, thereby disabling any functionality that is only available to the owner."
      },
      "transferOwnership(address)": {
        "details": "Transfers ownership of the contract to a new account (`newOwner`). Can only be called by the current owner."
      }
    },
    "version": 1
  },
  "userdoc": {
    "kind": "user",
    "methods": {},
    "version": 1
  },
  "storageLayout": {
    "storage": [
      {
        "astId": 7,
        "contract": "contracts/PerpMock.sol:PerpMock",
        "label": "_owner",
        "offset": 0,
        "slot": "0",
        "type": "t_address"
      },
      {
        "astId": 130,
        "contract": "contracts/PerpMock.sol:PerpMock",
        "label": "_paused",
        "offset": 20,
        "slot": "0",
        "type": "t_bool"
      },
      {
        "astId": 506,
        "contract": "contracts/PerpMock.sol:PerpMock",
        "label": "_pyth",
        "offset": 0,
        "slot": "1",
        "type": "t_contract(IPyth)435"
      },
      {
        "astId": 508,
        "contract": "contracts/PerpMock.sol:PerpMock",
        "label": "orderId",
        "offset": 0,
        "slot": "2",
        "type": "t_uint256"
      },
      {
        "astId": 515,
        "contract": "contracts/PerpMock.sol:PerpMock",
        "label": "ordersByOrderId",
        "offset": 0,
        "slot": "3",
        "type": "t_mapping(t_uint256,t_struct(Order)503_storage)"
      }
    ],
    "types": {
      "t_address": {
        "encoding": "inplace",
        "label": "address",
        "numberOfBytes": "20"
      },
      "t_bool": {
        "encoding": "inplace",
        "label": "bool",
        "numberOfBytes": "1"
      },
      "t_contract(IPyth)435": {
        "encoding": "inplace",
        "label": "contract IPyth",
        "numberOfBytes": "20"
      },
      "t_int64": {
        "encoding": "inplace",
        "label": "int64",
        "numberOfBytes": "8"
      },
      "t_mapping(t_uint256,t_struct(Order)503_storage)": {
        "encoding": "mapping",
        "key": "t_uint256",
        "label": "mapping(uint256 => struct PerpMock.Order)",
        "numberOfBytes": "32",
        "value": "t_struct(Order)503_storage"
      },
      "t_struct(Order)503_storage": {
        "encoding": "inplace",
        "label": "struct PerpMock.Order",
        "members": [
          {
            "astId": 496,
            "contract": "contracts/PerpMock.sol:PerpMock",
            "label": "timestamp",
            "offset": 0,
            "slot": "0",
            "type": "t_uint256"
          },
          {
            "astId": 498,
            "contract": "contracts/PerpMock.sol:PerpMock",
            "label": "amount",
            "offset": 0,
            "slot": "1",
            "type": "t_uint256"
          },
          {
            "astId": 500,
            "contract": "contracts/PerpMock.sol:PerpMock",
            "label": "price",
            "offset": 0,
            "slot": "2",
            "type": "t_int64"
          },
          {
            "astId": 502,
            "contract": "contracts/PerpMock.sol:PerpMock",
            "label": "publishTime",
            "offset": 0,
            "slot": "3",
            "type": "t_uint256"
          }
        ],
        "numberOfBytes": "128"
      },
      "t_uint256": {
        "encoding": "inplace",
        "label": "uint256",
        "numberOfBytes": "32"
      }
    }
  }
}