{
  "address": "0x17E2b1AED9CA9A5E63ff7b4736cE7657b28EB8f8",
  "abi": [
    {
      "inputs": [
        {
          "internalType": "address",
          "name": "_gelatoMsgSender",
          "type": "address"
        },
        {
          "internalType": "address",
          "name": "pythContract",
          "type": "address"
        }
      ],
      "stateMutability": "nonpayable",
      "type": "constructor"
    },
    {
      "anonymous": false,
      "inputs": [
        {
          "indexed": true,
          "internalType": "address",
          "name": "previousOwner",
          "type": "address"
        },
        {
          "indexed": true,
          "internalType": "address",
          "name": "newOwner",
          "type": "address"
        }
      ],
      "name": "OwnershipTransferred",
      "type": "event"
    },
    {
      "anonymous": false,
      "inputs": [
        {
          "indexed": false,
          "internalType": "address",
          "name": "account",
          "type": "address"
        }
      ],
      "name": "Paused",
      "type": "event"
    },
    {
      "anonymous": false,
      "inputs": [
        {
          "indexed": false,
          "internalType": "address",
          "name": "account",
          "type": "address"
        }
      ],
      "name": "Unpaused",
      "type": "event"
    },
    {
      "anonymous": false,
      "inputs": [
        {
          "indexed": false,
          "internalType": "uint256",
          "name": "timestamp",
          "type": "uint256"
        },
        {
          "indexed": false,
          "internalType": "uint256",
          "name": "orderId",
          "type": "uint256"
        }
      ],
      "name": "setOrderEvent",
      "type": "event"
    },
    {
      "inputs": [],
      "name": "gelatoMsgSender",
      "outputs": [
        {
          "internalType": "address",
          "name": "",
          "type": "address"
        }
      ],
      "stateMutability": "view",
      "type": "function"
    },
    {
      "inputs": [
        {
          "internalType": "uint256",
          "name": "_order",
          "type": "uint256"
        }
      ],
      "name": "getOrder",
      "outputs": [
        {
          "components": [
            {
              "internalType": "uint256",
              "name": "timestamp",
              "type": "uint256"
            },
            {
              "internalType": "uint256",
              "name": "amount",
              "type": "uint256"
            },
            {
              "internalType": "int64",
              "name": "price",
              "type": "int64"
            },
            {
              "internalType": "uint256",
              "name": "publishTime",
              "type": "uint256"
            }
          ],
          "internalType": "struct PerpMock.Order",
          "name": "",
          "type": "tuple"
        }
      ],
      "stateMutability": "view",
      "type": "function"
    },
    {
      "inputs": [],
      "name": "orderId",
      "outputs": [
        {
          "internalType": "uint256",
          "name": "",
          "type": "uint256"
        }
      ],
      "stateMutability": "view",
      "type": "function"
    },
    {
      "inputs": [
        {
          "internalType": "uint256",
          "name": "",
          "type": "uint256"
        }
      ],
      "name": "ordersByOrderId",
      "outputs": [
        {
          "internalType": "uint256",
          "name": "timestamp",
          "type": "uint256"
        },
        {
          "internalType": "uint256",
          "name": "amount",
          "type": "uint256"
        },
        {
          "internalType": "int64",
          "name": "price",
          "type": "int64"
        },
        {
          "internalType": "uint256",
          "name": "publishTime",
          "type": "uint256"
        }
      ],
      "stateMutability": "view",
      "type": "function"
    },
    {
      "inputs": [
        {
          "internalType": "address",
          "name": "",
          "type": "address"
        },
        {
          "internalType": "uint256",
          "name": "",
          "type": "uint256"
        }
      ],
      "name": "ordesByUser",
      "outputs": [
        {
          "internalType": "uint256",
          "name": "",
          "type": "uint256"
        }
      ],
      "stateMutability": "view",
      "type": "function"
    },
    {
      "inputs": [],
      "name": "owner",
      "outputs": [
        {
          "internalType": "address",
          "name": "",
          "type": "address"
        }
      ],
      "stateMutability": "view",
      "type": "function"
    },
    {
      "inputs": [],
      "name": "pause",
      "outputs": [],
      "stateMutability": "nonpayable",
      "type": "function"
    },
    {
      "inputs": [],
      "name": "paused",
      "outputs": [
        {
          "internalType": "bool",
          "name": "",
          "type": "bool"
        }
      ],
      "stateMutability": "view",
      "type": "function"
    },
    {
      "inputs": [],
      "name": "renounceOwnership",
      "outputs": [],
      "stateMutability": "nonpayable",
      "type": "function"
    },
    {
      "inputs": [
        {
          "internalType": "uint256",
          "name": "_amount",
          "type": "uint256"
        }
      ],
      "name": "setOrder",
      "outputs": [],
      "stateMutability": "nonpayable",
      "type": "function"
    },
    {
      "inputs": [
        {
          "internalType": "address",
          "name": "newOwner",
          "type": "address"
        }
      ],
      "name": "transferOwnership",
      "outputs": [],
      "stateMutability": "nonpayable",
      "type": "function"
    },
    {
      "inputs": [],
      "name": "unpause",
      "outputs": [],
      "stateMutability": "nonpayable",
      "type": "function"
    },
    {
      "inputs": [
        {
          "internalType": "bytes[]",
          "name": "updatePriceData",
          "type": "bytes[]"
        },
        {
          "internalType": "uint256[]",
          "name": "orders",
          "type": "uint256[]"
        }
      ],
      "name": "updatePrice",
      "outputs": [],
      "stateMutability": "nonpayable",
      "type": "function"
    },
    {
      "inputs": [],
      "name": "withdraw",
      "outputs": [
        {
          "internalType": "bool",
          "name": "",
          "type": "bool"
        }
      ],
      "stateMutability": "nonpayable",
      "type": "function"
    },
    {
      "stateMutability": "payable",
      "type": "receive"
    }
  ],
  "transactionHash": "0x5a80ecb732823c861a28c9cfc8f7d47c37a61cf43e6afdcace5740b15f10f063",
  "args": [
    "0xbB97656cd5fECe3a643335d03C8919D5E7DcD225",
    "0xff1a0f4744e8582DF1aE09D5611b887B6a12925C"
  ],
  "numDeployments": 2,
  "solcInputHash": "485b7ee2654b59d4a596a7cbc05f8ca6",
  "bytecode": "0x60a060405234801561001057600080fd5b5060405161100438038061100483398101604081905261002f916100d9565b6100383361006d565b6000805460ff60a01b191690556001600160a01b03918216608052600180546001600160a01b0319169190921617905561010c565b600080546001600160a01b038381166001600160a01b0319831681178455604051919092169283917f8be0079c531659141344cd1fd0a4f28419497f9722a3daafe3b4186f6b6457e09190a35050565b80516001600160a01b03811681146100d457600080fd5b919050565b600080604083850312156100ec57600080fd5b6100f5836100bd565b9150610103602084016100bd565b90509250929050565b608051610ed661012e600039600081816102af01526103830152610ed66000f3fe6080604052600436106100e15760003560e01c806377197d271161007f5780638da5cb5b116100595780638da5cb5b1461026b578063c54430821461029d578063d09ef241146102d1578063f2fde38b1461032757600080fd5b806377197d27146101c65780637c86f434146102365780638456cb591461025657600080fd5b80633ccfd60b116100bb5780633ccfd60b146101585780633f4ba83a1461017d5780635c975abb14610192578063715018a6146101b157600080fd5b8063163de5e5146100ed5780631946932d1461011657806320c673771461013657600080fd5b366100e857005b600080fd5b3480156100f957600080fd5b5061010360025481565b6040519081526020015b60405180910390f35b34801561012257600080fd5b50610103610131366004610a9c565b610347565b34801561014257600080fd5b50610156610151366004610b9c565b610378565b005b34801561016457600080fd5b5061016d61063e565b604051901515815260200161010d565b34801561018957600080fd5b50610156610698565b34801561019e57600080fd5b50600054600160a01b900460ff1661016d565b3480156101bd57600080fd5b506101566106aa565b3480156101d257600080fd5b5061020d6101e1366004610cc5565b6003602081905260009182526040909120805460018201546002830154929093015490929160070b9084565b60405161010d9493929190938452602084019290925260070b6040830152606082015260800190565b34801561024257600080fd5b50610156610251366004610cc5565b6106bc565b34801561026257600080fd5b506101566107a5565b34801561027757600080fd5b506000546001600160a01b03165b6040516001600160a01b03909116815260200161010d565b3480156102a957600080fd5b506102857f000000000000000000000000000000000000000000000000000000000000000081565b3480156102dd57600080fd5b506102f16102ec366004610cc5565b6107b5565b60405161010d9190815181526020808301519082015260408083015160070b908201526060918201519181019190915260800190565b34801561033357600080fd5b50610156610342366004610cde565b610828565b6004602052816000526040600020818154811061036357600080fd5b90600052602060002001600091509150505481565b336001600160a01b037f000000000000000000000000000000000000000000000000000000000000000016146103f55760405162461bcd60e51b815260206004820181905260248201527f4f6e6c79206465646963617465642067656c61746f206d73672e73656e64657260448201526064015b60405180910390fd5b60015460405163d47eed4560e01b81526000916001600160a01b03169063d47eed4590610426908690600401610d00565b602060405180830381865afa158015610443573d6000803e3d6000fd5b505050506040513d601f19601f820116820180604052508101906104679190610d92565b600154604051631df3cbc560e31b81529192506001600160a01b03169063ef9e5e2890839061049a908790600401610d00565b6000604051808303818588803b1580156104b357600080fd5b505af11580156104c7573d6000803e3d6000fd5b50506001546040516396834ad360e01b81527fff61491a931112ddf1bd8147cd1b641375f79f5825126d665480874634fd0ace600482018190529450600093506001600160a01b0390911691506396834ad390602401608060405180830381865afa15801561053a573d6000803e3d6000fd5b505050506040513d601f19601f8201168201806040525081019061055e9190610dab565b905060005b84518110156106365760006003600087848151811061058457610584610e42565b60200260200101518152602001908152602001600020905082606001518160000154600c6105b29190610e6e565b106105f45760405162461bcd60e51b81526020600482015260126024820152711393d5080c4c881cd958c8195b185c1cd95960721b60448201526064016103ec565b825160028201805467ffffffffffffffff191667ffffffffffffffff90921691909117905560608301516003909101558061062e81610e87565b915050610563565b505050505050565b60006106486108a1565b604051600090339047908381818185875af1925050503d806000811461068a576040519150601f19603f3d011682016040523d82523d6000602084013e61068f565b606091505b50909250505090565b6106a06108a1565b6106a86108fb565b565b6106b26108a1565b6106a86000610950565b6001600260008282546106cf9190610e6e565b90915550506040805160808101825242808252602080830185815260008486018181526060860182815260028054845260038087528985209851895594516001808a01919091559251888201805467ffffffffffffffff90921667ffffffffffffffff19909216919091179055905196909301959095553381526004835285812082548154968701825590825292902090930155905491517f6f34c3f094460b0585979f759a118a66b36a8e39a5fad428401bededa66b4d4a9261079a928252602082015260400190565b60405180910390a150565b6107ad6108a1565b6106a86109a0565b6107e360405180608001604052806000815260200160008152602001600060070b8152602001600081525090565b50600090815260036020818152604092839020835160808101855281548152600182015492810192909252600281015460070b93820193909352910154606082015290565b6108306108a1565b6001600160a01b0381166108955760405162461bcd60e51b815260206004820152602660248201527f4f776e61626c653a206e6577206f776e657220697320746865207a65726f206160448201526564647265737360d01b60648201526084016103ec565b61089e81610950565b50565b6000546001600160a01b031633146106a85760405162461bcd60e51b815260206004820181905260248201527f4f776e61626c653a2063616c6c6572206973206e6f7420746865206f776e657260448201526064016103ec565b6109036109e3565b6000805460ff60a01b191690557f5db9ee0a495bf2e6ff9c91a7834c1ba4fdd244a5e8aa4e537bd38aeae4b073aa335b6040516001600160a01b03909116815260200160405180910390a1565b600080546001600160a01b038381166001600160a01b0319831681178455604051919092169283917f8be0079c531659141344cd1fd0a4f28419497f9722a3daafe3b4186f6b6457e09190a35050565b6109a8610a33565b6000805460ff60a01b1916600160a01b1790557f62e78cea01bee320cd4e420270b5ea74000d11b0c9f74754ebdbfc544b05a2586109333390565b600054600160a01b900460ff166106a85760405162461bcd60e51b815260206004820152601460248201527314185d5cd8589b194e881b9bdd081c185d5cd95960621b60448201526064016103ec565b600054600160a01b900460ff16156106a85760405162461bcd60e51b815260206004820152601060248201526f14185d5cd8589b194e881c185d5cd95960821b60448201526064016103ec565b80356001600160a01b0381168114610a9757600080fd5b919050565b60008060408385031215610aaf57600080fd5b610ab883610a80565b946020939093013593505050565b634e487b7160e01b600052604160045260246000fd5b604051601f8201601f1916810167ffffffffffffffff81118282101715610b0557610b05610ac6565b604052919050565b600067ffffffffffffffff821115610b2757610b27610ac6565b5060051b60200190565b600082601f830112610b4257600080fd5b81356020610b57610b5283610b0d565b610adc565b82815260059290921b84018101918181019086841115610b7657600080fd5b8286015b84811015610b915780358352918301918301610b7a565b509695505050505050565b6000806040808486031215610bb057600080fd5b833567ffffffffffffffff80821115610bc857600080fd5b8186019150601f8781840112610bdd57600080fd5b82356020610bed610b5283610b0d565b82815260059290921b8501810191818101908b841115610c0c57600080fd5b8287015b84811015610c9557803587811115610c285760008081fd5b8801603f81018e13610c3a5760008081fd5b8481013588811115610c4e57610c4e610ac6565b610c5f818901601f19168701610adc565b8181528f8c838501011115610c745760008081fd5b818c8401888301376000918101870191909152845250918301918301610c10565b509850508801359450505080831115610cad57600080fd5b5050610cbb85828601610b31565b9150509250929050565b600060208284031215610cd757600080fd5b5035919050565b600060208284031215610cf057600080fd5b610cf982610a80565b9392505050565b6000602080830181845280855180835260408601915060408160051b87010192508387016000805b83811015610d8457888603603f1901855282518051808852835b81811015610d5d578281018a01518982018b01528901610d42565b508781018901849052601f01601f1916909601870195509386019391860191600101610d28565b509398975050505050505050565b600060208284031215610da457600080fd5b5051919050565b600060808284031215610dbd57600080fd5b6040516080810167ffffffffffffffff8282108183111715610de157610de1610ac6565b81604052845191508160070b8214610df857600080fd5b9082526020840151908082168214610e0f57600080fd5b5060208201526040830151600381900b8114610e2a57600080fd5b60408201526060928301519281019290925250919050565b634e487b7160e01b600052603260045260246000fd5b634e487b7160e01b600052601160045260246000fd5b80820180821115610e8157610e81610e58565b92915050565b600060018201610e9957610e99610e58565b506001019056fea264697066735822122060805a3ba7c51b3fe3200a4e9a7a2685cccbfcbd29a9f017dbadbec03c01d87364736f6c63430008120033",
  "devdoc": {
    "events": {
      "Paused(address)": {
        "details": "Emitted when the pause is triggered by `account`."
      },
      "Unpaused(address)": {
        "details": "Emitted when the pause is lifted by `account`."
      }
    },
    "kind": "dev",
    "methods": {
      "owner()": {
        "details": "Returns the address of the current owner."
      },
      "paused()": {
        "details": "Returns true if the contract is paused, and false otherwise."
      },
      "renounceOwnership()": {
        "details": "Leaves the contract without owner. It will not be possible to call `onlyOwner` functions. Can only be called by the current owner. NOTE: Renouncing ownership will leave the contract without an owner, thereby disabling any functionality that is only available to the owner."
      },
      "transferOwnership(address)": {
        "details": "Transfers ownership of the contract to a new account (`newOwner`). Can only be called by the current owner."
      }
    },
    "version": 1
  },
  "userdoc": {
    "kind": "user",
    "methods": {},
    "version": 1
  },
  "storageLayout": {
    "storage": [
      {
        "astId": 7,
        "contract": "contracts/PerpMock.sol:PerpMock",
        "label": "_owner",
        "offset": 0,
        "slot": "0",
        "type": "t_address"
      },
      {
        "astId": 130,
        "contract": "contracts/PerpMock.sol:PerpMock",
        "label": "_paused",
        "offset": 20,
        "slot": "0",
        "type": "t_bool"
      },
      {
        "astId": 506,
        "contract": "contracts/PerpMock.sol:PerpMock",
        "label": "_pyth",
        "offset": 0,
        "slot": "1",
        "type": "t_contract(IPyth)435"
      },
      {
        "astId": 508,
        "contract": "contracts/PerpMock.sol:PerpMock",
        "label": "orderId",
        "offset": 0,
        "slot": "2",
        "type": "t_uint256"
      },
      {
        "astId": 515,
        "contract": "contracts/PerpMock.sol:PerpMock",
        "label": "ordersByOrderId",
        "offset": 0,
        "slot": "3",
        "type": "t_mapping(t_uint256,t_struct(Order)503_storage)"
      },
      {
        "astId": 520,
        "contract": "contracts/PerpMock.sol:PerpMock",
        "label": "ordesByUser",
        "offset": 0,
        "slot": "4",
        "type": "t_mapping(t_address,t_array(t_uint256)dyn_storage)"
      }
    ],
    "types": {
      "t_address": {
        "encoding": "inplace",
        "label": "address",
        "numberOfBytes": "20"
      },
      "t_array(t_uint256)dyn_storage": {
        "base": "t_uint256",
        "encoding": "dynamic_array",
        "label": "uint256[]",
        "numberOfBytes": "32"
      },
      "t_bool": {
        "encoding": "inplace",
        "label": "bool",
        "numberOfBytes": "1"
      },
      "t_contract(IPyth)435": {
        "encoding": "inplace",
        "label": "contract IPyth",
        "numberOfBytes": "20"
      },
      "t_int64": {
        "encoding": "inplace",
        "label": "int64",
        "numberOfBytes": "8"
      },
      "t_mapping(t_address,t_array(t_uint256)dyn_storage)": {
        "encoding": "mapping",
        "key": "t_address",
        "label": "mapping(address => uint256[])",
        "numberOfBytes": "32",
        "value": "t_array(t_uint256)dyn_storage"
      },
      "t_mapping(t_uint256,t_struct(Order)503_storage)": {
        "encoding": "mapping",
        "key": "t_uint256",
        "label": "mapping(uint256 => struct PerpMock.Order)",
        "numberOfBytes": "32",
        "value": "t_struct(Order)503_storage"
      },
      "t_struct(Order)503_storage": {
        "encoding": "inplace",
        "label": "struct PerpMock.Order",
        "members": [
          {
            "astId": 496,
            "contract": "contracts/PerpMock.sol:PerpMock",
            "label": "timestamp",
            "offset": 0,
            "slot": "0",
            "type": "t_uint256"
          },
          {
            "astId": 498,
            "contract": "contracts/PerpMock.sol:PerpMock",
            "label": "amount",
            "offset": 0,
            "slot": "1",
            "type": "t_uint256"
          },
          {
            "astId": 500,
            "contract": "contracts/PerpMock.sol:PerpMock",
            "label": "price",
            "offset": 0,
            "slot": "2",
            "type": "t_int64"
          },
          {
            "astId": 502,
            "contract": "contracts/PerpMock.sol:PerpMock",
            "label": "publishTime",
            "offset": 0,
            "slot": "3",
            "type": "t_uint256"
          }
        ],
        "numberOfBytes": "128"
      },
      "t_uint256": {
        "encoding": "inplace",
        "label": "uint256",
        "numberOfBytes": "32"
      }
    }
  }
}